{"contracts/SoilDataStore.sol":{"SoilDataStore":{"abi":[{"anonymous":false,"inputs":[{"indexed":true,"internalType":"uint256","name":"id","type":"uint256"},{"indexed":false,"internalType":"uint256","name":"measuredAtVN","type":"uint256"},{"indexed":false,"internalType":"uint256","name":"temperatureC","type":"uint256"},{"indexed":false,"internalType":"uint256","name":"humidityPct","type":"uint256"},{"indexed":false,"internalType":"uint256","name":"conductivity","type":"uint256"},{"indexed":false,"internalType":"uint256","name":"phValue","type":"uint256"},{"indexed":false,"internalType":"uint256","name":"nitrogen","type":"uint256"},{"indexed":false,"internalType":"uint256","name":"phosphorus","type":"uint256"},{"indexed":false,"internalType":"uint256","name":"potassium","type":"uint256"},{"indexed":false,"internalType":"uint256","name":"salt","type":"uint256"},{"indexed":false,"internalType":"address","name":"reporter","type":"address"}],"name":"DataStored","type":"event"},{"inputs":[],"name":"getCount","outputs":[{"internalType":"uint256","name":"","type":"uint256"}],"stateMutability":"view","type":"function"},{"inputs":[{"internalType":"uint256","name":"id","type":"uint256"}],"name":"getRecord","outputs":[{"components":[{"internalType":"uint256","name":"measuredAtVN","type":"uint256"},{"internalType":"uint256","name":"temperatureC","type":"uint256"},{"internalType":"uint256","name":"humidityPct","type":"uint256"},{"internalType":"uint256","name":"conductivity","type":"uint256"},{"internalType":"uint256","name":"phValue","type":"uint256"},{"internalType":"uint256","name":"nitrogen","type":"uint256"},{"internalType":"uint256","name":"phosphorus","type":"uint256"},{"internalType":"uint256","name":"potassium","type":"uint256"},{"internalType":"uint256","name":"salt","type":"uint256"},{"internalType":"address","name":"reporter","type":"address"}],"internalType":"struct SoilDataStore.SoilData","name":"","type":"tuple"}],"stateMutability":"view","type":"function"},{"inputs":[{"internalType":"uint256","name":"startTime","type":"uint256"},{"internalType":"uint256","name":"endTime","type":"uint256"}],"name":"getRecordsByTimeRange","outputs":[{"components":[{"internalType":"uint256","name":"measuredAtVN","type":"uint256"},{"internalType":"uint256","name":"temperatureC","type":"uint256"},{"internalType":"uint256","name":"humidityPct","type":"uint256"},{"internalType":"uint256","name":"conductivity","type":"uint256"},{"internalType":"uint256","name":"phValue","type":"uint256"},{"internalType":"uint256","name":"nitrogen","type":"uint256"},{"internalType":"uint256","name":"phosphorus","type":"uint256"},{"internalType":"uint256","name":"potassium","type":"uint256"},{"internalType":"uint256","name":"salt","type":"uint256"},{"internalType":"address","name":"reporter","type":"address"}],"internalType":"struct SoilDataStore.SoilData[]","name":"","type":"tuple[]"}],"stateMutability":"view","type":"function"},{"inputs":[{"internalType":"uint256","name":"","type":"uint256"}],"name":"records","outputs":[{"internalType":"uint256","name":"measuredAtVN","type":"uint256"},{"internalType":"uint256","name":"temperatureC","type":"uint256"},{"internalType":"uint256","name":"humidityPct","type":"uint256"},{"internalType":"uint256","name":"conductivity","type":"uint256"},{"internalType":"uint256","name":"phValue","type":"uint256"},{"internalType":"uint256","name":"nitrogen","type":"uint256"},{"internalType":"uint256","name":"phosphorus","type":"uint256"},{"internalType":"uint256","name":"potassium","type":"uint256"},{"internalType":"uint256","name":"salt","type":"uint256"},{"internalType":"address","name":"reporter","type":"address"}],"stateMutability":"view","type":"function"},{"inputs":[{"internalType":"uint256","name":"_measuredAtVN","type":"uint256"},{"internalType":"uint256","name":"_temperatureC","type":"uint256"},{"internalType":"uint256","name":"_humidityPct","type":"uint256"},{"internalType":"uint256","name":"_conductivity","type":"uint256"},{"internalType":"uint256","name":"_phValue","type":"uint256"},{"internalType":"uint256","name":"_nitrogen","type":"uint256"},{"internalType":"uint256","name":"_phosphorus","type":"uint256"},{"internalType":"uint256","name":"_potassium","type":"uint256"},{"internalType":"uint256","name":"_salt","type":"uint256"}],"name":"storeData","outputs":[],"stateMutability":"nonpayable","type":"function"}],"evm":{"bytecode":{"linkReferences":{},"object":"608060405234801561001057600080fd5b50610e4f806100206000396000f3fe608060405234801561001057600080fd5b50600436106100575760003560e01c806303e9e6091461005c578063344610671461008c5780633f1efd25146100c5578063a87d942c146100f5578063fd3af66b14610113575b600080fd5b610076600480360381019061007191906107b1565b61012f565b60405161008391906108fa565b60405180910390f35b6100a660048036038101906100a191906107b1565b610263565b6040516100bc9a99989796959493929190610934565b60405180910390f35b6100df60048036038101906100da91906109d0565b6102e7565b6040516100ec9190610b8c565b60405180910390f35b6100fd61056f565b60405161010a9190610bae565b60405180910390f35b61012d60048036038101906101289190610bc9565b61057b565b005b61013761070d565b600080549050821061017e576040517f08c379a000000000000000000000000000000000000000000000000000000000815260040161017590610cf0565b60405180910390fd5b6000828154811061019257610191610d10565b5b90600052602060002090600a0201604051806101400160405290816000820154815260200160018201548152602001600282015481526020016003820154815260200160048201548152602001600582015481526020016006820154815260200160078201548152602001600882015481526020016009820160009054906101000a900473ffffffffffffffffffffffffffffffffffffffff1673ffffffffffffffffffffffffffffffffffffffff1673ffffffffffffffffffffffffffffffffffffffff16815250509050919050565b6000818154811061027357600080fd5b90600052602060002090600a02016000915090508060000154908060010154908060020154908060030154908060040154908060050154908060060154908060070154908060080154908060090160009054906101000a900473ffffffffffffffffffffffffffffffffffffffff1690508a565b60606000805b60008054905081101561037b57846000828154811061030f5761030e610d10565b5b90600052602060002090600a020160000154101580156103545750836000828154811061033f5761033e610d10565b5b90600052602060002090600a02016000015411155b1561036857818061036490610d6e565b9250505b808061037390610d6e565b9150506102ed565b5060008167ffffffffffffffff81111561039857610397610db6565b5b6040519080825280602002602001820160405280156103d157816020015b6103be61070d565b8152602001906001900390816103b65790505b5090506000805b6000805490508110156105625786600082815481106103fa576103f9610d10565b5b90600052602060002090600a0201600001541015801561043f5750856000828154811061042a57610429610d10565b5b90600052602060002090600a02016000015411155b1561054f576000818154811061045857610457610d10565b5b90600052602060002090600a0201604051806101400160405290816000820154815260200160018201548152602001600282015481526020016003820154815260200160048201548152602001600582015481526020016006820154815260200160078201548152602001600882015481526020016009820160009054906101000a900473ffffffffffffffffffffffffffffffffffffffff1673ffffffffffffffffffffffffffffffffffffffff1673ffffffffffffffffffffffffffffffffffffffff168152505083838151811061053557610534610d10565b5b6020026020010181905250818061054b90610d6e565b9250505b808061055a90610d6e565b9150506103d8565b5081935050505092915050565b60008080549050905090565b60006040518061014001604052808b81526020018a81526020018981526020018881526020018781526020018681526020018581526020018481526020018381526020013373ffffffffffffffffffffffffffffffffffffffff1681525090806001815401808255809150506001900390600052602060002090600a0201600090919091909150600082015181600001556020820151816001015560408201518160020155606082015181600301556080820151816004015560a0820151816005015560c0820151816006015560e0820151816007015561010082015181600801556101208201518160090160006101000a81548173ffffffffffffffffffffffffffffffffffffffff021916908373ffffffffffffffffffffffffffffffffffffffff160217905550505060016000805490506106b99190610de5565b7f77118f01cd65ba08c77b26b015aceb32890dc600d5203fe49a61c0a8c9ad9cff8a8a8a8a8a8a8a8a8a336040516106fa9a99989796959493929190610934565b60405180910390a2505050505050505050565b604051806101400160405280600081526020016000815260200160008152602001600081526020016000815260200160008152602001600081526020016000815260200160008152602001600073ffffffffffffffffffffffffffffffffffffffff1681525090565b600080fd5b6000819050919050565b61078e8161077b565b811461079957600080fd5b50565b6000813590506107ab81610785565b92915050565b6000602082840312156107c7576107c6610776565b5b60006107d58482850161079c565b91505092915050565b6107e78161077b565b82525050565b600073ffffffffffffffffffffffffffffffffffffffff82169050919050565b6000610818826107ed565b9050919050565b6108288161080d565b82525050565b6101408201600082015161084560008501826107de565b50602082015161085860208501826107de565b50604082015161086b60408501826107de565b50606082015161087e60608501826107de565b50608082015161089160808501826107de565b5060a08201516108a460a08501826107de565b5060c08201516108b760c08501826107de565b5060e08201516108ca60e08501826107de565b506101008201516108df6101008501826107de565b506101208201516108f461012085018261081f565b50505050565b600061014082019050610910600083018461082e565b92915050565b61091f8161077b565b82525050565b61092e8161080d565b82525050565b60006101408201905061094a600083018d610916565b610957602083018c610916565b610964604083018b610916565b610971606083018a610916565b61097e6080830189610916565b61098b60a0830188610916565b61099860c0830187610916565b6109a560e0830186610916565b6109b3610100830185610916565b6109c1610120830184610925565b9b9a5050505050505050505050565b600080604083850312156109e7576109e6610776565b5b60006109f58582860161079c565b9250506020610a068582860161079c565b9150509250929050565b600081519050919050565b600082825260208201905092915050565b6000819050602082019050919050565b61014082016000820151610a5360008501826107de565b506020820151610a6660208501826107de565b506040820151610a7960408501826107de565b506060820151610a8c60608501826107de565b506080820151610a9f60808501826107de565b5060a0820151610ab260a08501826107de565b5060c0820151610ac560c08501826107de565b5060e0820151610ad860e08501826107de565b50610100820151610aed6101008501826107de565b50610120820151610b0261012085018261081f565b50505050565b6000610b148383610a3c565b6101408301905092915050565b6000602082019050919050565b6000610b3982610a10565b610b438185610a1b565b9350610b4e83610a2c565b8060005b83811015610b7f578151610b668882610b08565b9750610b7183610b21565b925050600181019050610b52565b5085935050505092915050565b60006020820190508181036000830152610ba68184610b2e565b905092915050565b6000602082019050610bc36000830184610916565b92915050565b60008060008060008060008060006101208a8c031215610bec57610beb610776565b5b6000610bfa8c828d0161079c565b9950506020610c0b8c828d0161079c565b9850506040610c1c8c828d0161079c565b9750506060610c2d8c828d0161079c565b9650506080610c3e8c828d0161079c565b95505060a0610c4f8c828d0161079c565b94505060c0610c608c828d0161079c565b93505060e0610c718c828d0161079c565b925050610100610c838c828d0161079c565b9150509295985092959850929598565b600082825260208201905092915050565b7f496e76616c696420494400000000000000000000000000000000000000000000600082015250565b6000610cda600a83610c93565b9150610ce582610ca4565b602082019050919050565b60006020820190508181036000830152610d0981610ccd565b9050919050565b7f4e487b7100000000000000000000000000000000000000000000000000000000600052603260045260246000fd5b7f4e487b7100000000000000000000000000000000000000000000000000000000600052601160045260246000fd5b6000610d798261077b565b91507fffffffffffffffffffffffffffffffffffffffffffffffffffffffffffffffff8203610dab57610daa610d3f565b5b600182019050919050565b7f4e487b7100000000000000000000000000000000000000000000000000000000600052604160045260246000fd5b6000610df08261077b565b9150610dfb8361077b565b9250828203905081811115610e1357610e12610d3f565b5b9291505056fea2646970667358221220b65b1904600b62c86505cb023b4f2eccea39da831f62f1dc331e0e68246a845364736f6c63430008140033","opcodes":"PUSH1 0x80 PUSH1 0x40 MSTORE CALLVALUE DUP1 ISZERO PUSH2 0x10 JUMPI PUSH1 0x0 DUP1 REVERT JUMPDEST POP PUSH2 0xE4F DUP1 PUSH2 0x20 PUSH1 0x0 CODECOPY PUSH1 0x0 RETURN INVALID PUSH1 0x80 PUSH1 0x40 MSTORE CALLVALUE DUP1 ISZERO PUSH2 0x10 JUMPI PUSH1 0x0 DUP1 REVERT JUMPDEST POP PUSH1 0x4 CALLDATASIZE LT PUSH2 0x57 JUMPI PUSH1 0x0 CALLDATALOAD PUSH1 0xE0 SHR DUP1 PUSH4 0x3E9E609 EQ PUSH2 0x5C JUMPI DUP1 PUSH4 0x34461067 EQ PUSH2 0x8C JUMPI DUP1 PUSH4 0x3F1EFD25 EQ PUSH2 0xC5 JUMPI DUP1 PUSH4 0xA87D942C EQ PUSH2 0xF5 JUMPI DUP1 PUSH4 0xFD3AF66B EQ PUSH2 0x113 JUMPI JUMPDEST PUSH1 0x0 DUP1 REVERT JUMPDEST PUSH2 0x76 PUSH1 0x4 DUP1 CALLDATASIZE SUB DUP2 ADD SWAP1 PUSH2 0x71 SWAP2 SWAP1 PUSH2 0x7B1 JUMP JUMPDEST PUSH2 0x12F JUMP JUMPDEST PUSH1 0x40 MLOAD PUSH2 0x83 SWAP2 SWAP1 PUSH2 0x8FA JUMP JUMPDEST PUSH1 0x40 MLOAD DUP1 SWAP2 SUB SWAP1 RETURN JUMPDEST PUSH2 0xA6 PUSH1 0x4 DUP1 CALLDATASIZE SUB DUP2 ADD SWAP1 PUSH2 0xA1 SWAP2 SWAP1 PUSH2 0x7B1 JUMP JUMPDEST PUSH2 0x263 JUMP JUMPDEST PUSH1 0x40 MLOAD PUSH2 0xBC SWAP11 SWAP10 SWAP9 SWAP8 SWAP7 SWAP6 SWAP5 SWAP4 SWAP3 SWAP2 SWAP1 PUSH2 0x934 JUMP JUMPDEST PUSH1 0x40 MLOAD DUP1 SWAP2 SUB SWAP1 RETURN JUMPDEST PUSH2 0xDF PUSH1 0x4 DUP1 CALLDATASIZE SUB DUP2 ADD SWAP1 PUSH2 0xDA SWAP2 SWAP1 PUSH2 0x9D0 JUMP JUMPDEST PUSH2 0x2E7 JUMP JUMPDEST PUSH1 0x40 MLOAD PUSH2 0xEC SWAP2 SWAP1 PUSH2 0xB8C JUMP JUMPDEST PUSH1 0x40 MLOAD DUP1 SWAP2 SUB SWAP1 RETURN JUMPDEST PUSH2 0xFD PUSH2 0x56F JUMP JUMPDEST PUSH1 0x40 MLOAD PUSH2 0x10A SWAP2 SWAP1 PUSH2 0xBAE JUMP JUMPDEST PUSH1 0x40 MLOAD DUP1 SWAP2 SUB SWAP1 RETURN JUMPDEST PUSH2 0x12D PUSH1 0x4 DUP1 CALLDATASIZE SUB DUP2 ADD SWAP1 PUSH2 0x128 SWAP2 SWAP1 PUSH2 0xBC9 JUMP JUMPDEST PUSH2 0x57B JUMP JUMPDEST STOP JUMPDEST PUSH2 0x137 PUSH2 0x70D JUMP JUMPDEST PUSH1 0x0 DUP1 SLOAD SWAP1 POP DUP3 LT PUSH2 0x17E JUMPI PUSH1 0x40 MLOAD PUSH32 0x8C379A000000000000000000000000000000000000000000000000000000000 DUP2 MSTORE PUSH1 0x4 ADD PUSH2 0x175 SWAP1 PUSH2 0xCF0 JUMP JUMPDEST PUSH1 0x40 MLOAD DUP1 SWAP2 SUB SWAP1 REVERT JUMPDEST PUSH1 0x0 DUP3 DUP2 SLOAD DUP2 LT PUSH2 0x192 JUMPI PUSH2 0x191 PUSH2 0xD10 JUMP JUMPDEST JUMPDEST SWAP1 PUSH1 0x0 MSTORE PUSH1 0x20 PUSH1 0x0 KECCAK256 SWAP1 PUSH1 0xA MUL ADD PUSH1 0x40 MLOAD DUP1 PUSH2 0x140 ADD PUSH1 0x40 MSTORE SWAP1 DUP2 PUSH1 0x0 DUP3 ADD SLOAD DUP2 MSTORE PUSH1 0x20 ADD PUSH1 0x1 DUP3 ADD SLOAD DUP2 MSTORE PUSH1 0x20 ADD PUSH1 0x2 DUP3 ADD SLOAD DUP2 MSTORE PUSH1 0x20 ADD PUSH1 0x3 DUP3 ADD SLOAD DUP2 MSTORE PUSH1 0x20 ADD PUSH1 0x4 DUP3 ADD SLOAD DUP2 MSTORE PUSH1 0x20 ADD PUSH1 0x5 DUP3 ADD SLOAD DUP2 MSTORE PUSH1 0x20 ADD PUSH1 0x6 DUP3 ADD SLOAD DUP2 MSTORE PUSH1 0x20 ADD PUSH1 0x7 DUP3 ADD SLOAD DUP2 MSTORE PUSH1 0x20 ADD PUSH1 0x8 DUP3 ADD SLOAD DUP2 MSTORE PUSH1 0x20 ADD PUSH1 0x9 DUP3 ADD PUSH1 0x0 SWAP1 SLOAD SWAP1 PUSH2 0x100 EXP SWAP1 DIV PUSH20 0xFFFFFFFFFFFFFFFFFFFFFFFFFFFFFFFFFFFFFFFF AND PUSH20 0xFFFFFFFFFFFFFFFFFFFFFFFFFFFFFFFFFFFFFFFF AND PUSH20 0xFFFFFFFFFFFFFFFFFFFFFFFFFFFFFFFFFFFFFFFF AND DUP2 MSTORE POP POP SWAP1 POP SWAP2 SWAP1 POP JUMP JUMPDEST PUSH1 0x0 DUP2 DUP2 SLOAD DUP2 LT PUSH2 0x273 JUMPI PUSH1 0x0 DUP1 REVERT JUMPDEST SWAP1 PUSH1 0x0 MSTORE PUSH1 0x20 PUSH1 0x0 KECCAK256 SWAP1 PUSH1 0xA MUL ADD PUSH1 0x0 SWAP2 POP SWAP1 POP DUP1 PUSH1 0x0 ADD SLOAD SWAP1 DUP1 PUSH1 0x1 ADD SLOAD SWAP1 DUP1 PUSH1 0x2 ADD SLOAD SWAP1 DUP1 PUSH1 0x3 ADD SLOAD SWAP1 DUP1 PUSH1 0x4 ADD SLOAD SWAP1 DUP1 PUSH1 0x5 ADD SLOAD SWAP1 DUP1 PUSH1 0x6 ADD SLOAD SWAP1 DUP1 PUSH1 0x7 ADD SLOAD SWAP1 DUP1 PUSH1 0x8 ADD SLOAD SWAP1 DUP1 PUSH1 0x9 ADD PUSH1 0x0 SWAP1 SLOAD SWAP1 PUSH2 0x100 EXP SWAP1 DIV PUSH20 0xFFFFFFFFFFFFFFFFFFFFFFFFFFFFFFFFFFFFFFFF AND SWAP1 POP DUP11 JUMP JUMPDEST PUSH1 0x60 PUSH1 0x0 DUP1 JUMPDEST PUSH1 0x0 DUP1 SLOAD SWAP1 POP DUP2 LT ISZERO PUSH2 0x37B JUMPI DUP5 PUSH1 0x0 DUP3 DUP2 SLOAD DUP2 LT PUSH2 0x30F JUMPI PUSH2 0x30E PUSH2 0xD10 JUMP JUMPDEST JUMPDEST SWAP1 PUSH1 0x0 MSTORE PUSH1 0x20 PUSH1 0x0 KECCAK256 SWAP1 PUSH1 0xA MUL ADD PUSH1 0x0 ADD SLOAD LT ISZERO DUP1 ISZERO PUSH2 0x354 JUMPI POP DUP4 PUSH1 0x0 DUP3 DUP2 SLOAD DUP2 LT PUSH2 0x33F JUMPI PUSH2 0x33E PUSH2 0xD10 JUMP JUMPDEST JUMPDEST SWAP1 PUSH1 0x0 MSTORE PUSH1 0x20 PUSH1 0x0 KECCAK256 SWAP1 PUSH1 0xA MUL ADD PUSH1 0x0 ADD SLOAD GT ISZERO JUMPDEST ISZERO PUSH2 0x368 JUMPI DUP2 DUP1 PUSH2 0x364 SWAP1 PUSH2 0xD6E JUMP JUMPDEST SWAP3 POP POP JUMPDEST DUP1 DUP1 PUSH2 0x373 SWAP1 PUSH2 0xD6E JUMP JUMPDEST SWAP2 POP POP PUSH2 0x2ED JUMP JUMPDEST POP PUSH1 0x0 DUP2 PUSH8 0xFFFFFFFFFFFFFFFF DUP2 GT ISZERO PUSH2 0x398 JUMPI PUSH2 0x397 PUSH2 0xDB6 JUMP JUMPDEST JUMPDEST PUSH1 0x40 MLOAD SWAP1 DUP1 DUP3 MSTORE DUP1 PUSH1 0x20 MUL PUSH1 0x20 ADD DUP3 ADD PUSH1 0x40 MSTORE DUP1 ISZERO PUSH2 0x3D1 JUMPI DUP2 PUSH1 0x20 ADD JUMPDEST PUSH2 0x3BE PUSH2 0x70D JUMP JUMPDEST DUP2 MSTORE PUSH1 0x20 ADD SWAP1 PUSH1 0x1 SWAP1 SUB SWAP1 DUP2 PUSH2 0x3B6 JUMPI SWAP1 POP JUMPDEST POP SWAP1 POP PUSH1 0x0 DUP1 JUMPDEST PUSH1 0x0 DUP1 SLOAD SWAP1 POP DUP2 LT ISZERO PUSH2 0x562 JUMPI DUP7 PUSH1 0x0 DUP3 DUP2 SLOAD DUP2 LT PUSH2 0x3FA JUMPI PUSH2 0x3F9 PUSH2 0xD10 JUMP JUMPDEST JUMPDEST SWAP1 PUSH1 0x0 MSTORE PUSH1 0x20 PUSH1 0x0 KECCAK256 SWAP1 PUSH1 0xA MUL ADD PUSH1 0x0 ADD SLOAD LT ISZERO DUP1 ISZERO PUSH2 0x43F JUMPI POP DUP6 PUSH1 0x0 DUP3 DUP2 SLOAD DUP2 LT PUSH2 0x42A JUMPI PUSH2 0x429 PUSH2 0xD10 JUMP JUMPDEST JUMPDEST SWAP1 PUSH1 0x0 MSTORE PUSH1 0x20 PUSH1 0x0 KECCAK256 SWAP1 PUSH1 0xA MUL ADD PUSH1 0x0 ADD SLOAD GT ISZERO JUMPDEST ISZERO PUSH2 0x54F JUMPI PUSH1 0x0 DUP2 DUP2 SLOAD DUP2 LT PUSH2 0x458 JUMPI PUSH2 0x457 PUSH2 0xD10 JUMP JUMPDEST JUMPDEST SWAP1 PUSH1 0x0 MSTORE PUSH1 0x20 PUSH1 0x0 KECCAK256 SWAP1 PUSH1 0xA MUL ADD PUSH1 0x40 MLOAD DUP1 PUSH2 0x140 ADD PUSH1 0x40 MSTORE SWAP1 DUP2 PUSH1 0x0 DUP3 ADD SLOAD DUP2 MSTORE PUSH1 0x20 ADD PUSH1 0x1 DUP3 ADD SLOAD DUP2 MSTORE PUSH1 0x20 ADD PUSH1 0x2 DUP3 ADD SLOAD DUP2 MSTORE PUSH1 0x20 ADD PUSH1 0x3 DUP3 ADD SLOAD DUP2 MSTORE PUSH1 0x20 ADD PUSH1 0x4 DUP3 ADD SLOAD DUP2 MSTORE PUSH1 0x20 ADD PUSH1 0x5 DUP3 ADD SLOAD DUP2 MSTORE PUSH1 0x20 ADD PUSH1 0x6 DUP3 ADD SLOAD DUP2 MSTORE PUSH1 0x20 ADD PUSH1 0x7 DUP3 ADD SLOAD DUP2 MSTORE PUSH1 0x20 ADD PUSH1 0x8 DUP3 ADD SLOAD DUP2 MSTORE PUSH1 0x20 ADD PUSH1 0x9 DUP3 ADD PUSH1 0x0 SWAP1 SLOAD SWAP1 PUSH2 0x100 EXP SWAP1 DIV PUSH20 0xFFFFFFFFFFFFFFFFFFFFFFFFFFFFFFFFFFFFFFFF AND PUSH20 0xFFFFFFFFFFFFFFFFFFFFFFFFFFFFFFFFFFFFFFFF AND PUSH20 0xFFFFFFFFFFFFFFFFFFFFFFFFFFFFFFFFFFFFFFFF AND DUP2 MSTORE POP POP DUP4 DUP4 DUP2 MLOAD DUP2 LT PUSH2 0x535 JUMPI PUSH2 0x534 PUSH2 0xD10 JUMP JUMPDEST JUMPDEST PUSH1 0x20 MUL PUSH1 0x20 ADD ADD DUP2 SWAP1 MSTORE POP DUP2 DUP1 PUSH2 0x54B SWAP1 PUSH2 0xD6E JUMP JUMPDEST SWAP3 POP POP JUMPDEST DUP1 DUP1 PUSH2 0x55A SWAP1 PUSH2 0xD6E JUMP JUMPDEST SWAP2 POP POP PUSH2 0x3D8 JUMP JUMPDEST POP DUP2 SWAP4 POP POP POP POP SWAP3 SWAP2 POP POP JUMP JUMPDEST PUSH1 0x0 DUP1 DUP1 SLOAD SWAP1 POP SWAP1 POP SWAP1 JUMP JUMPDEST PUSH1 0x0 PUSH1 0x40 MLOAD DUP1 PUSH2 0x140 ADD PUSH1 0x40 MSTORE DUP1 DUP12 DUP2 MSTORE PUSH1 0x20 ADD DUP11 DUP2 MSTORE PUSH1 0x20 ADD DUP10 DUP2 MSTORE PUSH1 0x20 ADD DUP9 DUP2 MSTORE PUSH1 0x20 ADD DUP8 DUP2 MSTORE PUSH1 0x20 ADD DUP7 DUP2 MSTORE PUSH1 0x20 ADD DUP6 DUP2 MSTORE PUSH1 0x20 ADD DUP5 DUP2 MSTORE PUSH1 0x20 ADD DUP4 DUP2 MSTORE PUSH1 0x20 ADD CALLER PUSH20 0xFFFFFFFFFFFFFFFFFFFFFFFFFFFFFFFFFFFFFFFF AND DUP2 MSTORE POP SWAP1 DUP1 PUSH1 0x1 DUP2 SLOAD ADD DUP1 DUP3 SSTORE DUP1 SWAP2 POP POP PUSH1 0x1 SWAP1 SUB SWAP1 PUSH1 0x0 MSTORE PUSH1 0x20 PUSH1 0x0 KECCAK256 SWAP1 PUSH1 0xA MUL ADD PUSH1 0x0 SWAP1 SWAP2 SWAP1 SWAP2 SWAP1 SWAP2 POP PUSH1 0x0 DUP3 ADD MLOAD DUP2 PUSH1 0x0 ADD SSTORE PUSH1 0x20 DUP3 ADD MLOAD DUP2 PUSH1 0x1 ADD SSTORE PUSH1 0x40 DUP3 ADD MLOAD DUP2 PUSH1 0x2 ADD SSTORE PUSH1 0x60 DUP3 ADD MLOAD DUP2 PUSH1 0x3 ADD SSTORE PUSH1 0x80 DUP3 ADD MLOAD DUP2 PUSH1 0x4 ADD SSTORE PUSH1 0xA0 DUP3 ADD MLOAD DUP2 PUSH1 0x5 ADD SSTORE PUSH1 0xC0 DUP3 ADD MLOAD DUP2 PUSH1 0x6 ADD SSTORE PUSH1 0xE0 DUP3 ADD MLOAD DUP2 PUSH1 0x7 ADD SSTORE PUSH2 0x100 DUP3 ADD MLOAD DUP2 PUSH1 0x8 ADD SSTORE PUSH2 0x120 DUP3 ADD MLOAD DUP2 PUSH1 0x9 ADD PUSH1 0x0 PUSH2 0x100 EXP DUP2 SLOAD DUP2 PUSH20 0xFFFFFFFFFFFFFFFFFFFFFFFFFFFFFFFFFFFFFFFF MUL NOT AND SWAP1 DUP4 PUSH20 0xFFFFFFFFFFFFFFFFFFFFFFFFFFFFFFFFFFFFFFFF AND MUL OR SWAP1 SSTORE POP POP POP PUSH1 0x1 PUSH1 0x0 DUP1 SLOAD SWAP1 POP PUSH2 0x6B9 SWAP2 SWAP1 PUSH2 0xDE5 JUMP JUMPDEST PUSH32 0x77118F01CD65BA08C77B26B015ACEB32890DC600D5203FE49A61C0A8C9AD9CFF DUP11 DUP11 DUP11 DUP11 DUP11 DUP11 DUP11 DUP11 DUP11 CALLER PUSH1 0x40 MLOAD PUSH2 0x6FA SWAP11 SWAP10 SWAP9 SWAP8 SWAP7 SWAP6 SWAP5 SWAP4 SWAP3 SWAP2 SWAP1 PUSH2 0x934 JUMP JUMPDEST PUSH1 0x40 MLOAD DUP1 SWAP2 SUB SWAP1 LOG2 POP POP POP POP POP POP POP POP POP JUMP JUMPDEST PUSH1 0x40 MLOAD DUP1 PUSH2 0x140 ADD PUSH1 0x40 MSTORE DUP1 PUSH1 0x0 DUP2 MSTORE PUSH1 0x20 ADD PUSH1 0x0 DUP2 MSTORE PUSH1 0x20 ADD PUSH1 0x0 DUP2 MSTORE PUSH1 0x20 ADD PUSH1 0x0 DUP2 MSTORE PUSH1 0x20 ADD PUSH1 0x0 DUP2 MSTORE PUSH1 0x20 ADD PUSH1 0x0 DUP2 MSTORE PUSH1 0x20 ADD PUSH1 0x0 DUP2 MSTORE PUSH1 0x20 ADD PUSH1 0x0 DUP2 MSTORE PUSH1 0x20 ADD PUSH1 0x0 DUP2 MSTORE PUSH1 0x20 ADD PUSH1 0x0 PUSH20 0xFFFFFFFFFFFFFFFFFFFFFFFFFFFFFFFFFFFFFFFF AND DUP2 MSTORE POP SWAP1 JUMP JUMPDEST PUSH1 0x0 DUP1 REVERT JUMPDEST PUSH1 0x0 DUP2 SWAP1 POP SWAP2 SWAP1 POP JUMP JUMPDEST PUSH2 0x78E DUP2 PUSH2 0x77B JUMP JUMPDEST DUP2 EQ PUSH2 0x799 JUMPI PUSH1 0x0 DUP1 REVERT JUMPDEST POP JUMP JUMPDEST PUSH1 0x0 DUP2 CALLDATALOAD SWAP1 POP PUSH2 0x7AB DUP2 PUSH2 0x785 JUMP JUMPDEST SWAP3 SWAP2 POP POP JUMP JUMPDEST PUSH1 0x0 PUSH1 0x20 DUP3 DUP5 SUB SLT ISZERO PUSH2 0x7C7 JUMPI PUSH2 0x7C6 PUSH2 0x776 JUMP JUMPDEST JUMPDEST PUSH1 0x0 PUSH2 0x7D5 DUP5 DUP3 DUP6 ADD PUSH2 0x79C JUMP JUMPDEST SWAP2 POP POP SWAP3 SWAP2 POP POP JUMP JUMPDEST PUSH2 0x7E7 DUP2 PUSH2 0x77B JUMP JUMPDEST DUP3 MSTORE POP POP JUMP JUMPDEST PUSH1 0x0 PUSH20 0xFFFFFFFFFFFFFFFFFFFFFFFFFFFFFFFFFFFFFFFF DUP3 AND SWAP1 POP SWAP2 SWAP1 POP JUMP JUMPDEST PUSH1 0x0 PUSH2 0x818 DUP3 PUSH2 0x7ED JUMP JUMPDEST SWAP1 POP SWAP2 SWAP1 POP JUMP JUMPDEST PUSH2 0x828 DUP2 PUSH2 0x80D JUMP JUMPDEST DUP3 MSTORE POP POP JUMP JUMPDEST PUSH2 0x140 DUP3 ADD PUSH1 0x0 DUP3 ADD MLOAD PUSH2 0x845 PUSH1 0x0 DUP6 ADD DUP3 PUSH2 0x7DE JUMP JUMPDEST POP PUSH1 0x20 DUP3 ADD MLOAD PUSH2 0x858 PUSH1 0x20 DUP6 ADD DUP3 PUSH2 0x7DE JUMP JUMPDEST POP PUSH1 0x40 DUP3 ADD MLOAD PUSH2 0x86B PUSH1 0x40 DUP6 ADD DUP3 PUSH2 0x7DE JUMP JUMPDEST POP PUSH1 0x60 DUP3 ADD MLOAD PUSH2 0x87E PUSH1 0x60 DUP6 ADD DUP3 PUSH2 0x7DE JUMP JUMPDEST POP PUSH1 0x80 DUP3 ADD MLOAD PUSH2 0x891 PUSH1 0x80 DUP6 ADD DUP3 PUSH2 0x7DE JUMP JUMPDEST POP PUSH1 0xA0 DUP3 ADD MLOAD PUSH2 0x8A4 PUSH1 0xA0 DUP6 ADD DUP3 PUSH2 0x7DE JUMP JUMPDEST POP PUSH1 0xC0 DUP3 ADD MLOAD PUSH2 0x8B7 PUSH1 0xC0 DUP6 ADD DUP3 PUSH2 0x7DE JUMP JUMPDEST POP PUSH1 0xE0 DUP3 ADD MLOAD PUSH2 0x8CA PUSH1 0xE0 DUP6 ADD DUP3 PUSH2 0x7DE JUMP JUMPDEST POP PUSH2 0x100 DUP3 ADD MLOAD PUSH2 0x8DF PUSH2 0x100 DUP6 ADD DUP3 PUSH2 0x7DE JUMP JUMPDEST POP PUSH2 0x120 DUP3 ADD MLOAD PUSH2 0x8F4 PUSH2 0x120 DUP6 ADD DUP3 PUSH2 0x81F JUMP JUMPDEST POP POP POP POP JUMP JUMPDEST PUSH1 0x0 PUSH2 0x140 DUP3 ADD SWAP1 POP PUSH2 0x910 PUSH1 0x0 DUP4 ADD DUP5 PUSH2 0x82E JUMP JUMPDEST SWAP3 SWAP2 POP POP JUMP JUMPDEST PUSH2 0x91F DUP2 PUSH2 0x77B JUMP JUMPDEST DUP3 MSTORE POP POP JUMP JUMPDEST PUSH2 0x92E DUP2 PUSH2 0x80D JUMP JUMPDEST DUP3 MSTORE POP POP JUMP JUMPDEST PUSH1 0x0 PUSH2 0x140 DUP3 ADD SWAP1 POP PUSH2 0x94A PUSH1 0x0 DUP4 ADD DUP14 PUSH2 0x916 JUMP JUMPDEST PUSH2 0x957 PUSH1 0x20 DUP4 ADD DUP13 PUSH2 0x916 JUMP JUMPDEST PUSH2 0x964 PUSH1 0x40 DUP4 ADD DUP12 PUSH2 0x916 JUMP JUMPDEST PUSH2 0x971 PUSH1 0x60 DUP4 ADD DUP11 PUSH2 0x916 JUMP JUMPDEST PUSH2 0x97E PUSH1 0x80 DUP4 ADD DUP10 PUSH2 0x916 JUMP JUMPDEST PUSH2 0x98B PUSH1 0xA0 DUP4 ADD DUP9 PUSH2 0x916 JUMP JUMPDEST PUSH2 0x998 PUSH1 0xC0 DUP4 ADD DUP8 PUSH2 0x916 JUMP JUMPDEST PUSH2 0x9A5 PUSH1 0xE0 DUP4 ADD DUP7 PUSH2 0x916 JUMP JUMPDEST PUSH2 0x9B3 PUSH2 0x100 DUP4 ADD DUP6 PUSH2 0x916 JUMP JUMPDEST PUSH2 0x9C1 PUSH2 0x120 DUP4 ADD DUP5 PUSH2 0x925 JUMP JUMPDEST SWAP12 SWAP11 POP POP POP POP POP POP POP POP POP POP POP JUMP JUMPDEST PUSH1 0x0 DUP1 PUSH1 0x40 DUP4 DUP6 SUB SLT ISZERO PUSH2 0x9E7 JUMPI PUSH2 0x9E6 PUSH2 0x776 JUMP JUMPDEST JUMPDEST PUSH1 0x0 PUSH2 0x9F5 DUP6 DUP3 DUP7 ADD PUSH2 0x79C JUMP JUMPDEST SWAP3 POP POP PUSH1 0x20 PUSH2 0xA06 DUP6 DUP3 DUP7 ADD PUSH2 0x79C JUMP JUMPDEST SWAP2 POP POP SWAP3 POP SWAP3 SWAP1 POP JUMP JUMPDEST PUSH1 0x0 DUP2 MLOAD SWAP1 POP SWAP2 SWAP1 POP JUMP JUMPDEST PUSH1 0x0 DUP3 DUP3 MSTORE PUSH1 0x20 DUP3 ADD SWAP1 POP SWAP3 SWAP2 POP POP JUMP JUMPDEST PUSH1 0x0 DUP2 SWAP1 POP PUSH1 0x20 DUP3 ADD SWAP1 POP SWAP2 SWAP1 POP JUMP JUMPDEST PUSH2 0x140 DUP3 ADD PUSH1 0x0 DUP3 ADD MLOAD PUSH2 0xA53 PUSH1 0x0 DUP6 ADD DUP3 PUSH2 0x7DE JUMP JUMPDEST POP PUSH1 0x20 DUP3 ADD MLOAD PUSH2 0xA66 PUSH1 0x20 DUP6 ADD DUP3 PUSH2 0x7DE JUMP JUMPDEST POP PUSH1 0x40 DUP3 ADD MLOAD PUSH2 0xA79 PUSH1 0x40 DUP6 ADD DUP3 PUSH2 0x7DE JUMP JUMPDEST POP PUSH1 0x60 DUP3 ADD MLOAD PUSH2 0xA8C PUSH1 0x60 DUP6 ADD DUP3 PUSH2 0x7DE JUMP JUMPDEST POP PUSH1 0x80 DUP3 ADD MLOAD PUSH2 0xA9F PUSH1 0x80 DUP6 ADD DUP3 PUSH2 0x7DE JUMP JUMPDEST POP PUSH1 0xA0 DUP3 ADD MLOAD PUSH2 0xAB2 PUSH1 0xA0 DUP6 ADD DUP3 PUSH2 0x7DE JUMP JUMPDEST POP PUSH1 0xC0 DUP3 ADD MLOAD PUSH2 0xAC5 PUSH1 0xC0 DUP6 ADD DUP3 PUSH2 0x7DE JUMP JUMPDEST POP PUSH1 0xE0 DUP3 ADD MLOAD PUSH2 0xAD8 PUSH1 0xE0 DUP6 ADD DUP3 PUSH2 0x7DE JUMP JUMPDEST POP PUSH2 0x100 DUP3 ADD MLOAD PUSH2 0xAED PUSH2 0x100 DUP6 ADD DUP3 PUSH2 0x7DE JUMP JUMPDEST POP PUSH2 0x120 DUP3 ADD MLOAD PUSH2 0xB02 PUSH2 0x120 DUP6 ADD DUP3 PUSH2 0x81F JUMP JUMPDEST POP POP POP POP JUMP JUMPDEST PUSH1 0x0 PUSH2 0xB14 DUP4 DUP4 PUSH2 0xA3C JUMP JUMPDEST PUSH2 0x140 DUP4 ADD SWAP1 POP SWAP3 SWAP2 POP POP JUMP JUMPDEST PUSH1 0x0 PUSH1 0x20 DUP3 ADD SWAP1 POP SWAP2 SWAP1 POP JUMP JUMPDEST PUSH1 0x0 PUSH2 0xB39 DUP3 PUSH2 0xA10 JUMP JUMPDEST PUSH2 0xB43 DUP2 DUP6 PUSH2 0xA1B JUMP JUMPDEST SWAP4 POP PUSH2 0xB4E DUP4 PUSH2 0xA2C JUMP JUMPDEST DUP1 PUSH1 0x0 JUMPDEST DUP4 DUP2 LT ISZERO PUSH2 0xB7F JUMPI DUP2 MLOAD PUSH2 0xB66 DUP9 DUP3 PUSH2 0xB08 JUMP JUMPDEST SWAP8 POP PUSH2 0xB71 DUP4 PUSH2 0xB21 JUMP JUMPDEST SWAP3 POP POP PUSH1 0x1 DUP2 ADD SWAP1 POP PUSH2 0xB52 JUMP JUMPDEST POP DUP6 SWAP4 POP POP POP POP SWAP3 SWAP2 POP POP JUMP JUMPDEST PUSH1 0x0 PUSH1 0x20 DUP3 ADD SWAP1 POP DUP2 DUP2 SUB PUSH1 0x0 DUP4 ADD MSTORE PUSH2 0xBA6 DUP2 DUP5 PUSH2 0xB2E JUMP JUMPDEST SWAP1 POP SWAP3 SWAP2 POP POP JUMP JUMPDEST PUSH1 0x0 PUSH1 0x20 DUP3 ADD SWAP1 POP PUSH2 0xBC3 PUSH1 0x0 DUP4 ADD DUP5 PUSH2 0x916 JUMP JUMPDEST SWAP3 SWAP2 POP POP JUMP JUMPDEST PUSH1 0x0 DUP1 PUSH1 0x0 DUP1 PUSH1 0x0 DUP1 PUSH1 0x0 DUP1 PUSH1 0x0 PUSH2 0x120 DUP11 DUP13 SUB SLT ISZERO PUSH2 0xBEC JUMPI PUSH2 0xBEB PUSH2 0x776 JUMP JUMPDEST JUMPDEST PUSH1 0x0 PUSH2 0xBFA DUP13 DUP3 DUP14 ADD PUSH2 0x79C JUMP JUMPDEST SWAP10 POP POP PUSH1 0x20 PUSH2 0xC0B DUP13 DUP3 DUP14 ADD PUSH2 0x79C JUMP JUMPDEST SWAP9 POP POP PUSH1 0x40 PUSH2 0xC1C DUP13 DUP3 DUP14 ADD PUSH2 0x79C JUMP JUMPDEST SWAP8 POP POP PUSH1 0x60 PUSH2 0xC2D DUP13 DUP3 DUP14 ADD PUSH2 0x79C JUMP JUMPDEST SWAP7 POP POP PUSH1 0x80 PUSH2 0xC3E DUP13 DUP3 DUP14 ADD PUSH2 0x79C JUMP JUMPDEST SWAP6 POP POP PUSH1 0xA0 PUSH2 0xC4F DUP13 DUP3 DUP14 ADD PUSH2 0x79C JUMP JUMPDEST SWAP5 POP POP PUSH1 0xC0 PUSH2 0xC60 DUP13 DUP3 DUP14 ADD PUSH2 0x79C JUMP JUMPDEST SWAP4 POP POP PUSH1 0xE0 PUSH2 0xC71 DUP13 DUP3 DUP14 ADD PUSH2 0x79C JUMP JUMPDEST SWAP3 POP POP PUSH2 0x100 PUSH2 0xC83 DUP13 DUP3 DUP14 ADD PUSH2 0x79C JUMP JUMPDEST SWAP2 POP POP SWAP3 SWAP6 SWAP9 POP SWAP3 SWAP6 SWAP9 POP SWAP3 SWAP6 SWAP9 JUMP JUMPDEST PUSH1 0x0 DUP3 DUP3 MSTORE PUSH1 0x20 DUP3 ADD SWAP1 POP SWAP3 SWAP2 POP POP JUMP JUMPDEST PUSH32 0x496E76616C696420494400000000000000000000000000000000000000000000 PUSH1 0x0 DUP3 ADD MSTORE POP JUMP JUMPDEST PUSH1 0x0 PUSH2 0xCDA PUSH1 0xA DUP4 PUSH2 0xC93 JUMP JUMPDEST SWAP2 POP PUSH2 0xCE5 DUP3 PUSH2 0xCA4 JUMP JUMPDEST PUSH1 0x20 DUP3 ADD SWAP1 POP SWAP2 SWAP1 POP JUMP JUMPDEST PUSH1 0x0 PUSH1 0x20 DUP3 ADD SWAP1 POP DUP2 DUP2 SUB PUSH1 0x0 DUP4 ADD MSTORE PUSH2 0xD09 DUP2 PUSH2 0xCCD JUMP JUMPDEST SWAP1 POP SWAP2 SWAP1 POP JUMP JUMPDEST PUSH32 0x4E487B7100000000000000000000000000000000000000000000000000000000 PUSH1 0x0 MSTORE PUSH1 0x32 PUSH1 0x4 MSTORE PUSH1 0x24 PUSH1 0x0 REVERT JUMPDEST PUSH32 0x4E487B7100000000000000000000000000000000000000000000000000000000 PUSH1 0x0 MSTORE PUSH1 0x11 PUSH1 0x4 MSTORE PUSH1 0x24 PUSH1 0x0 REVERT JUMPDEST PUSH1 0x0 PUSH2 0xD79 DUP3 PUSH2 0x77B JUMP JUMPDEST SWAP2 POP PUSH32 0xFFFFFFFFFFFFFFFFFFFFFFFFFFFFFFFFFFFFFFFFFFFFFFFFFFFFFFFFFFFFFFFF DUP3 SUB PUSH2 0xDAB JUMPI PUSH2 0xDAA PUSH2 0xD3F JUMP JUMPDEST JUMPDEST PUSH1 0x1 DUP3 ADD SWAP1 POP SWAP2 SWAP1 POP JUMP JUMPDEST PUSH32 0x4E487B7100000000000000000000000000000000000000000000000000000000 PUSH1 0x0 MSTORE PUSH1 0x41 PUSH1 0x4 MSTORE PUSH1 0x24 PUSH1 0x0 REVERT JUMPDEST PUSH1 0x0 PUSH2 0xDF0 DUP3 PUSH2 0x77B JUMP JUMPDEST SWAP2 POP PUSH2 0xDFB DUP4 PUSH2 0x77B JUMP JUMPDEST SWAP3 POP DUP3 DUP3 SUB SWAP1 POP DUP2 DUP2 GT ISZERO PUSH2 0xE13 JUMPI PUSH2 0xE12 PUSH2 0xD3F JUMP JUMPDEST JUMPDEST SWAP3 SWAP2 POP POP JUMP INVALID LOG2 PUSH5 0x6970667358 0x22 SLT KECCAK256 0xB6 JUMPDEST NOT DIV PUSH1 0xB PUSH3 0xC86505 0xCB MUL EXTCODESIZE 0x4F 0x2E 0xCC 0xEA CODECOPY 0xDA DUP4 0x1F PUSH3 0xF1DC33 0x1E 0xE PUSH9 0x246A845364736F6C63 NUMBER STOP ADDMOD EQ STOP CALLER "},"methodIdentifiers":{"getCount()":"a87d942c","getRecord(uint256)":"03e9e609","getRecordsByTimeRange(uint256,uint256)":"3f1efd25","records(uint256)":"34461067","storeData(uint256,uint256,uint256,uint256,uint256,uint256,uint256,uint256,uint256)":"fd3af66b"}}}}}