{"contracts/SoilDataStore.sol":{"SoilDataStore":{"abi":[{"anonymous":false,"inputs":[{"indexed":true,"internalType":"uint256","name":"id","type":"uint256"},{"indexed":true,"internalType":"uint256","name":"dateTimestamp","type":"uint256"},{"indexed":false,"internalType":"string","name":"recommendedCrop","type":"string"},{"indexed":false,"internalType":"uint256","name":"soilHealthScore","type":"uint256"},{"indexed":false,"internalType":"bool","name":"isAnomalyDetected","type":"bool"},{"indexed":false,"internalType":"address","name":"reporter","type":"address"}],"name":"DailyInsightStored","type":"event"},{"anonymous":false,"inputs":[{"indexed":true,"internalType":"uint256","name":"id","type":"uint256"},{"indexed":false,"internalType":"uint256","name":"measuredAtVN","type":"uint256"},{"indexed":false,"internalType":"uint256","name":"soilTemperature","type":"uint256"},{"indexed":false,"internalType":"uint256","name":"soilMoisture","type":"uint256"},{"indexed":false,"internalType":"uint256","name":"conductivity","type":"uint256"},{"indexed":false,"internalType":"uint256","name":"phValue","type":"uint256"},{"indexed":false,"internalType":"uint256","name":"nitrogen","type":"uint256"},{"indexed":false,"internalType":"uint256","name":"phosphorus","type":"uint256"},{"indexed":false,"internalType":"uint256","name":"potassium","type":"uint256"},{"indexed":false,"internalType":"uint256","name":"salt","type":"uint256"},{"indexed":false,"internalType":"uint256","name":"airTemperature","type":"uint256"},{"indexed":false,"internalType":"uint256","name":"airHumidity","type":"uint256"},{"indexed":false,"internalType":"uint256","name":"isRaining","type":"uint256"},{"indexed":false,"internalType":"bytes32","name":"dataHash","type":"bytes32"},{"indexed":false,"internalType":"address","name":"reporter","type":"address"}],"name":"DataStored","type":"event"},{"inputs":[{"internalType":"uint256","name":"","type":"uint256"}],"name":"dailyInsightExists","outputs":[{"internalType":"bool","name":"","type":"bool"}],"stateMutability":"view","type":"function"},{"inputs":[{"internalType":"uint256","name":"","type":"uint256"}],"name":"dailyInsights","outputs":[{"internalType":"uint256","name":"id","type":"uint256"},{"internalType":"uint256","name":"dateTimestamp","type":"uint256"},{"internalType":"uint256","name":"sampleCount","type":"uint256"},{"internalType":"string","name":"recommendedCrop","type":"string"},{"internalType":"uint256","name":"confidence","type":"uint256"},{"internalType":"uint256","name":"soilHealthScore","type":"uint256"},{"internalType":"uint8","name":"healthRating","type":"uint8"},{"internalType":"bool","name":"isAnomalyDetected","type":"bool"},{"internalType":"string","name":"recommendations","type":"string"},{"internalType":"bytes32","name":"recordHash","type":"bytes32"},{"internalType":"address","name":"reporter","type":"address"}],"stateMutability":"view","type":"function"},{"inputs":[],"name":"getCount","outputs":[{"internalType":"uint256","name":"","type":"uint256"}],"stateMutability":"view","type":"function"},{"inputs":[{"internalType":"uint256","name":"id","type":"uint256"}],"name":"getDailyInsight","outputs":[{"components":[{"internalType":"uint256","name":"id","type":"uint256"},{"internalType":"uint256","name":"dateTimestamp","type":"uint256"},{"internalType":"uint256","name":"sampleCount","type":"uint256"},{"internalType":"string","name":"recommendedCrop","type":"string"},{"internalType":"uint256","name":"confidence","type":"uint256"},{"internalType":"uint256","name":"soilHealthScore","type":"uint256"},{"internalType":"uint8","name":"healthRating","type":"uint8"},{"internalType":"bool","name":"isAnomalyDetected","type":"bool"},{"internalType":"string","name":"recommendations","type":"string"},{"internalType":"bytes32","name":"recordHash","type":"bytes32"},{"internalType":"address","name":"reporter","type":"address"}],"internalType":"struct SoilDataStore.DailyInsight","name":"","type":"tuple"}],"stateMutability":"view","type":"function"},{"inputs":[],"name":"getDailyInsightCount","outputs":[{"internalType":"uint256","name":"","type":"uint256"}],"stateMutability":"view","type":"function"},{"inputs":[{"internalType":"uint256","name":"startDate","type":"uint256"},{"internalType":"uint256","name":"endDate","type":"uint256"}],"name":"getDailyInsightsByDateRange","outputs":[{"components":[{"internalType":"uint256","name":"id","type":"uint256"},{"internalType":"uint256","name":"dateTimestamp","type":"uint256"},{"internalType":"uint256","name":"sampleCount","type":"uint256"},{"internalType":"string","name":"recommendedCrop","type":"string"},{"internalType":"uint256","name":"confidence","type":"uint256"},{"internalType":"uint256","name":"soilHealthScore","type":"uint256"},{"internalType":"uint8","name":"healthRating","type":"uint8"},{"internalType":"bool","name":"isAnomalyDetected","type":"bool"},{"internalType":"string","name":"recommendations","type":"string"},{"internalType":"bytes32","name":"recordHash","type":"bytes32"},{"internalType":"address","name":"reporter","type":"address"}],"internalType":"struct SoilDataStore.DailyInsight[]","name":"","type":"tuple[]"}],"stateMutability":"view","type":"function"},{"inputs":[],"name":"getLatestDailyInsight","outputs":[{"components":[{"internalType":"uint256","name":"id","type":"uint256"},{"internalType":"uint256","name":"dateTimestamp","type":"uint256"},{"internalType":"uint256","name":"sampleCount","type":"uint256"},{"internalType":"string","name":"recommendedCrop","type":"string"},{"internalType":"uint256","name":"confidence","type":"uint256"},{"internalType":"uint256","name":"soilHealthScore","type":"uint256"},{"internalType":"uint8","name":"healthRating","type":"uint8"},{"internalType":"bool","name":"isAnomalyDetected","type":"bool"},{"internalType":"string","name":"recommendations","type":"string"},{"internalType":"bytes32","name":"recordHash","type":"bytes32"},{"internalType":"address","name":"reporter","type":"address"}],"internalType":"struct SoilDataStore.DailyInsight","name":"","type":"tuple"}],"stateMutability":"view","type":"function"},{"inputs":[{"internalType":"uint256","name":"id","type":"uint256"}],"name":"getRecord","outputs":[{"components":[{"internalType":"uint256","name":"id","type":"uint256"},{"internalType":"uint256","name":"measuredAtVN","type":"uint256"},{"internalType":"uint256","name":"soilTemperature","type":"uint256"},{"internalType":"uint256","name":"soilMoisture","type":"uint256"},{"internalType":"uint256","name":"conductivity","type":"uint256"},{"internalType":"uint256","name":"phValue","type":"uint256"},{"internalType":"uint256","name":"nitrogen","type":"uint256"},{"internalType":"uint256","name":"phosphorus","type":"uint256"},{"internalType":"uint256","name":"potassium","type":"uint256"},{"internalType":"uint256","name":"salt","type":"uint256"},{"internalType":"uint256","name":"airTemperature","type":"uint256"},{"internalType":"uint256","name":"airHumidity","type":"uint256"},{"internalType":"uint256","name":"isRaining","type":"uint256"},{"internalType":"bytes32","name":"dataHash","type":"bytes32"},{"internalType":"address","name":"reporter","type":"address"}],"internalType":"struct SoilDataStore.SoilData","name":"","type":"tuple"}],"stateMutability":"view","type":"function"},{"inputs":[{"internalType":"uint256","name":"startTime","type":"uint256"},{"internalType":"uint256","name":"endTime","type":"uint256"}],"name":"getRecordsByTimeRange","outputs":[{"components":[{"internalType":"uint256","name":"id","type":"uint256"},{"internalType":"uint256","name":"measuredAtVN","type":"uint256"},{"internalType":"uint256","name":"soilTemperature","type":"uint256"},{"internalType":"uint256","name":"soilMoisture","type":"uint256"},{"internalType":"uint256","name":"conductivity","type":"uint256"},{"internalType":"uint256","name":"phValue","type":"uint256"},{"internalType":"uint256","name":"nitrogen","type":"uint256"},{"internalType":"uint256","name":"phosphorus","type":"uint256"},{"internalType":"uint256","name":"potassium","type":"uint256"},{"internalType":"uint256","name":"salt","type":"uint256"},{"internalType":"uint256","name":"airTemperature","type":"uint256"},{"internalType":"uint256","name":"airHumidity","type":"uint256"},{"internalType":"uint256","name":"isRaining","type":"uint256"},{"internalType":"bytes32","name":"dataHash","type":"bytes32"},{"internalType":"address","name":"reporter","type":"address"}],"internalType":"struct SoilDataStore.SoilData[]","name":"","type":"tuple[]"}],"stateMutability":"view","type":"function"},{"inputs":[{"internalType":"uint256","name":"","type":"uint256"}],"name":"records","outputs":[{"internalType":"uint256","name":"id","type":"uint256"},{"internalType":"uint256","name":"measuredAtVN","type":"uint256"},{"internalType":"uint256","name":"soilTemperature","type":"uint256"},{"internalType":"uint256","name":"soilMoisture","type":"uint256"},{"internalType":"uint256","name":"conductivity","type":"uint256"},{"internalType":"uint256","name":"phValue","type":"uint256"},{"internalType":"uint256","name":"nitrogen","type":"uint256"},{"internalType":"uint256","name":"phosphorus","type":"uint256"},{"internalType":"uint256","name":"potassium","type":"uint256"},{"internalType":"uint256","name":"salt","type":"uint256"},{"internalType":"uint256","name":"airTemperature","type":"uint256"},{"internalType":"uint256","name":"airHumidity","type":"uint256"},{"internalType":"uint256","name":"isRaining","type":"uint256"},{"internalType":"bytes32","name":"dataHash","type":"bytes32"},{"internalType":"address","name":"reporter","type":"address"}],"stateMutability":"view","type":"function"},{"inputs":[{"internalType":"uint256","name":"_id","type":"uint256"},{"internalType":"uint256","name":"_dateTimestamp","type":"uint256"},{"internalType":"uint256","name":"_sampleCount","type":"uint256"},{"internalType":"string","name":"_recommendedCrop","type":"string"},{"internalType":"uint256","name":"_confidence","type":"uint256"},{"internalType":"uint256","name":"_soilHealthScore","type":"uint256"},{"internalType":"uint8","name":"_healthRating","type":"uint8"},{"internalType":"bool","name":"_isAnomalyDetected","type":"bool"},{"internalType":"string","name":"_recommendations","type":"string"},{"internalType":"bytes32","name":"_recordHash","type":"bytes32"}],"name":"storeDailyInsight","outputs":[],"stateMutability":"nonpayable","type":"function"},{"inputs":[{"internalType":"uint256","name":"_measuredAtVN","type":"uint256"},{"internalType":"uint256","name":"_soilTemperature","type":"uint256"},{"internalType":"uint256","name":"_soilMoisture","type":"uint256"},{"internalType":"uint256","name":"_conductivity","type":"uint256"},{"internalType":"uint256","name":"_phValue","type":"uint256"},{"internalType":"uint256","name":"_nitrogen","type":"uint256"},{"internalType":"uint256","name":"_phosphorus","type":"uint256"},{"internalType":"uint256","name":"_potassium","type":"uint256"},{"internalType":"uint256","name":"_salt","type":"uint256"},{"internalType":"uint256","name":"_airTemperature","type":"uint256"},{"internalType":"uint256","name":"_airHumidity","type":"uint256"},{"internalType":"uint256","name":"_isRaining","type":"uint256"}],"name":"storeData","outputs":[],"stateMutability":"nonpayable","type":"function"},{"inputs":[{"internalType":"uint256","name":"_id","type":"uint256"},{"internalType":"uint256","name":"_measuredAtVN","type":"uint256"},{"internalType":"uint256","name":"_soilTemperature","type":"uint256"},{"internalType":"uint256","name":"_soilMoisture","type":"uint256"},{"internalType":"uint256","name":"_conductivity","type":"uint256"},{"internalType":"uint256","name":"_phValue","type":"uint256"},{"internalType":"uint256","name":"_nitrogen","type":"uint256"},{"internalType":"uint256","name":"_phosphorus","type":"uint256"},{"internalType":"uint256","name":"_potassium","type":"uint256"},{"internalType":"uint256","name":"_salt","type":"uint256"},{"internalType":"uint256","name":"_airTemperature","type":"uint256"},{"internalType":"uint256","name":"_airHumidity","type":"uint256"},{"internalType":"bool","name":"_isRaining","type":"bool"},{"internalType":"bytes32","name":"_dataHash","type":"bytes32"}],"name":"storeSensorReading","outputs":[],"stateMutability":"nonpayable","type":"function"}],"evm":{"bytecode":{"linkReferences":{},"object":"6080806040523461001657611796908161001c8239f35b600080fdfe6080604052600436101561001257600080fd5b60003560e01c806303e9e609146110b55780633446106714610fd95780633f1efd2514610e4d5780636c9b5ee41461095a578063709a8753146108d757806395fdecbc1461067b578063a492520a1461064a578063a68da8441461056f578063a87d942c14610551578063c941812c14610501578063db9e45ef14610279578063dc4638d5146100ce5763eef9b778146100ab57600080fd5b346100c95760003660031901126100c9576020600154604051908152f35b600080fd5b346100c9576100dc366111eb565b600180549092600092835b83811061022557506100f8846115f5565b93610106604051958661123b565b808552610115601f19916115f5565b0160005b81811061020e57505060009160005b848110610192578587604051906020808301818452845180915260408401918060408360051b8701019601926000905b8382106101655786880387f35b90919293948380610181839a603f198b820301865289516112f4565b999701959493919091019101610158565b818761019d83611390565b5001541015806101f8575b6101bb575b6101b6906115e6565b610128565b926101f06101b6916101d56101cf87611390565b5061154e565b6101df828a61160d565b526101ea818961160d565b506115e6565b9390506101ad565b50828761020483611390565b50015411156101a8565b6020906102196114c1565b82828901015201610119565b828661023083611390565b500154101580610263575b61024e575b610249906115e6565b6100e7565b9361025b610249916115e6565b949050610240565b50818661026f83611390565b500154111561023b565b346100c9576101803660031901126100c95761016435156104fa5760015b60ff604051916102a68361121e565b60008352600435602084015260243560408401526044356060840152606435608084015260843560a084015260a43560c084015260c43560e084015260e4356101008401526101043561012084015261012435610140840152610144356101608401521661018082015260006101a0820152336101c0820152600054600160401b8110156104e45780600161033e920160005561119d565b6104ce57600e90825181556020830151600182015560408301516002820155606083015160038201556080830151600482015560a0830151600582015560c0830151600682015560e0830151600782015561010083015160088201556101208301516009820155610140830151600a820155610160830151600b820155610180830151600c8201556101a0830151600d82015501906101c060018060a01b03910151166001600160601b0360a01b825416179055600054806000198101116104b857610164351561049e576000805160206117418339815191526101c06001925b60ff604051946004358652602435602087015260443560408701526064356060870152608435608087015260a43560a087015260c43560c087015260e43560e0870152610104356101008701526101243561012087015261014435610140870152166101608501526000610180850152336101a08501526000190192a2005b6000805160206117418339815191526101c060009261041f565b634e487b7160e01b600052601160045260246000fd5b634e487b7160e01b600052600060045260246000fd5b634e487b7160e01b600052604160045260246000fd5b6000610297565b346100c95760203660031901126100c95761054d6105396101cf6004356105266114c1565b506105346001548210611515565b611390565b6040519182916020835260208301906112f4565b0390f35b346100c95760003660031901126100c9576020600054604051908152f35b346100c95760203660031901126100c9576004356001548110156100c95761059690611390565b50805460018201549160028101546106396105b36003840161141b565b60048401549060ff600586015460068701549061060d6105d560078a0161141b565b9460088a015499600960018060a01b0391015416986040519c8d9c8d5260208d015260408c01526101608060608d01528b01906112b4565b9460808a015260a089015281811660c089015260081c16151560e08701528582036101008701526112b4565b916101208401526101408301520390f35b346100c95760203660031901126100c9576004356000526002602052602060ff604060002054166040519015158152f35b346100c9576101c03660031901126100c95761018435151561018435036100c95761018435156108d05760015b60ff604051916106b78361121e565b6004358352602435602084015260443560408401526064356060840152608435608084015260a43560a084015260c43560c084015260e43560e084015261010435610100840152610124356101208401526101443561014084015261016435610160840152166101808201526101a4356101a0820152336101c0820152600054600160401b8110156104e457806001610753920160005561119d565b6104ce57600e90825181556020830151600182015560408301516002820155606083015160038201556080830151600482015560a0830151600582015560c0830151600682015560e0830151600782015561010083015160088201556101208301516009820155610140830151600a820155610160830151600b820155610180830151600c8201556101a0830151600d82015501906101c060018060a01b03910151166001600160601b0360a01b825416179055600054806000198101116104b85761018435156108b6576000805160206117418339815191526101c06001925b60ff60405194602435865260443560208701526064356040870152608435606087015260a435608087015260c43560a087015260e43560c08701526101043560e0870152610124356101008701526101443561012087015261016435610140870152166101608501526101a435610180850152336101a08501526000190192a2005b6000805160206117418339815191526101c0600092610834565b60006106a8565b346100c95760003660031901126100c9576108f06114c1565b5060015480156109155760001981019081116104b8576105396101cf61054d92611390565b60405162461bcd60e51b815260206004820152601b60248201527f4e6f206461696c7920696e73696768747320617661696c61626c6500000000006044820152606490fd5b346100c957610140806003193601126100c95760643567ffffffffffffffff81116100c95761098d90369060040161125d565b60c4359160ff83168093036100c95760e4359283151584036100c9576101043567ffffffffffffffff81116100c9576109ca90369060040161125d565b60038211610e1057602435600052600260205260ff60406000205416610db857604051916109f783611201565b600435835260208301916024358352604084019060443582526060850192878452608435608087015260a43560a087015260c086015287151560e0860152610100850152610124356101208501523385850152600154600160401b8110156104e457806001610a699201600155611390565b9390936104ce57845184555160018401555160028301555180519067ffffffffffffffff82116104e4578190610aa260038501546113e1565b601f8111610d65575b50602090601f8311600114610cf357600092610ce8575b50508160011b916000199060031b1c19161760038201555b6080820151600482015560a082015160058201556006810160ff60c08401511681549061ff0060e0860151151560081b169161ffff19161717905561010082015180519067ffffffffffffffff82116104e457610b3a60078401546113e1565b601f8111610ca1575b50602090601f8311600114610c2e57600993929160009183610c23575b50508160011b916000199060031b1c19161760078201555b6101208301516008820155019160018060a01b03910151166001600160601b0360a01b82541617905560243560005260026020526040600020600160ff198254161790556001549060001982019182116104b8577fa1396011014845048a9d54b1dfeea998c990052a143250ea773746c65c318ae490610c03604051916080835260808301906112b4565b9360a43560208301521515604082015233606082015280602435940390a3005b015190508880610b60565b906007840160005260206000209160005b601f1985168110610c89575091839160019360099695601f19811610610c70575b505050811b016007820155610b78565b015160001960f88460031b161c19169055888080610c60565b91926020600181928685015181550194019201610c3f565b600784016000526020600020601f840160051c810160208510610ce1575b601f830160051c82018110610cd5575050610b43565b60008155600101610cbf565b5080610cbf565b015190508780610ac2565b9250600384016000526020600020906000935b601f1984168510610d4a576001945083601f19811610610d31575b505050811b016003820155610ada565b015160001960f88460031b161c19169055878080610d21565b81810151835560209485019460019093019290910190610d06565b909150600384016000526020600020601f840160051c810160208510610db1575b90849392915b601f830160051c82018110610da2575050610aab565b60008155859450600101610d8c565b5080610d86565b60405162461bcd60e51b815260206004820152602a60248201527f4461696c7920696e736967687420666f722074686973206461746520616c72656044820152696164792065786973747360b01b6064820152608490fd5b60405162461bcd60e51b8152602060048201526015602482015274496e76616c6964206865616c746820726174696e6760581b6044820152606490fd5b346100c957610e5b366111eb565b90600091600091600054925b838110610f7c5750610e78846115f5565b93610e86604051958661123b565b808552610e95601f19916115f5565b0160005b818110610f6557505060009160005b848110610efb576040805160208082528851818301819052818a019383019160005b828110610ed75784840385f35b909192826101e082610eec6001948a516110fc565b01960191019492919094610eca565b610f048161119d565b50828460018093015410159182610f4d575b5050610f2b575b610f26906115e6565b610ea8565b92610f45610f26916101d5610f3f8761119d565b50611690565b939050610f1d565b909150610f598361119d565b50015411158288610f16565b602090610f70611621565b82828901015201610e99565b610f858161119d565b50838360018093015410159182610fc1575b5050610fac575b610fa7906115e6565b610e67565b93610fb9610fa7916115e6565b949050610f9e565b909150610fcd8361119d565b50015411158387610f97565b346100c95760203660031901126100c9576004356000548110156100c9576110009061119d565b508054600182015491600281015460038201546004830154600584015460068501546007860154600887015491600988015493600a89015495600b8a015497600c8b015499600d8c01549b600160a01b6001900390600e0154169c6040519e8f91825260208201526040015260608d015260808c015260a08b015260c08a015260e08901526101008801526101208701526101408601526101608501526101808401526101a08301526101c08201526101e090f35b346100c95760203660031901126100c9576101e06110ed610f3f6004356110da611621565b506110e86000548210611515565b61119d565b6110fa60405180926110fc565bf35b805182526020810151602083015260408101516040830152606081015160608301526080810151608083015260a081015160a083015260c081015160c083015260e081015160e0830152610100808201519083015261012080820151908301526101408082015190830152610160808201519083015261018080820151908301526101a080820151908301526101c0908160018060a01b0391015116910152565b9060009182548110156111d757600f90838052027f290decd9548b62a8d60345a988386fc84ba6bc95484008f6362f93160ef3e563019190565b634e487b7160e01b83526032600452602483fd5b60409060031901126100c9576004359060243590565b610160810190811067ffffffffffffffff8211176104e457604052565b6101e0810190811067ffffffffffffffff8211176104e457604052565b90601f8019910116810190811067ffffffffffffffff8211176104e457604052565b81601f820112156100c95780359067ffffffffffffffff82116104e45760405192611292601f8401601f19166020018561123b565b828452602083830101116100c957816000926020809301838601378301015290565b919082519283825260005b8481106112e0575050826000602080949584010152601f8019910116010190565b6020818301810151848301820152016112bf565b9081518152602082015160208201526040820151604082015261136a61132960608401516101608060608601528401906112b4565b6080840151608084015260a084015160a084015260ff60c08501511660c084015260e0840151151560e08401526101008085015190848303908501526112b4565b6101208084015190830152610140928301516001600160a01b0316929091019190915290565b6001548110156113cb57600a906001600052027fb10e2d527612073b26eecdfd717e6a320cf44b4afac2b0732d9fcbe2b7fa0cf60190600090565b634e487b7160e01b600052603260045260246000fd5b90600182811c92168015611411575b60208310146113fb57565b634e487b7160e01b600052602260045260246000fd5b91607f16916113f0565b906040519182600082549261142f846113e1565b90818452600194858116908160001461149e575060011461145b575b50506114599250038361123b565b565b9093915060005260209081600020936000915b8183106114865750506114599350820101388061144b565b8554888401850152948501948794509183019161146e565b91505061145994506020925060ff191682840152151560051b820101388061144b565b604051906114ce82611201565b816101406000918281528260208201528260408201526060808201528260808201528260a08201528260c08201528260e08201526060610100820152826101208201520152565b1561151c57565b60405162461bcd60e51b815260206004820152600a602482015269125b9d985b1a5908125160b21b6044820152606490fd5b9060405161155b81611201565b61014081938054835260018101546020840152600281015460408401526115846003820161141b565b606084015260048101546080840152600581015460a084015260ff600682015481811660c086015260081c16151560e08401526115c36007820161141b565b6101008401526008810154610120840152600901546001600160a01b0316910152565b60001981146104b85760010190565b67ffffffffffffffff81116104e45760051b60200190565b80518210156113cb5760209160051b010190565b6040519061162e8261121e565b816101c06000918281528260208201528260408201528260608201528260808201528260a08201528260c08201528260e08201528261010082015282610120820152826101408201528261016082015282610180820152826101a08201520152565b9060405161169d8161121e565b8254815260018301546020820152600283015460408201526003830154606082015260048301546080820152600583015460a0820152600683015460c0820152600783015460e082015260088301546101008201526009830154610120820152600a830154610140820152600b830154610160820152600c830154610180820152600d8301546101a0820152600e909201546001600160a01b03166101c083015256fe5998c32cea659aabe81fffc8d2ae04c3c650461f6a749da611a233a900499a66a26469706673582212200052bf268658c48a7e82eda9ce4ea7d5094023c095f37eb690c49324a907e7a264736f6c63430008140033","opcodes":"PUSH1 0x80 DUP1 PUSH1 0x40 MSTORE CALLVALUE PUSH2 0x16 JUMPI PUSH2 0x1796 SWAP1 DUP2 PUSH2 0x1C DUP3 CODECOPY RETURN JUMPDEST PUSH1 0x0 DUP1 REVERT INVALID PUSH1 0x80 PUSH1 0x40 MSTORE PUSH1 0x4 CALLDATASIZE LT ISZERO PUSH2 0x12 JUMPI PUSH1 0x0 DUP1 REVERT JUMPDEST PUSH1 0x0 CALLDATALOAD PUSH1 0xE0 SHR DUP1 PUSH4 0x3E9E609 EQ PUSH2 0x10B5 JUMPI DUP1 PUSH4 0x34461067 EQ PUSH2 0xFD9 JUMPI DUP1 PUSH4 0x3F1EFD25 EQ PUSH2 0xE4D JUMPI DUP1 PUSH4 0x6C9B5EE4 EQ PUSH2 0x95A JUMPI DUP1 PUSH4 0x709A8753 EQ PUSH2 0x8D7 JUMPI DUP1 PUSH4 0x95FDECBC EQ PUSH2 0x67B JUMPI DUP1 PUSH4 0xA492520A EQ PUSH2 0x64A JUMPI DUP1 PUSH4 0xA68DA844 EQ PUSH2 0x56F JUMPI DUP1 PUSH4 0xA87D942C EQ PUSH2 0x551 JUMPI DUP1 PUSH4 0xC941812C EQ PUSH2 0x501 JUMPI DUP1 PUSH4 0xDB9E45EF EQ PUSH2 0x279 JUMPI DUP1 PUSH4 0xDC4638D5 EQ PUSH2 0xCE JUMPI PUSH4 0xEEF9B778 EQ PUSH2 0xAB JUMPI PUSH1 0x0 DUP1 REVERT JUMPDEST CALLVALUE PUSH2 0xC9 JUMPI PUSH1 0x0 CALLDATASIZE PUSH1 0x3 NOT ADD SLT PUSH2 0xC9 JUMPI PUSH1 0x20 PUSH1 0x1 SLOAD PUSH1 0x40 MLOAD SWAP1 DUP2 MSTORE RETURN JUMPDEST PUSH1 0x0 DUP1 REVERT JUMPDEST CALLVALUE PUSH2 0xC9 JUMPI PUSH2 0xDC CALLDATASIZE PUSH2 0x11EB JUMP JUMPDEST PUSH1 0x1 DUP1 SLOAD SWAP1 SWAP3 PUSH1 0x0 SWAP3 DUP4 JUMPDEST DUP4 DUP2 LT PUSH2 0x225 JUMPI POP PUSH2 0xF8 DUP5 PUSH2 0x15F5 JUMP JUMPDEST SWAP4 PUSH2 0x106 PUSH1 0x40 MLOAD SWAP6 DUP7 PUSH2 0x123B JUMP JUMPDEST DUP1 DUP6 MSTORE PUSH2 0x115 PUSH1 0x1F NOT SWAP2 PUSH2 0x15F5 JUMP JUMPDEST ADD PUSH1 0x0 JUMPDEST DUP2 DUP2 LT PUSH2 0x20E JUMPI POP POP PUSH1 0x0 SWAP2 PUSH1 0x0 JUMPDEST DUP5 DUP2 LT PUSH2 0x192 JUMPI DUP6 DUP8 PUSH1 0x40 MLOAD SWAP1 PUSH1 0x20 DUP1 DUP4 ADD DUP2 DUP5 MSTORE DUP5 MLOAD DUP1 SWAP2 MSTORE PUSH1 0x40 DUP5 ADD SWAP2 DUP1 PUSH1 0x40 DUP4 PUSH1 0x5 SHL DUP8 ADD ADD SWAP7 ADD SWAP3 PUSH1 0x0 SWAP1 JUMPDEST DUP4 DUP3 LT PUSH2 0x165 JUMPI DUP7 DUP9 SUB DUP8 RETURN JUMPDEST SWAP1 SWAP2 SWAP3 SWAP4 SWAP5 DUP4 DUP1 PUSH2 0x181 DUP4 SWAP11 PUSH1 0x3F NOT DUP12 DUP3 SUB ADD DUP7 MSTORE DUP10 MLOAD PUSH2 0x12F4 JUMP JUMPDEST SWAP10 SWAP8 ADD SWAP6 SWAP5 SWAP4 SWAP2 SWAP1 SWAP2 ADD SWAP2 ADD PUSH2 0x158 JUMP JUMPDEST DUP2 DUP8 PUSH2 0x19D DUP4 PUSH2 0x1390 JUMP JUMPDEST POP ADD SLOAD LT ISZERO DUP1 PUSH2 0x1F8 JUMPI JUMPDEST PUSH2 0x1BB JUMPI JUMPDEST PUSH2 0x1B6 SWAP1 PUSH2 0x15E6 JUMP JUMPDEST PUSH2 0x128 JUMP JUMPDEST SWAP3 PUSH2 0x1F0 PUSH2 0x1B6 SWAP2 PUSH2 0x1D5 PUSH2 0x1CF DUP8 PUSH2 0x1390 JUMP JUMPDEST POP PUSH2 0x154E JUMP JUMPDEST PUSH2 0x1DF DUP3 DUP11 PUSH2 0x160D JUMP JUMPDEST MSTORE PUSH2 0x1EA DUP2 DUP10 PUSH2 0x160D JUMP JUMPDEST POP PUSH2 0x15E6 JUMP JUMPDEST SWAP4 SWAP1 POP PUSH2 0x1AD JUMP JUMPDEST POP DUP3 DUP8 PUSH2 0x204 DUP4 PUSH2 0x1390 JUMP JUMPDEST POP ADD SLOAD GT ISZERO PUSH2 0x1A8 JUMP JUMPDEST PUSH1 0x20 SWAP1 PUSH2 0x219 PUSH2 0x14C1 JUMP JUMPDEST DUP3 DUP3 DUP10 ADD ADD MSTORE ADD PUSH2 0x119 JUMP JUMPDEST DUP3 DUP7 PUSH2 0x230 DUP4 PUSH2 0x1390 JUMP JUMPDEST POP ADD SLOAD LT ISZERO DUP1 PUSH2 0x263 JUMPI JUMPDEST PUSH2 0x24E JUMPI JUMPDEST PUSH2 0x249 SWAP1 PUSH2 0x15E6 JUMP JUMPDEST PUSH2 0xE7 JUMP JUMPDEST SWAP4 PUSH2 0x25B PUSH2 0x249 SWAP2 PUSH2 0x15E6 JUMP JUMPDEST SWAP5 SWAP1 POP PUSH2 0x240 JUMP JUMPDEST POP DUP2 DUP7 PUSH2 0x26F DUP4 PUSH2 0x1390 JUMP JUMPDEST POP ADD SLOAD GT ISZERO PUSH2 0x23B JUMP JUMPDEST CALLVALUE PUSH2 0xC9 JUMPI PUSH2 0x180 CALLDATASIZE PUSH1 0x3 NOT ADD SLT PUSH2 0xC9 JUMPI PUSH2 0x164 CALLDATALOAD ISZERO PUSH2 0x4FA JUMPI PUSH1 0x1 JUMPDEST PUSH1 0xFF PUSH1 0x40 MLOAD SWAP2 PUSH2 0x2A6 DUP4 PUSH2 0x121E JUMP JUMPDEST PUSH1 0x0 DUP4 MSTORE PUSH1 0x4 CALLDATALOAD PUSH1 0x20 DUP5 ADD MSTORE PUSH1 0x24 CALLDATALOAD PUSH1 0x40 DUP5 ADD MSTORE PUSH1 0x44 CALLDATALOAD PUSH1 0x60 DUP5 ADD MSTORE PUSH1 0x64 CALLDATALOAD PUSH1 0x80 DUP5 ADD MSTORE PUSH1 0x84 CALLDATALOAD PUSH1 0xA0 DUP5 ADD MSTORE PUSH1 0xA4 CALLDATALOAD PUSH1 0xC0 DUP5 ADD MSTORE PUSH1 0xC4 CALLDATALOAD PUSH1 0xE0 DUP5 ADD MSTORE PUSH1 0xE4 CALLDATALOAD PUSH2 0x100 DUP5 ADD MSTORE PUSH2 0x104 CALLDATALOAD PUSH2 0x120 DUP5 ADD MSTORE PUSH2 0x124 CALLDATALOAD PUSH2 0x140 DUP5 ADD MSTORE PUSH2 0x144 CALLDATALOAD PUSH2 0x160 DUP5 ADD MSTORE AND PUSH2 0x180 DUP3 ADD MSTORE PUSH1 0x0 PUSH2 0x1A0 DUP3 ADD MSTORE CALLER PUSH2 0x1C0 DUP3 ADD MSTORE PUSH1 0x0 SLOAD PUSH1 0x1 PUSH1 0x40 SHL DUP2 LT ISZERO PUSH2 0x4E4 JUMPI DUP1 PUSH1 0x1 PUSH2 0x33E SWAP3 ADD PUSH1 0x0 SSTORE PUSH2 0x119D JUMP JUMPDEST PUSH2 0x4CE JUMPI PUSH1 0xE SWAP1 DUP3 MLOAD DUP2 SSTORE PUSH1 0x20 DUP4 ADD MLOAD PUSH1 0x1 DUP3 ADD SSTORE PUSH1 0x40 DUP4 ADD MLOAD PUSH1 0x2 DUP3 ADD SSTORE PUSH1 0x60 DUP4 ADD MLOAD PUSH1 0x3 DUP3 ADD SSTORE PUSH1 0x80 DUP4 ADD MLOAD PUSH1 0x4 DUP3 ADD SSTORE PUSH1 0xA0 DUP4 ADD MLOAD PUSH1 0x5 DUP3 ADD SSTORE PUSH1 0xC0 DUP4 ADD MLOAD PUSH1 0x6 DUP3 ADD SSTORE PUSH1 0xE0 DUP4 ADD MLOAD PUSH1 0x7 DUP3 ADD SSTORE PUSH2 0x100 DUP4 ADD MLOAD PUSH1 0x8 DUP3 ADD SSTORE PUSH2 0x120 DUP4 ADD MLOAD PUSH1 0x9 DUP3 ADD SSTORE PUSH2 0x140 DUP4 ADD MLOAD PUSH1 0xA DUP3 ADD SSTORE PUSH2 0x160 DUP4 ADD MLOAD PUSH1 0xB DUP3 ADD SSTORE PUSH2 0x180 DUP4 ADD MLOAD PUSH1 0xC DUP3 ADD SSTORE PUSH2 0x1A0 DUP4 ADD MLOAD PUSH1 0xD DUP3 ADD SSTORE ADD SWAP1 PUSH2 0x1C0 PUSH1 0x1 DUP1 PUSH1 0xA0 SHL SUB SWAP2 ADD MLOAD AND PUSH1 0x1 PUSH1 0x1 PUSH1 0x60 SHL SUB PUSH1 0xA0 SHL DUP3 SLOAD AND OR SWAP1 SSTORE PUSH1 0x0 SLOAD DUP1 PUSH1 0x0 NOT DUP2 ADD GT PUSH2 0x4B8 JUMPI PUSH2 0x164 CALLDATALOAD ISZERO PUSH2 0x49E JUMPI PUSH1 0x0 DUP1 MLOAD PUSH1 0x20 PUSH2 0x1741 DUP4 CODECOPY DUP2 MLOAD SWAP2 MSTORE PUSH2 0x1C0 PUSH1 0x1 SWAP3 JUMPDEST PUSH1 0xFF PUSH1 0x40 MLOAD SWAP5 PUSH1 0x4 CALLDATALOAD DUP7 MSTORE PUSH1 0x24 CALLDATALOAD PUSH1 0x20 DUP8 ADD MSTORE PUSH1 0x44 CALLDATALOAD PUSH1 0x40 DUP8 ADD MSTORE PUSH1 0x64 CALLDATALOAD PUSH1 0x60 DUP8 ADD MSTORE PUSH1 0x84 CALLDATALOAD PUSH1 0x80 DUP8 ADD MSTORE PUSH1 0xA4 CALLDATALOAD PUSH1 0xA0 DUP8 ADD MSTORE PUSH1 0xC4 CALLDATALOAD PUSH1 0xC0 DUP8 ADD MSTORE PUSH1 0xE4 CALLDATALOAD PUSH1 0xE0 DUP8 ADD MSTORE PUSH2 0x104 CALLDATALOAD PUSH2 0x100 DUP8 ADD MSTORE PUSH2 0x124 CALLDATALOAD PUSH2 0x120 DUP8 ADD MSTORE PUSH2 0x144 CALLDATALOAD PUSH2 0x140 DUP8 ADD MSTORE AND PUSH2 0x160 DUP6 ADD MSTORE PUSH1 0x0 PUSH2 0x180 DUP6 ADD MSTORE CALLER PUSH2 0x1A0 DUP6 ADD MSTORE PUSH1 0x0 NOT ADD SWAP3 LOG2 STOP JUMPDEST PUSH1 0x0 DUP1 MLOAD PUSH1 0x20 PUSH2 0x1741 DUP4 CODECOPY DUP2 MLOAD SWAP2 MSTORE PUSH2 0x1C0 PUSH1 0x0 SWAP3 PUSH2 0x41F JUMP JUMPDEST PUSH4 0x4E487B71 PUSH1 0xE0 SHL PUSH1 0x0 MSTORE PUSH1 0x11 PUSH1 0x4 MSTORE PUSH1 0x24 PUSH1 0x0 REVERT JUMPDEST PUSH4 0x4E487B71 PUSH1 0xE0 SHL PUSH1 0x0 MSTORE PUSH1 0x0 PUSH1 0x4 MSTORE PUSH1 0x24 PUSH1 0x0 REVERT JUMPDEST PUSH4 0x4E487B71 PUSH1 0xE0 SHL PUSH1 0x0 MSTORE PUSH1 0x41 PUSH1 0x4 MSTORE PUSH1 0x24 PUSH1 0x0 REVERT JUMPDEST PUSH1 0x0 PUSH2 0x297 JUMP JUMPDEST CALLVALUE PUSH2 0xC9 JUMPI PUSH1 0x20 CALLDATASIZE PUSH1 0x3 NOT ADD SLT PUSH2 0xC9 JUMPI PUSH2 0x54D PUSH2 0x539 PUSH2 0x1CF PUSH1 0x4 CALLDATALOAD PUSH2 0x526 PUSH2 0x14C1 JUMP JUMPDEST POP PUSH2 0x534 PUSH1 0x1 SLOAD DUP3 LT PUSH2 0x1515 JUMP JUMPDEST PUSH2 0x1390 JUMP JUMPDEST PUSH1 0x40 MLOAD SWAP2 DUP3 SWAP2 PUSH1 0x20 DUP4 MSTORE PUSH1 0x20 DUP4 ADD SWAP1 PUSH2 0x12F4 JUMP JUMPDEST SUB SWAP1 RETURN JUMPDEST CALLVALUE PUSH2 0xC9 JUMPI PUSH1 0x0 CALLDATASIZE PUSH1 0x3 NOT ADD SLT PUSH2 0xC9 JUMPI PUSH1 0x20 PUSH1 0x0 SLOAD PUSH1 0x40 MLOAD SWAP1 DUP2 MSTORE RETURN JUMPDEST CALLVALUE PUSH2 0xC9 JUMPI PUSH1 0x20 CALLDATASIZE PUSH1 0x3 NOT ADD SLT PUSH2 0xC9 JUMPI PUSH1 0x4 CALLDATALOAD PUSH1 0x1 SLOAD DUP2 LT ISZERO PUSH2 0xC9 JUMPI PUSH2 0x596 SWAP1 PUSH2 0x1390 JUMP JUMPDEST POP DUP1 SLOAD PUSH1 0x1 DUP3 ADD SLOAD SWAP2 PUSH1 0x2 DUP2 ADD SLOAD PUSH2 0x639 PUSH2 0x5B3 PUSH1 0x3 DUP5 ADD PUSH2 0x141B JUMP JUMPDEST PUSH1 0x4 DUP5 ADD SLOAD SWAP1 PUSH1 0xFF PUSH1 0x5 DUP7 ADD SLOAD PUSH1 0x6 DUP8 ADD SLOAD SWAP1 PUSH2 0x60D PUSH2 0x5D5 PUSH1 0x7 DUP11 ADD PUSH2 0x141B JUMP JUMPDEST SWAP5 PUSH1 0x8 DUP11 ADD SLOAD SWAP10 PUSH1 0x9 PUSH1 0x1 DUP1 PUSH1 0xA0 SHL SUB SWAP2 ADD SLOAD AND SWAP9 PUSH1 0x40 MLOAD SWAP13 DUP14 SWAP13 DUP14 MSTORE PUSH1 0x20 DUP14 ADD MSTORE PUSH1 0x40 DUP13 ADD MSTORE PUSH2 0x160 DUP1 PUSH1 0x60 DUP14 ADD MSTORE DUP12 ADD SWAP1 PUSH2 0x12B4 JUMP JUMPDEST SWAP5 PUSH1 0x80 DUP11 ADD MSTORE PUSH1 0xA0 DUP10 ADD MSTORE DUP2 DUP2 AND PUSH1 0xC0 DUP10 ADD MSTORE PUSH1 0x8 SHR AND ISZERO ISZERO PUSH1 0xE0 DUP8 ADD MSTORE DUP6 DUP3 SUB PUSH2 0x100 DUP8 ADD MSTORE PUSH2 0x12B4 JUMP JUMPDEST SWAP2 PUSH2 0x120 DUP5 ADD MSTORE PUSH2 0x140 DUP4 ADD MSTORE SUB SWAP1 RETURN JUMPDEST CALLVALUE PUSH2 0xC9 JUMPI PUSH1 0x20 CALLDATASIZE PUSH1 0x3 NOT ADD SLT PUSH2 0xC9 JUMPI PUSH1 0x4 CALLDATALOAD PUSH1 0x0 MSTORE PUSH1 0x2 PUSH1 0x20 MSTORE PUSH1 0x20 PUSH1 0xFF PUSH1 0x40 PUSH1 0x0 KECCAK256 SLOAD AND PUSH1 0x40 MLOAD SWAP1 ISZERO ISZERO DUP2 MSTORE RETURN JUMPDEST CALLVALUE PUSH2 0xC9 JUMPI PUSH2 0x1C0 CALLDATASIZE PUSH1 0x3 NOT ADD SLT PUSH2 0xC9 JUMPI PUSH2 0x184 CALLDATALOAD ISZERO ISZERO PUSH2 0x184 CALLDATALOAD SUB PUSH2 0xC9 JUMPI PUSH2 0x184 CALLDATALOAD ISZERO PUSH2 0x8D0 JUMPI PUSH1 0x1 JUMPDEST PUSH1 0xFF PUSH1 0x40 MLOAD SWAP2 PUSH2 0x6B7 DUP4 PUSH2 0x121E JUMP JUMPDEST PUSH1 0x4 CALLDATALOAD DUP4 MSTORE PUSH1 0x24 CALLDATALOAD PUSH1 0x20 DUP5 ADD MSTORE PUSH1 0x44 CALLDATALOAD PUSH1 0x40 DUP5 ADD MSTORE PUSH1 0x64 CALLDATALOAD PUSH1 0x60 DUP5 ADD MSTORE PUSH1 0x84 CALLDATALOAD PUSH1 0x80 DUP5 ADD MSTORE PUSH1 0xA4 CALLDATALOAD PUSH1 0xA0 DUP5 ADD MSTORE PUSH1 0xC4 CALLDATALOAD PUSH1 0xC0 DUP5 ADD MSTORE PUSH1 0xE4 CALLDATALOAD PUSH1 0xE0 DUP5 ADD MSTORE PUSH2 0x104 CALLDATALOAD PUSH2 0x100 DUP5 ADD MSTORE PUSH2 0x124 CALLDATALOAD PUSH2 0x120 DUP5 ADD MSTORE PUSH2 0x144 CALLDATALOAD PUSH2 0x140 DUP5 ADD MSTORE PUSH2 0x164 CALLDATALOAD PUSH2 0x160 DUP5 ADD MSTORE AND PUSH2 0x180 DUP3 ADD MSTORE PUSH2 0x1A4 CALLDATALOAD PUSH2 0x1A0 DUP3 ADD MSTORE CALLER PUSH2 0x1C0 DUP3 ADD MSTORE PUSH1 0x0 SLOAD PUSH1 0x1 PUSH1 0x40 SHL DUP2 LT ISZERO PUSH2 0x4E4 JUMPI DUP1 PUSH1 0x1 PUSH2 0x753 SWAP3 ADD PUSH1 0x0 SSTORE PUSH2 0x119D JUMP JUMPDEST PUSH2 0x4CE JUMPI PUSH1 0xE SWAP1 DUP3 MLOAD DUP2 SSTORE PUSH1 0x20 DUP4 ADD MLOAD PUSH1 0x1 DUP3 ADD SSTORE PUSH1 0x40 DUP4 ADD MLOAD PUSH1 0x2 DUP3 ADD SSTORE PUSH1 0x60 DUP4 ADD MLOAD PUSH1 0x3 DUP3 ADD SSTORE PUSH1 0x80 DUP4 ADD MLOAD PUSH1 0x4 DUP3 ADD SSTORE PUSH1 0xA0 DUP4 ADD MLOAD PUSH1 0x5 DUP3 ADD SSTORE PUSH1 0xC0 DUP4 ADD MLOAD PUSH1 0x6 DUP3 ADD SSTORE PUSH1 0xE0 DUP4 ADD MLOAD PUSH1 0x7 DUP3 ADD SSTORE PUSH2 0x100 DUP4 ADD MLOAD PUSH1 0x8 DUP3 ADD SSTORE PUSH2 0x120 DUP4 ADD MLOAD PUSH1 0x9 DUP3 ADD SSTORE PUSH2 0x140 DUP4 ADD MLOAD PUSH1 0xA DUP3 ADD SSTORE PUSH2 0x160 DUP4 ADD MLOAD PUSH1 0xB DUP3 ADD SSTORE PUSH2 0x180 DUP4 ADD MLOAD PUSH1 0xC DUP3 ADD SSTORE PUSH2 0x1A0 DUP4 ADD MLOAD PUSH1 0xD DUP3 ADD SSTORE ADD SWAP1 PUSH2 0x1C0 PUSH1 0x1 DUP1 PUSH1 0xA0 SHL SUB SWAP2 ADD MLOAD AND PUSH1 0x1 PUSH1 0x1 PUSH1 0x60 SHL SUB PUSH1 0xA0 SHL DUP3 SLOAD AND OR SWAP1 SSTORE PUSH1 0x0 SLOAD DUP1 PUSH1 0x0 NOT DUP2 ADD GT PUSH2 0x4B8 JUMPI PUSH2 0x184 CALLDATALOAD ISZERO PUSH2 0x8B6 JUMPI PUSH1 0x0 DUP1 MLOAD PUSH1 0x20 PUSH2 0x1741 DUP4 CODECOPY DUP2 MLOAD SWAP2 MSTORE PUSH2 0x1C0 PUSH1 0x1 SWAP3 JUMPDEST PUSH1 0xFF PUSH1 0x40 MLOAD SWAP5 PUSH1 0x24 CALLDATALOAD DUP7 MSTORE PUSH1 0x44 CALLDATALOAD PUSH1 0x20 DUP8 ADD MSTORE PUSH1 0x64 CALLDATALOAD PUSH1 0x40 DUP8 ADD MSTORE PUSH1 0x84 CALLDATALOAD PUSH1 0x60 DUP8 ADD MSTORE PUSH1 0xA4 CALLDATALOAD PUSH1 0x80 DUP8 ADD MSTORE PUSH1 0xC4 CALLDATALOAD PUSH1 0xA0 DUP8 ADD MSTORE PUSH1 0xE4 CALLDATALOAD PUSH1 0xC0 DUP8 ADD MSTORE PUSH2 0x104 CALLDATALOAD PUSH1 0xE0 DUP8 ADD MSTORE PUSH2 0x124 CALLDATALOAD PUSH2 0x100 DUP8 ADD MSTORE PUSH2 0x144 CALLDATALOAD PUSH2 0x120 DUP8 ADD MSTORE PUSH2 0x164 CALLDATALOAD PUSH2 0x140 DUP8 ADD MSTORE AND PUSH2 0x160 DUP6 ADD MSTORE PUSH2 0x1A4 CALLDATALOAD PUSH2 0x180 DUP6 ADD MSTORE CALLER PUSH2 0x1A0 DUP6 ADD MSTORE PUSH1 0x0 NOT ADD SWAP3 LOG2 STOP JUMPDEST PUSH1 0x0 DUP1 MLOAD PUSH1 0x20 PUSH2 0x1741 DUP4 CODECOPY DUP2 MLOAD SWAP2 MSTORE PUSH2 0x1C0 PUSH1 0x0 SWAP3 PUSH2 0x834 JUMP JUMPDEST PUSH1 0x0 PUSH2 0x6A8 JUMP JUMPDEST CALLVALUE PUSH2 0xC9 JUMPI PUSH1 0x0 CALLDATASIZE PUSH1 0x3 NOT ADD SLT PUSH2 0xC9 JUMPI PUSH2 0x8F0 PUSH2 0x14C1 JUMP JUMPDEST POP PUSH1 0x1 SLOAD DUP1 ISZERO PUSH2 0x915 JUMPI PUSH1 0x0 NOT DUP2 ADD SWAP1 DUP2 GT PUSH2 0x4B8 JUMPI PUSH2 0x539 PUSH2 0x1CF PUSH2 0x54D SWAP3 PUSH2 0x1390 JUMP JUMPDEST PUSH1 0x40 MLOAD PUSH3 0x461BCD PUSH1 0xE5 SHL DUP2 MSTORE PUSH1 0x20 PUSH1 0x4 DUP3 ADD MSTORE PUSH1 0x1B PUSH1 0x24 DUP3 ADD MSTORE PUSH32 0x4E6F206461696C7920696E73696768747320617661696C61626C650000000000 PUSH1 0x44 DUP3 ADD MSTORE PUSH1 0x64 SWAP1 REVERT JUMPDEST CALLVALUE PUSH2 0xC9 JUMPI PUSH2 0x140 DUP1 PUSH1 0x3 NOT CALLDATASIZE ADD SLT PUSH2 0xC9 JUMPI PUSH1 0x64 CALLDATALOAD PUSH8 0xFFFFFFFFFFFFFFFF DUP2 GT PUSH2 0xC9 JUMPI PUSH2 0x98D SWAP1 CALLDATASIZE SWAP1 PUSH1 0x4 ADD PUSH2 0x125D JUMP JUMPDEST PUSH1 0xC4 CALLDATALOAD SWAP2 PUSH1 0xFF DUP4 AND DUP1 SWAP4 SUB PUSH2 0xC9 JUMPI PUSH1 0xE4 CALLDATALOAD SWAP3 DUP4 ISZERO ISZERO DUP5 SUB PUSH2 0xC9 JUMPI PUSH2 0x104 CALLDATALOAD PUSH8 0xFFFFFFFFFFFFFFFF DUP2 GT PUSH2 0xC9 JUMPI PUSH2 0x9CA SWAP1 CALLDATASIZE SWAP1 PUSH1 0x4 ADD PUSH2 0x125D JUMP JUMPDEST PUSH1 0x3 DUP3 GT PUSH2 0xE10 JUMPI PUSH1 0x24 CALLDATALOAD PUSH1 0x0 MSTORE PUSH1 0x2 PUSH1 0x20 MSTORE PUSH1 0xFF PUSH1 0x40 PUSH1 0x0 KECCAK256 SLOAD AND PUSH2 0xDB8 JUMPI PUSH1 0x40 MLOAD SWAP2 PUSH2 0x9F7 DUP4 PUSH2 0x1201 JUMP JUMPDEST PUSH1 0x4 CALLDATALOAD DUP4 MSTORE PUSH1 0x20 DUP4 ADD SWAP2 PUSH1 0x24 CALLDATALOAD DUP4 MSTORE PUSH1 0x40 DUP5 ADD SWAP1 PUSH1 0x44 CALLDATALOAD DUP3 MSTORE PUSH1 0x60 DUP6 ADD SWAP3 DUP8 DUP5 MSTORE PUSH1 0x84 CALLDATALOAD PUSH1 0x80 DUP8 ADD MSTORE PUSH1 0xA4 CALLDATALOAD PUSH1 0xA0 DUP8 ADD MSTORE PUSH1 0xC0 DUP7 ADD MSTORE DUP8 ISZERO ISZERO PUSH1 0xE0 DUP7 ADD MSTORE PUSH2 0x100 DUP6 ADD MSTORE PUSH2 0x124 CALLDATALOAD PUSH2 0x120 DUP6 ADD MSTORE CALLER DUP6 DUP6 ADD MSTORE PUSH1 0x1 SLOAD PUSH1 0x1 PUSH1 0x40 SHL DUP2 LT ISZERO PUSH2 0x4E4 JUMPI DUP1 PUSH1 0x1 PUSH2 0xA69 SWAP3 ADD PUSH1 0x1 SSTORE PUSH2 0x1390 JUMP JUMPDEST SWAP4 SWAP1 SWAP4 PUSH2 0x4CE JUMPI DUP5 MLOAD DUP5 SSTORE MLOAD PUSH1 0x1 DUP5 ADD SSTORE MLOAD PUSH1 0x2 DUP4 ADD SSTORE MLOAD DUP1 MLOAD SWAP1 PUSH8 0xFFFFFFFFFFFFFFFF DUP3 GT PUSH2 0x4E4 JUMPI DUP2 SWAP1 PUSH2 0xAA2 PUSH1 0x3 DUP6 ADD SLOAD PUSH2 0x13E1 JUMP JUMPDEST PUSH1 0x1F DUP2 GT PUSH2 0xD65 JUMPI JUMPDEST POP PUSH1 0x20 SWAP1 PUSH1 0x1F DUP4 GT PUSH1 0x1 EQ PUSH2 0xCF3 JUMPI PUSH1 0x0 SWAP3 PUSH2 0xCE8 JUMPI JUMPDEST POP POP DUP2 PUSH1 0x1 SHL SWAP2 PUSH1 0x0 NOT SWAP1 PUSH1 0x3 SHL SHR NOT AND OR PUSH1 0x3 DUP3 ADD SSTORE JUMPDEST PUSH1 0x80 DUP3 ADD MLOAD PUSH1 0x4 DUP3 ADD SSTORE PUSH1 0xA0 DUP3 ADD MLOAD PUSH1 0x5 DUP3 ADD SSTORE PUSH1 0x6 DUP2 ADD PUSH1 0xFF PUSH1 0xC0 DUP5 ADD MLOAD AND DUP2 SLOAD SWAP1 PUSH2 0xFF00 PUSH1 0xE0 DUP7 ADD MLOAD ISZERO ISZERO PUSH1 0x8 SHL AND SWAP2 PUSH2 0xFFFF NOT AND OR OR SWAP1 SSTORE PUSH2 0x100 DUP3 ADD MLOAD DUP1 MLOAD SWAP1 PUSH8 0xFFFFFFFFFFFFFFFF DUP3 GT PUSH2 0x4E4 JUMPI PUSH2 0xB3A PUSH1 0x7 DUP5 ADD SLOAD PUSH2 0x13E1 JUMP JUMPDEST PUSH1 0x1F DUP2 GT PUSH2 0xCA1 JUMPI JUMPDEST POP PUSH1 0x20 SWAP1 PUSH1 0x1F DUP4 GT PUSH1 0x1 EQ PUSH2 0xC2E JUMPI PUSH1 0x9 SWAP4 SWAP3 SWAP2 PUSH1 0x0 SWAP2 DUP4 PUSH2 0xC23 JUMPI JUMPDEST POP POP DUP2 PUSH1 0x1 SHL SWAP2 PUSH1 0x0 NOT SWAP1 PUSH1 0x3 SHL SHR NOT AND OR PUSH1 0x7 DUP3 ADD SSTORE JUMPDEST PUSH2 0x120 DUP4 ADD MLOAD PUSH1 0x8 DUP3 ADD SSTORE ADD SWAP2 PUSH1 0x1 DUP1 PUSH1 0xA0 SHL SUB SWAP2 ADD MLOAD AND PUSH1 0x1 PUSH1 0x1 PUSH1 0x60 SHL SUB PUSH1 0xA0 SHL DUP3 SLOAD AND OR SWAP1 SSTORE PUSH1 0x24 CALLDATALOAD PUSH1 0x0 MSTORE PUSH1 0x2 PUSH1 0x20 MSTORE PUSH1 0x40 PUSH1 0x0 KECCAK256 PUSH1 0x1 PUSH1 0xFF NOT DUP3 SLOAD AND OR SWAP1 SSTORE PUSH1 0x1 SLOAD SWAP1 PUSH1 0x0 NOT DUP3 ADD SWAP2 DUP3 GT PUSH2 0x4B8 JUMPI PUSH32 0xA1396011014845048A9D54B1DFEEA998C990052A143250EA773746C65C318AE4 SWAP1 PUSH2 0xC03 PUSH1 0x40 MLOAD SWAP2 PUSH1 0x80 DUP4 MSTORE PUSH1 0x80 DUP4 ADD SWAP1 PUSH2 0x12B4 JUMP JUMPDEST SWAP4 PUSH1 0xA4 CALLDATALOAD PUSH1 0x20 DUP4 ADD MSTORE ISZERO ISZERO PUSH1 0x40 DUP3 ADD MSTORE CALLER PUSH1 0x60 DUP3 ADD MSTORE DUP1 PUSH1 0x24 CALLDATALOAD SWAP5 SUB SWAP1 LOG3 STOP JUMPDEST ADD MLOAD SWAP1 POP DUP9 DUP1 PUSH2 0xB60 JUMP JUMPDEST SWAP1 PUSH1 0x7 DUP5 ADD PUSH1 0x0 MSTORE PUSH1 0x20 PUSH1 0x0 KECCAK256 SWAP2 PUSH1 0x0 JUMPDEST PUSH1 0x1F NOT DUP6 AND DUP2 LT PUSH2 0xC89 JUMPI POP SWAP2 DUP4 SWAP2 PUSH1 0x1 SWAP4 PUSH1 0x9 SWAP7 SWAP6 PUSH1 0x1F NOT DUP2 AND LT PUSH2 0xC70 JUMPI JUMPDEST POP POP POP DUP2 SHL ADD PUSH1 0x7 DUP3 ADD SSTORE PUSH2 0xB78 JUMP JUMPDEST ADD MLOAD PUSH1 0x0 NOT PUSH1 0xF8 DUP5 PUSH1 0x3 SHL AND SHR NOT AND SWAP1 SSTORE DUP9 DUP1 DUP1 PUSH2 0xC60 JUMP JUMPDEST SWAP2 SWAP3 PUSH1 0x20 PUSH1 0x1 DUP2 SWAP3 DUP7 DUP6 ADD MLOAD DUP2 SSTORE ADD SWAP5 ADD SWAP3 ADD PUSH2 0xC3F JUMP JUMPDEST PUSH1 0x7 DUP5 ADD PUSH1 0x0 MSTORE PUSH1 0x20 PUSH1 0x0 KECCAK256 PUSH1 0x1F DUP5 ADD PUSH1 0x5 SHR DUP2 ADD PUSH1 0x20 DUP6 LT PUSH2 0xCE1 JUMPI JUMPDEST PUSH1 0x1F DUP4 ADD PUSH1 0x5 SHR DUP3 ADD DUP2 LT PUSH2 0xCD5 JUMPI POP POP PUSH2 0xB43 JUMP JUMPDEST PUSH1 0x0 DUP2 SSTORE PUSH1 0x1 ADD PUSH2 0xCBF JUMP JUMPDEST POP DUP1 PUSH2 0xCBF JUMP JUMPDEST ADD MLOAD SWAP1 POP DUP8 DUP1 PUSH2 0xAC2 JUMP JUMPDEST SWAP3 POP PUSH1 0x3 DUP5 ADD PUSH1 0x0 MSTORE PUSH1 0x20 PUSH1 0x0 KECCAK256 SWAP1 PUSH1 0x0 SWAP4 JUMPDEST PUSH1 0x1F NOT DUP5 AND DUP6 LT PUSH2 0xD4A JUMPI PUSH1 0x1 SWAP5 POP DUP4 PUSH1 0x1F NOT DUP2 AND LT PUSH2 0xD31 JUMPI JUMPDEST POP POP POP DUP2 SHL ADD PUSH1 0x3 DUP3 ADD SSTORE PUSH2 0xADA JUMP JUMPDEST ADD MLOAD PUSH1 0x0 NOT PUSH1 0xF8 DUP5 PUSH1 0x3 SHL AND SHR NOT AND SWAP1 SSTORE DUP8 DUP1 DUP1 PUSH2 0xD21 JUMP JUMPDEST DUP2 DUP2 ADD MLOAD DUP4 SSTORE PUSH1 0x20 SWAP5 DUP6 ADD SWAP5 PUSH1 0x1 SWAP1 SWAP4 ADD SWAP3 SWAP1 SWAP2 ADD SWAP1 PUSH2 0xD06 JUMP JUMPDEST SWAP1 SWAP2 POP PUSH1 0x3 DUP5 ADD PUSH1 0x0 MSTORE PUSH1 0x20 PUSH1 0x0 KECCAK256 PUSH1 0x1F DUP5 ADD PUSH1 0x5 SHR DUP2 ADD PUSH1 0x20 DUP6 LT PUSH2 0xDB1 JUMPI JUMPDEST SWAP1 DUP5 SWAP4 SWAP3 SWAP2 JUMPDEST PUSH1 0x1F DUP4 ADD PUSH1 0x5 SHR DUP3 ADD DUP2 LT PUSH2 0xDA2 JUMPI POP POP PUSH2 0xAAB JUMP JUMPDEST PUSH1 0x0 DUP2 SSTORE DUP6 SWAP5 POP PUSH1 0x1 ADD PUSH2 0xD8C JUMP JUMPDEST POP DUP1 PUSH2 0xD86 JUMP JUMPDEST PUSH1 0x40 MLOAD PUSH3 0x461BCD PUSH1 0xE5 SHL DUP2 MSTORE PUSH1 0x20 PUSH1 0x4 DUP3 ADD MSTORE PUSH1 0x2A PUSH1 0x24 DUP3 ADD MSTORE PUSH32 0x4461696C7920696E736967687420666F722074686973206461746520616C7265 PUSH1 0x44 DUP3 ADD MSTORE PUSH10 0x61647920657869737473 PUSH1 0xB0 SHL PUSH1 0x64 DUP3 ADD MSTORE PUSH1 0x84 SWAP1 REVERT JUMPDEST PUSH1 0x40 MLOAD PUSH3 0x461BCD PUSH1 0xE5 SHL DUP2 MSTORE PUSH1 0x20 PUSH1 0x4 DUP3 ADD MSTORE PUSH1 0x15 PUSH1 0x24 DUP3 ADD MSTORE PUSH21 0x496E76616C6964206865616C746820726174696E67 PUSH1 0x58 SHL PUSH1 0x44 DUP3 ADD MSTORE PUSH1 0x64 SWAP1 REVERT JUMPDEST CALLVALUE PUSH2 0xC9 JUMPI PUSH2 0xE5B CALLDATASIZE PUSH2 0x11EB JUMP JUMPDEST SWAP1 PUSH1 0x0 SWAP2 PUSH1 0x0 SWAP2 PUSH1 0x0 SLOAD SWAP3 JUMPDEST DUP4 DUP2 LT PUSH2 0xF7C JUMPI POP PUSH2 0xE78 DUP5 PUSH2 0x15F5 JUMP JUMPDEST SWAP4 PUSH2 0xE86 PUSH1 0x40 MLOAD SWAP6 DUP7 PUSH2 0x123B JUMP JUMPDEST DUP1 DUP6 MSTORE PUSH2 0xE95 PUSH1 0x1F NOT SWAP2 PUSH2 0x15F5 JUMP JUMPDEST ADD PUSH1 0x0 JUMPDEST DUP2 DUP2 LT PUSH2 0xF65 JUMPI POP POP PUSH1 0x0 SWAP2 PUSH1 0x0 JUMPDEST DUP5 DUP2 LT PUSH2 0xEFB JUMPI PUSH1 0x40 DUP1 MLOAD PUSH1 0x20 DUP1 DUP3 MSTORE DUP9 MLOAD DUP2 DUP4 ADD DUP2 SWAP1 MSTORE DUP2 DUP11 ADD SWAP4 DUP4 ADD SWAP2 PUSH1 0x0 JUMPDEST DUP3 DUP2 LT PUSH2 0xED7 JUMPI DUP5 DUP5 SUB DUP6 RETURN JUMPDEST SWAP1 SWAP2 SWAP3 DUP3 PUSH2 0x1E0 DUP3 PUSH2 0xEEC PUSH1 0x1 SWAP5 DUP11 MLOAD PUSH2 0x10FC JUMP JUMPDEST ADD SWAP7 ADD SWAP2 ADD SWAP5 SWAP3 SWAP2 SWAP1 SWAP5 PUSH2 0xECA JUMP JUMPDEST PUSH2 0xF04 DUP2 PUSH2 0x119D JUMP JUMPDEST POP DUP3 DUP5 PUSH1 0x1 DUP1 SWAP4 ADD SLOAD LT ISZERO SWAP2 DUP3 PUSH2 0xF4D JUMPI JUMPDEST POP POP PUSH2 0xF2B JUMPI JUMPDEST PUSH2 0xF26 SWAP1 PUSH2 0x15E6 JUMP JUMPDEST PUSH2 0xEA8 JUMP JUMPDEST SWAP3 PUSH2 0xF45 PUSH2 0xF26 SWAP2 PUSH2 0x1D5 PUSH2 0xF3F DUP8 PUSH2 0x119D JUMP JUMPDEST POP PUSH2 0x1690 JUMP JUMPDEST SWAP4 SWAP1 POP PUSH2 0xF1D JUMP JUMPDEST SWAP1 SWAP2 POP PUSH2 0xF59 DUP4 PUSH2 0x119D JUMP JUMPDEST POP ADD SLOAD GT ISZERO DUP3 DUP9 PUSH2 0xF16 JUMP JUMPDEST PUSH1 0x20 SWAP1 PUSH2 0xF70 PUSH2 0x1621 JUMP JUMPDEST DUP3 DUP3 DUP10 ADD ADD MSTORE ADD PUSH2 0xE99 JUMP JUMPDEST PUSH2 0xF85 DUP2 PUSH2 0x119D JUMP JUMPDEST POP DUP4 DUP4 PUSH1 0x1 DUP1 SWAP4 ADD SLOAD LT ISZERO SWAP2 DUP3 PUSH2 0xFC1 JUMPI JUMPDEST POP POP PUSH2 0xFAC JUMPI JUMPDEST PUSH2 0xFA7 SWAP1 PUSH2 0x15E6 JUMP JUMPDEST PUSH2 0xE67 JUMP JUMPDEST SWAP4 PUSH2 0xFB9 PUSH2 0xFA7 SWAP2 PUSH2 0x15E6 JUMP JUMPDEST SWAP5 SWAP1 POP PUSH2 0xF9E JUMP JUMPDEST SWAP1 SWAP2 POP PUSH2 0xFCD DUP4 PUSH2 0x119D JUMP JUMPDEST POP ADD SLOAD GT ISZERO DUP4 DUP8 PUSH2 0xF97 JUMP JUMPDEST CALLVALUE PUSH2 0xC9 JUMPI PUSH1 0x20 CALLDATASIZE PUSH1 0x3 NOT ADD SLT PUSH2 0xC9 JUMPI PUSH1 0x4 CALLDATALOAD PUSH1 0x0 SLOAD DUP2 LT ISZERO PUSH2 0xC9 JUMPI PUSH2 0x1000 SWAP1 PUSH2 0x119D JUMP JUMPDEST POP DUP1 SLOAD PUSH1 0x1 DUP3 ADD SLOAD SWAP2 PUSH1 0x2 DUP2 ADD SLOAD PUSH1 0x3 DUP3 ADD SLOAD PUSH1 0x4 DUP4 ADD SLOAD PUSH1 0x5 DUP5 ADD SLOAD PUSH1 0x6 DUP6 ADD SLOAD PUSH1 0x7 DUP7 ADD SLOAD PUSH1 0x8 DUP8 ADD SLOAD SWAP2 PUSH1 0x9 DUP9 ADD SLOAD SWAP4 PUSH1 0xA DUP10 ADD SLOAD SWAP6 PUSH1 0xB DUP11 ADD SLOAD SWAP8 PUSH1 0xC DUP12 ADD SLOAD SWAP10 PUSH1 0xD DUP13 ADD SLOAD SWAP12 PUSH1 0x1 PUSH1 0xA0 SHL PUSH1 0x1 SWAP1 SUB SWAP1 PUSH1 0xE ADD SLOAD AND SWAP13 PUSH1 0x40 MLOAD SWAP15 DUP16 SWAP2 DUP3 MSTORE PUSH1 0x20 DUP3 ADD MSTORE PUSH1 0x40 ADD MSTORE PUSH1 0x60 DUP14 ADD MSTORE PUSH1 0x80 DUP13 ADD MSTORE PUSH1 0xA0 DUP12 ADD MSTORE PUSH1 0xC0 DUP11 ADD MSTORE PUSH1 0xE0 DUP10 ADD MSTORE PUSH2 0x100 DUP9 ADD MSTORE PUSH2 0x120 DUP8 ADD MSTORE PUSH2 0x140 DUP7 ADD MSTORE PUSH2 0x160 DUP6 ADD MSTORE PUSH2 0x180 DUP5 ADD MSTORE PUSH2 0x1A0 DUP4 ADD MSTORE PUSH2 0x1C0 DUP3 ADD MSTORE PUSH2 0x1E0 SWAP1 RETURN JUMPDEST CALLVALUE PUSH2 0xC9 JUMPI PUSH1 0x20 CALLDATASIZE PUSH1 0x3 NOT ADD SLT PUSH2 0xC9 JUMPI PUSH2 0x1E0 PUSH2 0x10ED PUSH2 0xF3F PUSH1 0x4 CALLDATALOAD PUSH2 0x10DA PUSH2 0x1621 JUMP JUMPDEST POP PUSH2 0x10E8 PUSH1 0x0 SLOAD DUP3 LT PUSH2 0x1515 JUMP JUMPDEST PUSH2 0x119D JUMP JUMPDEST PUSH2 0x10FA PUSH1 0x40 MLOAD DUP1 SWAP3 PUSH2 0x10FC JUMP JUMPDEST RETURN JUMPDEST DUP1 MLOAD DUP3 MSTORE PUSH1 0x20 DUP2 ADD MLOAD PUSH1 0x20 DUP4 ADD MSTORE PUSH1 0x40 DUP2 ADD MLOAD PUSH1 0x40 DUP4 ADD MSTORE PUSH1 0x60 DUP2 ADD MLOAD PUSH1 0x60 DUP4 ADD MSTORE PUSH1 0x80 DUP2 ADD MLOAD PUSH1 0x80 DUP4 ADD MSTORE PUSH1 0xA0 DUP2 ADD MLOAD PUSH1 0xA0 DUP4 ADD MSTORE PUSH1 0xC0 DUP2 ADD MLOAD PUSH1 0xC0 DUP4 ADD MSTORE PUSH1 0xE0 DUP2 ADD MLOAD PUSH1 0xE0 DUP4 ADD MSTORE PUSH2 0x100 DUP1 DUP3 ADD MLOAD SWAP1 DUP4 ADD MSTORE PUSH2 0x120 DUP1 DUP3 ADD MLOAD SWAP1 DUP4 ADD MSTORE PUSH2 0x140 DUP1 DUP3 ADD MLOAD SWAP1 DUP4 ADD MSTORE PUSH2 0x160 DUP1 DUP3 ADD MLOAD SWAP1 DUP4 ADD MSTORE PUSH2 0x180 DUP1 DUP3 ADD MLOAD SWAP1 DUP4 ADD MSTORE PUSH2 0x1A0 DUP1 DUP3 ADD MLOAD SWAP1 DUP4 ADD MSTORE PUSH2 0x1C0 SWAP1 DUP2 PUSH1 0x1 DUP1 PUSH1 0xA0 SHL SUB SWAP2 ADD MLOAD AND SWAP2 ADD MSTORE JUMP JUMPDEST SWAP1 PUSH1 0x0 SWAP2 DUP3 SLOAD DUP2 LT ISZERO PUSH2 0x11D7 JUMPI PUSH1 0xF SWAP1 DUP4 DUP1 MSTORE MUL PUSH32 0x290DECD9548B62A8D60345A988386FC84BA6BC95484008F6362F93160EF3E563 ADD SWAP2 SWAP1 JUMP JUMPDEST PUSH4 0x4E487B71 PUSH1 0xE0 SHL DUP4 MSTORE PUSH1 0x32 PUSH1 0x4 MSTORE PUSH1 0x24 DUP4 REVERT JUMPDEST PUSH1 0x40 SWAP1 PUSH1 0x3 NOT ADD SLT PUSH2 0xC9 JUMPI PUSH1 0x4 CALLDATALOAD SWAP1 PUSH1 0x24 CALLDATALOAD SWAP1 JUMP JUMPDEST PUSH2 0x160 DUP2 ADD SWAP1 DUP2 LT PUSH8 0xFFFFFFFFFFFFFFFF DUP3 GT OR PUSH2 0x4E4 JUMPI PUSH1 0x40 MSTORE JUMP JUMPDEST PUSH2 0x1E0 DUP2 ADD SWAP1 DUP2 LT PUSH8 0xFFFFFFFFFFFFFFFF DUP3 GT OR PUSH2 0x4E4 JUMPI PUSH1 0x40 MSTORE JUMP JUMPDEST SWAP1 PUSH1 0x1F DUP1 NOT SWAP2 ADD AND DUP2 ADD SWAP1 DUP2 LT PUSH8 0xFFFFFFFFFFFFFFFF DUP3 GT OR PUSH2 0x4E4 JUMPI PUSH1 0x40 MSTORE JUMP JUMPDEST DUP2 PUSH1 0x1F DUP3 ADD SLT ISZERO PUSH2 0xC9 JUMPI DUP1 CALLDATALOAD SWAP1 PUSH8 0xFFFFFFFFFFFFFFFF DUP3 GT PUSH2 0x4E4 JUMPI PUSH1 0x40 MLOAD SWAP3 PUSH2 0x1292 PUSH1 0x1F DUP5 ADD PUSH1 0x1F NOT AND PUSH1 0x20 ADD DUP6 PUSH2 0x123B JUMP JUMPDEST DUP3 DUP5 MSTORE PUSH1 0x20 DUP4 DUP4 ADD ADD GT PUSH2 0xC9 JUMPI DUP2 PUSH1 0x0 SWAP3 PUSH1 0x20 DUP1 SWAP4 ADD DUP4 DUP7 ADD CALLDATACOPY DUP4 ADD ADD MSTORE SWAP1 JUMP JUMPDEST SWAP2 SWAP1 DUP3 MLOAD SWAP3 DUP4 DUP3 MSTORE PUSH1 0x0 JUMPDEST DUP5 DUP2 LT PUSH2 0x12E0 JUMPI POP POP DUP3 PUSH1 0x0 PUSH1 0x20 DUP1 SWAP5 SWAP6 DUP5 ADD ADD MSTORE PUSH1 0x1F DUP1 NOT SWAP2 ADD AND ADD ADD SWAP1 JUMP JUMPDEST PUSH1 0x20 DUP2 DUP4 ADD DUP2 ADD MLOAD DUP5 DUP4 ADD DUP3 ADD MSTORE ADD PUSH2 0x12BF JUMP JUMPDEST SWAP1 DUP2 MLOAD DUP2 MSTORE PUSH1 0x20 DUP3 ADD MLOAD PUSH1 0x20 DUP3 ADD MSTORE PUSH1 0x40 DUP3 ADD MLOAD PUSH1 0x40 DUP3 ADD MSTORE PUSH2 0x136A PUSH2 0x1329 PUSH1 0x60 DUP5 ADD MLOAD PUSH2 0x160 DUP1 PUSH1 0x60 DUP7 ADD MSTORE DUP5 ADD SWAP1 PUSH2 0x12B4 JUMP JUMPDEST PUSH1 0x80 DUP5 ADD MLOAD PUSH1 0x80 DUP5 ADD MSTORE PUSH1 0xA0 DUP5 ADD MLOAD PUSH1 0xA0 DUP5 ADD MSTORE PUSH1 0xFF PUSH1 0xC0 DUP6 ADD MLOAD AND PUSH1 0xC0 DUP5 ADD MSTORE PUSH1 0xE0 DUP5 ADD MLOAD ISZERO ISZERO PUSH1 0xE0 DUP5 ADD MSTORE PUSH2 0x100 DUP1 DUP6 ADD MLOAD SWAP1 DUP5 DUP4 SUB SWAP1 DUP6 ADD MSTORE PUSH2 0x12B4 JUMP JUMPDEST PUSH2 0x120 DUP1 DUP5 ADD MLOAD SWAP1 DUP4 ADD MSTORE PUSH2 0x140 SWAP3 DUP4 ADD MLOAD PUSH1 0x1 PUSH1 0x1 PUSH1 0xA0 SHL SUB AND SWAP3 SWAP1 SWAP2 ADD SWAP2 SWAP1 SWAP2 MSTORE SWAP1 JUMP JUMPDEST PUSH1 0x1 SLOAD DUP2 LT ISZERO PUSH2 0x13CB JUMPI PUSH1 0xA SWAP1 PUSH1 0x1 PUSH1 0x0 MSTORE MUL PUSH32 0xB10E2D527612073B26EECDFD717E6A320CF44B4AFAC2B0732D9FCBE2B7FA0CF6 ADD SWAP1 PUSH1 0x0 SWAP1 JUMP JUMPDEST PUSH4 0x4E487B71 PUSH1 0xE0 SHL PUSH1 0x0 MSTORE PUSH1 0x32 PUSH1 0x4 MSTORE PUSH1 0x24 PUSH1 0x0 REVERT JUMPDEST SWAP1 PUSH1 0x1 DUP3 DUP2 SHR SWAP3 AND DUP1 ISZERO PUSH2 0x1411 JUMPI JUMPDEST PUSH1 0x20 DUP4 LT EQ PUSH2 0x13FB JUMPI JUMP JUMPDEST PUSH4 0x4E487B71 PUSH1 0xE0 SHL PUSH1 0x0 MSTORE PUSH1 0x22 PUSH1 0x4 MSTORE PUSH1 0x24 PUSH1 0x0 REVERT JUMPDEST SWAP2 PUSH1 0x7F AND SWAP2 PUSH2 0x13F0 JUMP JUMPDEST SWAP1 PUSH1 0x40 MLOAD SWAP2 DUP3 PUSH1 0x0 DUP3 SLOAD SWAP3 PUSH2 0x142F DUP5 PUSH2 0x13E1 JUMP JUMPDEST SWAP1 DUP2 DUP5 MSTORE PUSH1 0x1 SWAP5 DUP6 DUP2 AND SWAP1 DUP2 PUSH1 0x0 EQ PUSH2 0x149E JUMPI POP PUSH1 0x1 EQ PUSH2 0x145B JUMPI JUMPDEST POP POP PUSH2 0x1459 SWAP3 POP SUB DUP4 PUSH2 0x123B JUMP JUMPDEST JUMP JUMPDEST SWAP1 SWAP4 SWAP2 POP PUSH1 0x0 MSTORE PUSH1 0x20 SWAP1 DUP2 PUSH1 0x0 KECCAK256 SWAP4 PUSH1 0x0 SWAP2 JUMPDEST DUP2 DUP4 LT PUSH2 0x1486 JUMPI POP POP PUSH2 0x1459 SWAP4 POP DUP3 ADD ADD CODESIZE DUP1 PUSH2 0x144B JUMP JUMPDEST DUP6 SLOAD DUP9 DUP5 ADD DUP6 ADD MSTORE SWAP5 DUP6 ADD SWAP5 DUP8 SWAP5 POP SWAP2 DUP4 ADD SWAP2 PUSH2 0x146E JUMP JUMPDEST SWAP2 POP POP PUSH2 0x1459 SWAP5 POP PUSH1 0x20 SWAP3 POP PUSH1 0xFF NOT AND DUP3 DUP5 ADD MSTORE ISZERO ISZERO PUSH1 0x5 SHL DUP3 ADD ADD CODESIZE DUP1 PUSH2 0x144B JUMP JUMPDEST PUSH1 0x40 MLOAD SWAP1 PUSH2 0x14CE DUP3 PUSH2 0x1201 JUMP JUMPDEST DUP2 PUSH2 0x140 PUSH1 0x0 SWAP2 DUP3 DUP2 MSTORE DUP3 PUSH1 0x20 DUP3 ADD MSTORE DUP3 PUSH1 0x40 DUP3 ADD MSTORE PUSH1 0x60 DUP1 DUP3 ADD MSTORE DUP3 PUSH1 0x80 DUP3 ADD MSTORE DUP3 PUSH1 0xA0 DUP3 ADD MSTORE DUP3 PUSH1 0xC0 DUP3 ADD MSTORE DUP3 PUSH1 0xE0 DUP3 ADD MSTORE PUSH1 0x60 PUSH2 0x100 DUP3 ADD MSTORE DUP3 PUSH2 0x120 DUP3 ADD MSTORE ADD MSTORE JUMP JUMPDEST ISZERO PUSH2 0x151C JUMPI JUMP JUMPDEST PUSH1 0x40 MLOAD PUSH3 0x461BCD PUSH1 0xE5 SHL DUP2 MSTORE PUSH1 0x20 PUSH1 0x4 DUP3 ADD MSTORE PUSH1 0xA PUSH1 0x24 DUP3 ADD MSTORE PUSH10 0x125B9D985B1A59081251 PUSH1 0xB2 SHL PUSH1 0x44 DUP3 ADD MSTORE PUSH1 0x64 SWAP1 REVERT JUMPDEST SWAP1 PUSH1 0x40 MLOAD PUSH2 0x155B DUP2 PUSH2 0x1201 JUMP JUMPDEST PUSH2 0x140 DUP2 SWAP4 DUP1 SLOAD DUP4 MSTORE PUSH1 0x1 DUP2 ADD SLOAD PUSH1 0x20 DUP5 ADD MSTORE PUSH1 0x2 DUP2 ADD SLOAD PUSH1 0x40 DUP5 ADD MSTORE PUSH2 0x1584 PUSH1 0x3 DUP3 ADD PUSH2 0x141B JUMP JUMPDEST PUSH1 0x60 DUP5 ADD MSTORE PUSH1 0x4 DUP2 ADD SLOAD PUSH1 0x80 DUP5 ADD MSTORE PUSH1 0x5 DUP2 ADD SLOAD PUSH1 0xA0 DUP5 ADD MSTORE PUSH1 0xFF PUSH1 0x6 DUP3 ADD SLOAD DUP2 DUP2 AND PUSH1 0xC0 DUP7 ADD MSTORE PUSH1 0x8 SHR AND ISZERO ISZERO PUSH1 0xE0 DUP5 ADD MSTORE PUSH2 0x15C3 PUSH1 0x7 DUP3 ADD PUSH2 0x141B JUMP JUMPDEST PUSH2 0x100 DUP5 ADD MSTORE PUSH1 0x8 DUP2 ADD SLOAD PUSH2 0x120 DUP5 ADD MSTORE PUSH1 0x9 ADD SLOAD PUSH1 0x1 PUSH1 0x1 PUSH1 0xA0 SHL SUB AND SWAP2 ADD MSTORE JUMP JUMPDEST PUSH1 0x0 NOT DUP2 EQ PUSH2 0x4B8 JUMPI PUSH1 0x1 ADD SWAP1 JUMP JUMPDEST PUSH8 0xFFFFFFFFFFFFFFFF DUP2 GT PUSH2 0x4E4 JUMPI PUSH1 0x5 SHL PUSH1 0x20 ADD SWAP1 JUMP JUMPDEST DUP1 MLOAD DUP3 LT ISZERO PUSH2 0x13CB JUMPI PUSH1 0x20 SWAP2 PUSH1 0x5 SHL ADD ADD SWAP1 JUMP JUMPDEST PUSH1 0x40 MLOAD SWAP1 PUSH2 0x162E DUP3 PUSH2 0x121E JUMP JUMPDEST DUP2 PUSH2 0x1C0 PUSH1 0x0 SWAP2 DUP3 DUP2 MSTORE DUP3 PUSH1 0x20 DUP3 ADD MSTORE DUP3 PUSH1 0x40 DUP3 ADD MSTORE DUP3 PUSH1 0x60 DUP3 ADD MSTORE DUP3 PUSH1 0x80 DUP3 ADD MSTORE DUP3 PUSH1 0xA0 DUP3 ADD MSTORE DUP3 PUSH1 0xC0 DUP3 ADD MSTORE DUP3 PUSH1 0xE0 DUP3 ADD MSTORE DUP3 PUSH2 0x100 DUP3 ADD MSTORE DUP3 PUSH2 0x120 DUP3 ADD MSTORE DUP3 PUSH2 0x140 DUP3 ADD MSTORE DUP3 PUSH2 0x160 DUP3 ADD MSTORE DUP3 PUSH2 0x180 DUP3 ADD MSTORE DUP3 PUSH2 0x1A0 DUP3 ADD MSTORE ADD MSTORE JUMP JUMPDEST SWAP1 PUSH1 0x40 MLOAD PUSH2 0x169D DUP2 PUSH2 0x121E JUMP JUMPDEST DUP3 SLOAD DUP2 MSTORE PUSH1 0x1 DUP4 ADD SLOAD PUSH1 0x20 DUP3 ADD MSTORE PUSH1 0x2 DUP4 ADD SLOAD PUSH1 0x40 DUP3 ADD MSTORE PUSH1 0x3 DUP4 ADD SLOAD PUSH1 0x60 DUP3 ADD MSTORE PUSH1 0x4 DUP4 ADD SLOAD PUSH1 0x80 DUP3 ADD MSTORE PUSH1 0x5 DUP4 ADD SLOAD PUSH1 0xA0 DUP3 ADD MSTORE PUSH1 0x6 DUP4 ADD SLOAD PUSH1 0xC0 DUP3 ADD MSTORE PUSH1 0x7 DUP4 ADD SLOAD PUSH1 0xE0 DUP3 ADD MSTORE PUSH1 0x8 DUP4 ADD SLOAD PUSH2 0x100 DUP3 ADD MSTORE PUSH1 0x9 DUP4 ADD SLOAD PUSH2 0x120 DUP3 ADD MSTORE PUSH1 0xA DUP4 ADD SLOAD PUSH2 0x140 DUP3 ADD MSTORE PUSH1 0xB DUP4 ADD SLOAD PUSH2 0x160 DUP3 ADD MSTORE PUSH1 0xC DUP4 ADD SLOAD PUSH2 0x180 DUP3 ADD MSTORE PUSH1 0xD DUP4 ADD SLOAD PUSH2 0x1A0 DUP3 ADD MSTORE PUSH1 0xE SWAP1 SWAP3 ADD SLOAD PUSH1 0x1 PUSH1 0x1 PUSH1 0xA0 SHL SUB AND PUSH2 0x1C0 DUP4 ADD MSTORE JUMP INVALID MSIZE SWAP9 0xC3 0x2C 0xEA PUSH6 0x9AABE81FFFC8 0xD2 0xAE DIV 0xC3 0xC6 POP CHAINID 0x1F PUSH11 0x749DA611A233A900499A66 LOG2 PUSH5 0x6970667358 0x22 SLT KECCAK256 STOP MSTORE 0xBF 0x26 DUP7 PC 0xC4 DUP11 PUSH31 0x82EDA9CE4EA7D5094023C095F37EB690C49324A907E7A264736F6C63430008 EQ STOP CALLER "},"methodIdentifiers":{"dailyInsightExists(uint256)":"a492520a","dailyInsights(uint256)":"a68da844","getCount()":"a87d942c","getDailyInsight(uint256)":"c941812c","getDailyInsightCount()":"eef9b778","getDailyInsightsByDateRange(uint256,uint256)":"dc4638d5","getLatestDailyInsight()":"709a8753","getRecord(uint256)":"03e9e609","getRecordsByTimeRange(uint256,uint256)":"3f1efd25","records(uint256)":"34461067","storeDailyInsight(uint256,uint256,uint256,string,uint256,uint256,uint8,bool,string,bytes32)":"6c9b5ee4","storeData(uint256,uint256,uint256,uint256,uint256,uint256,uint256,uint256,uint256,uint256,uint256,uint256)":"db9e45ef","storeSensorReading(uint256,uint256,uint256,uint256,uint256,uint256,uint256,uint256,uint256,uint256,uint256,uint256,bool,bytes32)":"95fdecbc"}}}}}