{"contracts/SoilDataStore.sol":{"SoilDataStore":{"abi":[{"anonymous":false,"inputs":[{"indexed":true,"internalType":"uint256","name":"id","type":"uint256"},{"indexed":false,"internalType":"uint256","name":"timestamp","type":"uint256"},{"indexed":false,"internalType":"uint256","name":"moisture","type":"uint256"},{"indexed":false,"internalType":"uint256","name":"pH","type":"uint256"},{"indexed":false,"internalType":"uint256","name":"temperature","type":"uint256"},{"indexed":false,"internalType":"uint256","name":"humidity","type":"uint256"},{"indexed":false,"internalType":"address","name":"reporter","type":"address"}],"name":"DataStored","type":"event"},{"inputs":[],"name":"getCount","outputs":[{"internalType":"uint256","name":"","type":"uint256"}],"stateMutability":"view","type":"function"},{"inputs":[{"internalType":"uint256","name":"id","type":"uint256"}],"name":"getRecord","outputs":[{"components":[{"internalType":"uint256","name":"timestamp","type":"uint256"},{"internalType":"uint256","name":"moisture","type":"uint256"},{"internalType":"uint256","name":"pH","type":"uint256"},{"internalType":"uint256","name":"temperature","type":"uint256"},{"internalType":"uint256","name":"humidity","type":"uint256"},{"internalType":"address","name":"reporter","type":"address"}],"internalType":"struct SoilDataStore.SoilData","name":"","type":"tuple"}],"stateMutability":"view","type":"function"},{"inputs":[{"internalType":"uint256","name":"startTime","type":"uint256"},{"internalType":"uint256","name":"endTime","type":"uint256"}],"name":"getRecordsByTimeRange","outputs":[{"components":[{"internalType":"uint256","name":"timestamp","type":"uint256"},{"internalType":"uint256","name":"moisture","type":"uint256"},{"internalType":"uint256","name":"pH","type":"uint256"},{"internalType":"uint256","name":"temperature","type":"uint256"},{"internalType":"uint256","name":"humidity","type":"uint256"},{"internalType":"address","name":"reporter","type":"address"}],"internalType":"struct SoilDataStore.SoilData[]","name":"","type":"tuple[]"}],"stateMutability":"view","type":"function"},{"inputs":[{"internalType":"uint256","name":"","type":"uint256"}],"name":"records","outputs":[{"internalType":"uint256","name":"timestamp","type":"uint256"},{"internalType":"uint256","name":"moisture","type":"uint256"},{"internalType":"uint256","name":"pH","type":"uint256"},{"internalType":"uint256","name":"temperature","type":"uint256"},{"internalType":"uint256","name":"humidity","type":"uint256"},{"internalType":"address","name":"reporter","type":"address"}],"stateMutability":"view","type":"function"},{"inputs":[{"internalType":"uint256","name":"_timestamp","type":"uint256"},{"internalType":"uint256","name":"_moisture","type":"uint256"},{"internalType":"uint256","name":"_pH","type":"uint256"},{"internalType":"uint256","name":"_temperature","type":"uint256"},{"internalType":"uint256","name":"_humidity","type":"uint256"}],"name":"storeData","outputs":[],"stateMutability":"nonpayable","type":"function"}],"evm":{"bytecode":{"linkReferences":{},"object":"608060405234801561001057600080fd5b50610c47806100206000396000f3fe608060405234801561001057600080fd5b50600436106100575760003560e01c806303e9e6091461005c578063344610671461008c5780633f1efd25146100c1578063a87d942c146100f1578063f42b39171461010f575b600080fd5b610076600480360381019061007191906106d7565b61012b565b60405161008391906107cf565b60405180910390f35b6100a660048036038101906100a191906106d7565b610236565b6040516100b896959493929190610808565b60405180910390f35b6100db60048036038101906100d69190610869565b6102a2565b6040516100e891906109d3565b60405180910390f35b6100f9610501565b60405161010691906109f5565b60405180910390f35b61012960048036038101906101249190610a10565b61050d565b005b610133610650565b600080549050821061017a576040517f08c379a000000000000000000000000000000000000000000000000000000000815260040161017190610ae8565b60405180910390fd5b6000828154811061018e5761018d610b08565b5b90600052602060002090600602016040518060c001604052908160008201548152602001600182015481526020016002820154815260200160038201548152602001600482015481526020016005820160009054906101000a900473ffffffffffffffffffffffffffffffffffffffff1673ffffffffffffffffffffffffffffffffffffffff1673ffffffffffffffffffffffffffffffffffffffff16815250509050919050565b6000818154811061024657600080fd5b90600052602060002090600602016000915090508060000154908060010154908060020154908060030154908060040154908060050160009054906101000a900473ffffffffffffffffffffffffffffffffffffffff16905086565b60606000805b6000805490508110156103365784600082815481106102ca576102c9610b08565b5b9060005260206000209060060201600001541015801561030f575083600082815481106102fa576102f9610b08565b5b90600052602060002090600602016000015411155b1561032357818061031f90610b66565b9250505b808061032e90610b66565b9150506102a8565b5060008167ffffffffffffffff81111561035357610352610bae565b5b60405190808252806020026020018201604052801561038c57816020015b610379610650565b8152602001906001900390816103715790505b5090506000805b6000805490508110156104f45786600082815481106103b5576103b4610b08565b5b906000526020600020906006020160000154101580156103fa575085600082815481106103e5576103e4610b08565b5b90600052602060002090600602016000015411155b156104e1576000818154811061041357610412610b08565b5b90600052602060002090600602016040518060c001604052908160008201548152602001600182015481526020016002820154815260200160038201548152602001600482015481526020016005820160009054906101000a900473ffffffffffffffffffffffffffffffffffffffff1673ffffffffffffffffffffffffffffffffffffffff1673ffffffffffffffffffffffffffffffffffffffff16815250508383815181106104c7576104c6610b08565b5b602002602001018190525081806104dd90610b66565b9250505b80806104ec90610b66565b915050610393565b5081935050505092915050565b60008080549050905090565b60006040518060c001604052808781526020018681526020018581526020018481526020018381526020013373ffffffffffffffffffffffffffffffffffffffff168152509080600181540180825580915050600190039060005260206000209060060201600090919091909150600082015181600001556020820151816001015560408201518160020155606082015181600301556080820151816004015560a08201518160050160006101000a81548173ffffffffffffffffffffffffffffffffffffffff021916908373ffffffffffffffffffffffffffffffffffffffff160217905550505060016000805490506106089190610bdd565b7fedc9e5eb68f1ef549a76a9cc3c6287ee32021af76058bbbce31a161a675bb40f86868686863360405161064196959493929190610808565b60405180910390a25050505050565b6040518060c001604052806000815260200160008152602001600081526020016000815260200160008152602001600073ffffffffffffffffffffffffffffffffffffffff1681525090565b600080fd5b6000819050919050565b6106b4816106a1565b81146106bf57600080fd5b50565b6000813590506106d1816106ab565b92915050565b6000602082840312156106ed576106ec61069c565b5b60006106fb848285016106c2565b91505092915050565b61070d816106a1565b82525050565b600073ffffffffffffffffffffffffffffffffffffffff82169050919050565b600061073e82610713565b9050919050565b61074e81610733565b82525050565b60c08201600082015161076a6000850182610704565b50602082015161077d6020850182610704565b5060408201516107906040850182610704565b5060608201516107a36060850182610704565b5060808201516107b66080850182610704565b5060a08201516107c960a0850182610745565b50505050565b600060c0820190506107e46000830184610754565b92915050565b6107f3816106a1565b82525050565b61080281610733565b82525050565b600060c08201905061081d60008301896107ea565b61082a60208301886107ea565b61083760408301876107ea565b61084460608301866107ea565b61085160808301856107ea565b61085e60a08301846107f9565b979650505050505050565b600080604083850312156108805761087f61069c565b5b600061088e858286016106c2565b925050602061089f858286016106c2565b9150509250929050565b600081519050919050565b600082825260208201905092915050565b6000819050602082019050919050565b60c0820160008201516108eb6000850182610704565b5060208201516108fe6020850182610704565b5060408201516109116040850182610704565b5060608201516109246060850182610704565b5060808201516109376080850182610704565b5060a082015161094a60a0850182610745565b50505050565b600061095c83836108d5565b60c08301905092915050565b6000602082019050919050565b6000610980826108a9565b61098a81856108b4565b9350610995836108c5565b8060005b838110156109c65781516109ad8882610950565b97506109b883610968565b925050600181019050610999565b5085935050505092915050565b600060208201905081810360008301526109ed8184610975565b905092915050565b6000602082019050610a0a60008301846107ea565b92915050565b600080600080600060a08688031215610a2c57610a2b61069c565b5b6000610a3a888289016106c2565b9550506020610a4b888289016106c2565b9450506040610a5c888289016106c2565b9350506060610a6d888289016106c2565b9250506080610a7e888289016106c2565b9150509295509295909350565b600082825260208201905092915050565b7f496e76616c696420494400000000000000000000000000000000000000000000600082015250565b6000610ad2600a83610a8b565b9150610add82610a9c565b602082019050919050565b60006020820190508181036000830152610b0181610ac5565b9050919050565b7f4e487b7100000000000000000000000000000000000000000000000000000000600052603260045260246000fd5b7f4e487b7100000000000000000000000000000000000000000000000000000000600052601160045260246000fd5b6000610b71826106a1565b91507fffffffffffffffffffffffffffffffffffffffffffffffffffffffffffffffff8203610ba357610ba2610b37565b5b600182019050919050565b7f4e487b7100000000000000000000000000000000000000000000000000000000600052604160045260246000fd5b6000610be8826106a1565b9150610bf3836106a1565b9250828203905081811115610c0b57610c0a610b37565b5b9291505056fea264697066735822122061e35daf8291f1f1e3e304a62f36f2ef032f8526313c0df74a37d3be7626ca7864736f6c63430008140033","opcodes":"PUSH1 0x80 PUSH1 0x40 MSTORE CALLVALUE DUP1 ISZERO PUSH2 0x10 JUMPI PUSH1 0x0 DUP1 REVERT JUMPDEST POP PUSH2 0xC47 DUP1 PUSH2 0x20 PUSH1 0x0 CODECOPY PUSH1 0x0 RETURN INVALID PUSH1 0x80 PUSH1 0x40 MSTORE CALLVALUE DUP1 ISZERO PUSH2 0x10 JUMPI PUSH1 0x0 DUP1 REVERT JUMPDEST POP PUSH1 0x4 CALLDATASIZE LT PUSH2 0x57 JUMPI PUSH1 0x0 CALLDATALOAD PUSH1 0xE0 SHR DUP1 PUSH4 0x3E9E609 EQ PUSH2 0x5C JUMPI DUP1 PUSH4 0x34461067 EQ PUSH2 0x8C JUMPI DUP1 PUSH4 0x3F1EFD25 EQ PUSH2 0xC1 JUMPI DUP1 PUSH4 0xA87D942C EQ PUSH2 0xF1 JUMPI DUP1 PUSH4 0xF42B3917 EQ PUSH2 0x10F JUMPI JUMPDEST PUSH1 0x0 DUP1 REVERT JUMPDEST PUSH2 0x76 PUSH1 0x4 DUP1 CALLDATASIZE SUB DUP2 ADD SWAP1 PUSH2 0x71 SWAP2 SWAP1 PUSH2 0x6D7 JUMP JUMPDEST PUSH2 0x12B JUMP JUMPDEST PUSH1 0x40 MLOAD PUSH2 0x83 SWAP2 SWAP1 PUSH2 0x7CF JUMP JUMPDEST PUSH1 0x40 MLOAD DUP1 SWAP2 SUB SWAP1 RETURN JUMPDEST PUSH2 0xA6 PUSH1 0x4 DUP1 CALLDATASIZE SUB DUP2 ADD SWAP1 PUSH2 0xA1 SWAP2 SWAP1 PUSH2 0x6D7 JUMP JUMPDEST PUSH2 0x236 JUMP JUMPDEST PUSH1 0x40 MLOAD PUSH2 0xB8 SWAP7 SWAP6 SWAP5 SWAP4 SWAP3 SWAP2 SWAP1 PUSH2 0x808 JUMP JUMPDEST PUSH1 0x40 MLOAD DUP1 SWAP2 SUB SWAP1 RETURN JUMPDEST PUSH2 0xDB PUSH1 0x4 DUP1 CALLDATASIZE SUB DUP2 ADD SWAP1 PUSH2 0xD6 SWAP2 SWAP1 PUSH2 0x869 JUMP JUMPDEST PUSH2 0x2A2 JUMP JUMPDEST PUSH1 0x40 MLOAD PUSH2 0xE8 SWAP2 SWAP1 PUSH2 0x9D3 JUMP JUMPDEST PUSH1 0x40 MLOAD DUP1 SWAP2 SUB SWAP1 RETURN JUMPDEST PUSH2 0xF9 PUSH2 0x501 JUMP JUMPDEST PUSH1 0x40 MLOAD PUSH2 0x106 SWAP2 SWAP1 PUSH2 0x9F5 JUMP JUMPDEST PUSH1 0x40 MLOAD DUP1 SWAP2 SUB SWAP1 RETURN JUMPDEST PUSH2 0x129 PUSH1 0x4 DUP1 CALLDATASIZE SUB DUP2 ADD SWAP1 PUSH2 0x124 SWAP2 SWAP1 PUSH2 0xA10 JUMP JUMPDEST PUSH2 0x50D JUMP JUMPDEST STOP JUMPDEST PUSH2 0x133 PUSH2 0x650 JUMP JUMPDEST PUSH1 0x0 DUP1 SLOAD SWAP1 POP DUP3 LT PUSH2 0x17A JUMPI PUSH1 0x40 MLOAD PUSH32 0x8C379A000000000000000000000000000000000000000000000000000000000 DUP2 MSTORE PUSH1 0x4 ADD PUSH2 0x171 SWAP1 PUSH2 0xAE8 JUMP JUMPDEST PUSH1 0x40 MLOAD DUP1 SWAP2 SUB SWAP1 REVERT JUMPDEST PUSH1 0x0 DUP3 DUP2 SLOAD DUP2 LT PUSH2 0x18E JUMPI PUSH2 0x18D PUSH2 0xB08 JUMP JUMPDEST JUMPDEST SWAP1 PUSH1 0x0 MSTORE PUSH1 0x20 PUSH1 0x0 KECCAK256 SWAP1 PUSH1 0x6 MUL ADD PUSH1 0x40 MLOAD DUP1 PUSH1 0xC0 ADD PUSH1 0x40 MSTORE SWAP1 DUP2 PUSH1 0x0 DUP3 ADD SLOAD DUP2 MSTORE PUSH1 0x20 ADD PUSH1 0x1 DUP3 ADD SLOAD DUP2 MSTORE PUSH1 0x20 ADD PUSH1 0x2 DUP3 ADD SLOAD DUP2 MSTORE PUSH1 0x20 ADD PUSH1 0x3 DUP3 ADD SLOAD DUP2 MSTORE PUSH1 0x20 ADD PUSH1 0x4 DUP3 ADD SLOAD DUP2 MSTORE PUSH1 0x20 ADD PUSH1 0x5 DUP3 ADD PUSH1 0x0 SWAP1 SLOAD SWAP1 PUSH2 0x100 EXP SWAP1 DIV PUSH20 0xFFFFFFFFFFFFFFFFFFFFFFFFFFFFFFFFFFFFFFFF AND PUSH20 0xFFFFFFFFFFFFFFFFFFFFFFFFFFFFFFFFFFFFFFFF AND PUSH20 0xFFFFFFFFFFFFFFFFFFFFFFFFFFFFFFFFFFFFFFFF AND DUP2 MSTORE POP POP SWAP1 POP SWAP2 SWAP1 POP JUMP JUMPDEST PUSH1 0x0 DUP2 DUP2 SLOAD DUP2 LT PUSH2 0x246 JUMPI PUSH1 0x0 DUP1 REVERT JUMPDEST SWAP1 PUSH1 0x0 MSTORE PUSH1 0x20 PUSH1 0x0 KECCAK256 SWAP1 PUSH1 0x6 MUL ADD PUSH1 0x0 SWAP2 POP SWAP1 POP DUP1 PUSH1 0x0 ADD SLOAD SWAP1 DUP1 PUSH1 0x1 ADD SLOAD SWAP1 DUP1 PUSH1 0x2 ADD SLOAD SWAP1 DUP1 PUSH1 0x3 ADD SLOAD SWAP1 DUP1 PUSH1 0x4 ADD SLOAD SWAP1 DUP1 PUSH1 0x5 ADD PUSH1 0x0 SWAP1 SLOAD SWAP1 PUSH2 0x100 EXP SWAP1 DIV PUSH20 0xFFFFFFFFFFFFFFFFFFFFFFFFFFFFFFFFFFFFFFFF AND SWAP1 POP DUP7 JUMP JUMPDEST PUSH1 0x60 PUSH1 0x0 DUP1 JUMPDEST PUSH1 0x0 DUP1 SLOAD SWAP1 POP DUP2 LT ISZERO PUSH2 0x336 JUMPI DUP5 PUSH1 0x0 DUP3 DUP2 SLOAD DUP2 LT PUSH2 0x2CA JUMPI PUSH2 0x2C9 PUSH2 0xB08 JUMP JUMPDEST JUMPDEST SWAP1 PUSH1 0x0 MSTORE PUSH1 0x20 PUSH1 0x0 KECCAK256 SWAP1 PUSH1 0x6 MUL ADD PUSH1 0x0 ADD SLOAD LT ISZERO DUP1 ISZERO PUSH2 0x30F JUMPI POP DUP4 PUSH1 0x0 DUP3 DUP2 SLOAD DUP2 LT PUSH2 0x2FA JUMPI PUSH2 0x2F9 PUSH2 0xB08 JUMP JUMPDEST JUMPDEST SWAP1 PUSH1 0x0 MSTORE PUSH1 0x20 PUSH1 0x0 KECCAK256 SWAP1 PUSH1 0x6 MUL ADD PUSH1 0x0 ADD SLOAD GT ISZERO JUMPDEST ISZERO PUSH2 0x323 JUMPI DUP2 DUP1 PUSH2 0x31F SWAP1 PUSH2 0xB66 JUMP JUMPDEST SWAP3 POP POP JUMPDEST DUP1 DUP1 PUSH2 0x32E SWAP1 PUSH2 0xB66 JUMP JUMPDEST SWAP2 POP POP PUSH2 0x2A8 JUMP JUMPDEST POP PUSH1 0x0 DUP2 PUSH8 0xFFFFFFFFFFFFFFFF DUP2 GT ISZERO PUSH2 0x353 JUMPI PUSH2 0x352 PUSH2 0xBAE JUMP JUMPDEST JUMPDEST PUSH1 0x40 MLOAD SWAP1 DUP1 DUP3 MSTORE DUP1 PUSH1 0x20 MUL PUSH1 0x20 ADD DUP3 ADD PUSH1 0x40 MSTORE DUP1 ISZERO PUSH2 0x38C JUMPI DUP2 PUSH1 0x20 ADD JUMPDEST PUSH2 0x379 PUSH2 0x650 JUMP JUMPDEST DUP2 MSTORE PUSH1 0x20 ADD SWAP1 PUSH1 0x1 SWAP1 SUB SWAP1 DUP2 PUSH2 0x371 JUMPI SWAP1 POP JUMPDEST POP SWAP1 POP PUSH1 0x0 DUP1 JUMPDEST PUSH1 0x0 DUP1 SLOAD SWAP1 POP DUP2 LT ISZERO PUSH2 0x4F4 JUMPI DUP7 PUSH1 0x0 DUP3 DUP2 SLOAD DUP2 LT PUSH2 0x3B5 JUMPI PUSH2 0x3B4 PUSH2 0xB08 JUMP JUMPDEST JUMPDEST SWAP1 PUSH1 0x0 MSTORE PUSH1 0x20 PUSH1 0x0 KECCAK256 SWAP1 PUSH1 0x6 MUL ADD PUSH1 0x0 ADD SLOAD LT ISZERO DUP1 ISZERO PUSH2 0x3FA JUMPI POP DUP6 PUSH1 0x0 DUP3 DUP2 SLOAD DUP2 LT PUSH2 0x3E5 JUMPI PUSH2 0x3E4 PUSH2 0xB08 JUMP JUMPDEST JUMPDEST SWAP1 PUSH1 0x0 MSTORE PUSH1 0x20 PUSH1 0x0 KECCAK256 SWAP1 PUSH1 0x6 MUL ADD PUSH1 0x0 ADD SLOAD GT ISZERO JUMPDEST ISZERO PUSH2 0x4E1 JUMPI PUSH1 0x0 DUP2 DUP2 SLOAD DUP2 LT PUSH2 0x413 JUMPI PUSH2 0x412 PUSH2 0xB08 JUMP JUMPDEST JUMPDEST SWAP1 PUSH1 0x0 MSTORE PUSH1 0x20 PUSH1 0x0 KECCAK256 SWAP1 PUSH1 0x6 MUL ADD PUSH1 0x40 MLOAD DUP1 PUSH1 0xC0 ADD PUSH1 0x40 MSTORE SWAP1 DUP2 PUSH1 0x0 DUP3 ADD SLOAD DUP2 MSTORE PUSH1 0x20 ADD PUSH1 0x1 DUP3 ADD SLOAD DUP2 MSTORE PUSH1 0x20 ADD PUSH1 0x2 DUP3 ADD SLOAD DUP2 MSTORE PUSH1 0x20 ADD PUSH1 0x3 DUP3 ADD SLOAD DUP2 MSTORE PUSH1 0x20 ADD PUSH1 0x4 DUP3 ADD SLOAD DUP2 MSTORE PUSH1 0x20 ADD PUSH1 0x5 DUP3 ADD PUSH1 0x0 SWAP1 SLOAD SWAP1 PUSH2 0x100 EXP SWAP1 DIV PUSH20 0xFFFFFFFFFFFFFFFFFFFFFFFFFFFFFFFFFFFFFFFF AND PUSH20 0xFFFFFFFFFFFFFFFFFFFFFFFFFFFFFFFFFFFFFFFF AND PUSH20 0xFFFFFFFFFFFFFFFFFFFFFFFFFFFFFFFFFFFFFFFF AND DUP2 MSTORE POP POP DUP4 DUP4 DUP2 MLOAD DUP2 LT PUSH2 0x4C7 JUMPI PUSH2 0x4C6 PUSH2 0xB08 JUMP JUMPDEST JUMPDEST PUSH1 0x20 MUL PUSH1 0x20 ADD ADD DUP2 SWAP1 MSTORE POP DUP2 DUP1 PUSH2 0x4DD SWAP1 PUSH2 0xB66 JUMP JUMPDEST SWAP3 POP POP JUMPDEST DUP1 DUP1 PUSH2 0x4EC SWAP1 PUSH2 0xB66 JUMP JUMPDEST SWAP2 POP POP PUSH2 0x393 JUMP JUMPDEST POP DUP2 SWAP4 POP POP POP POP SWAP3 SWAP2 POP POP JUMP JUMPDEST PUSH1 0x0 DUP1 DUP1 SLOAD SWAP1 POP SWAP1 POP SWAP1 JUMP JUMPDEST PUSH1 0x0 PUSH1 0x40 MLOAD DUP1 PUSH1 0xC0 ADD PUSH1 0x40 MSTORE DUP1 DUP8 DUP2 MSTORE PUSH1 0x20 ADD DUP7 DUP2 MSTORE PUSH1 0x20 ADD DUP6 DUP2 MSTORE PUSH1 0x20 ADD DUP5 DUP2 MSTORE PUSH1 0x20 ADD DUP4 DUP2 MSTORE PUSH1 0x20 ADD CALLER PUSH20 0xFFFFFFFFFFFFFFFFFFFFFFFFFFFFFFFFFFFFFFFF AND DUP2 MSTORE POP SWAP1 DUP1 PUSH1 0x1 DUP2 SLOAD ADD DUP1 DUP3 SSTORE DUP1 SWAP2 POP POP PUSH1 0x1 SWAP1 SUB SWAP1 PUSH1 0x0 MSTORE PUSH1 0x20 PUSH1 0x0 KECCAK256 SWAP1 PUSH1 0x6 MUL ADD PUSH1 0x0 SWAP1 SWAP2 SWAP1 SWAP2 SWAP1 SWAP2 POP PUSH1 0x0 DUP3 ADD MLOAD DUP2 PUSH1 0x0 ADD SSTORE PUSH1 0x20 DUP3 ADD MLOAD DUP2 PUSH1 0x1 ADD SSTORE PUSH1 0x40 DUP3 ADD MLOAD DUP2 PUSH1 0x2 ADD SSTORE PUSH1 0x60 DUP3 ADD MLOAD DUP2 PUSH1 0x3 ADD SSTORE PUSH1 0x80 DUP3 ADD MLOAD DUP2 PUSH1 0x4 ADD SSTORE PUSH1 0xA0 DUP3 ADD MLOAD DUP2 PUSH1 0x5 ADD PUSH1 0x0 PUSH2 0x100 EXP DUP2 SLOAD DUP2 PUSH20 0xFFFFFFFFFFFFFFFFFFFFFFFFFFFFFFFFFFFFFFFF MUL NOT AND SWAP1 DUP4 PUSH20 0xFFFFFFFFFFFFFFFFFFFFFFFFFFFFFFFFFFFFFFFF AND MUL OR SWAP1 SSTORE POP POP POP PUSH1 0x1 PUSH1 0x0 DUP1 SLOAD SWAP1 POP PUSH2 0x608 SWAP2 SWAP1 PUSH2 0xBDD JUMP JUMPDEST PUSH32 0xEDC9E5EB68F1EF549A76A9CC3C6287EE32021AF76058BBBCE31A161A675BB40F DUP7 DUP7 DUP7 DUP7 DUP7 CALLER PUSH1 0x40 MLOAD PUSH2 0x641 SWAP7 SWAP6 SWAP5 SWAP4 SWAP3 SWAP2 SWAP1 PUSH2 0x808 JUMP JUMPDEST PUSH1 0x40 MLOAD DUP1 SWAP2 SUB SWAP1 LOG2 POP POP POP POP POP JUMP JUMPDEST PUSH1 0x40 MLOAD DUP1 PUSH1 0xC0 ADD PUSH1 0x40 MSTORE DUP1 PUSH1 0x0 DUP2 MSTORE PUSH1 0x20 ADD PUSH1 0x0 DUP2 MSTORE PUSH1 0x20 ADD PUSH1 0x0 DUP2 MSTORE PUSH1 0x20 ADD PUSH1 0x0 DUP2 MSTORE PUSH1 0x20 ADD PUSH1 0x0 DUP2 MSTORE PUSH1 0x20 ADD PUSH1 0x0 PUSH20 0xFFFFFFFFFFFFFFFFFFFFFFFFFFFFFFFFFFFFFFFF AND DUP2 MSTORE POP SWAP1 JUMP JUMPDEST PUSH1 0x0 DUP1 REVERT JUMPDEST PUSH1 0x0 DUP2 SWAP1 POP SWAP2 SWAP1 POP JUMP JUMPDEST PUSH2 0x6B4 DUP2 PUSH2 0x6A1 JUMP JUMPDEST DUP2 EQ PUSH2 0x6BF JUMPI PUSH1 0x0 DUP1 REVERT JUMPDEST POP JUMP JUMPDEST PUSH1 0x0 DUP2 CALLDATALOAD SWAP1 POP PUSH2 0x6D1 DUP2 PUSH2 0x6AB JUMP JUMPDEST SWAP3 SWAP2 POP POP JUMP JUMPDEST PUSH1 0x0 PUSH1 0x20 DUP3 DUP5 SUB SLT ISZERO PUSH2 0x6ED JUMPI PUSH2 0x6EC PUSH2 0x69C JUMP JUMPDEST JUMPDEST PUSH1 0x0 PUSH2 0x6FB DUP5 DUP3 DUP6 ADD PUSH2 0x6C2 JUMP JUMPDEST SWAP2 POP POP SWAP3 SWAP2 POP POP JUMP JUMPDEST PUSH2 0x70D DUP2 PUSH2 0x6A1 JUMP JUMPDEST DUP3 MSTORE POP POP JUMP JUMPDEST PUSH1 0x0 PUSH20 0xFFFFFFFFFFFFFFFFFFFFFFFFFFFFFFFFFFFFFFFF DUP3 AND SWAP1 POP SWAP2 SWAP1 POP JUMP JUMPDEST PUSH1 0x0 PUSH2 0x73E DUP3 PUSH2 0x713 JUMP JUMPDEST SWAP1 POP SWAP2 SWAP1 POP JUMP JUMPDEST PUSH2 0x74E DUP2 PUSH2 0x733 JUMP JUMPDEST DUP3 MSTORE POP POP JUMP JUMPDEST PUSH1 0xC0 DUP3 ADD PUSH1 0x0 DUP3 ADD MLOAD PUSH2 0x76A PUSH1 0x0 DUP6 ADD DUP3 PUSH2 0x704 JUMP JUMPDEST POP PUSH1 0x20 DUP3 ADD MLOAD PUSH2 0x77D PUSH1 0x20 DUP6 ADD DUP3 PUSH2 0x704 JUMP JUMPDEST POP PUSH1 0x40 DUP3 ADD MLOAD PUSH2 0x790 PUSH1 0x40 DUP6 ADD DUP3 PUSH2 0x704 JUMP JUMPDEST POP PUSH1 0x60 DUP3 ADD MLOAD PUSH2 0x7A3 PUSH1 0x60 DUP6 ADD DUP3 PUSH2 0x704 JUMP JUMPDEST POP PUSH1 0x80 DUP3 ADD MLOAD PUSH2 0x7B6 PUSH1 0x80 DUP6 ADD DUP3 PUSH2 0x704 JUMP JUMPDEST POP PUSH1 0xA0 DUP3 ADD MLOAD PUSH2 0x7C9 PUSH1 0xA0 DUP6 ADD DUP3 PUSH2 0x745 JUMP JUMPDEST POP POP POP POP JUMP JUMPDEST PUSH1 0x0 PUSH1 0xC0 DUP3 ADD SWAP1 POP PUSH2 0x7E4 PUSH1 0x0 DUP4 ADD DUP5 PUSH2 0x754 JUMP JUMPDEST SWAP3 SWAP2 POP POP JUMP JUMPDEST PUSH2 0x7F3 DUP2 PUSH2 0x6A1 JUMP JUMPDEST DUP3 MSTORE POP POP JUMP JUMPDEST PUSH2 0x802 DUP2 PUSH2 0x733 JUMP JUMPDEST DUP3 MSTORE POP POP JUMP JUMPDEST PUSH1 0x0 PUSH1 0xC0 DUP3 ADD SWAP1 POP PUSH2 0x81D PUSH1 0x0 DUP4 ADD DUP10 PUSH2 0x7EA JUMP JUMPDEST PUSH2 0x82A PUSH1 0x20 DUP4 ADD DUP9 PUSH2 0x7EA JUMP JUMPDEST PUSH2 0x837 PUSH1 0x40 DUP4 ADD DUP8 PUSH2 0x7EA JUMP JUMPDEST PUSH2 0x844 PUSH1 0x60 DUP4 ADD DUP7 PUSH2 0x7EA JUMP JUMPDEST PUSH2 0x851 PUSH1 0x80 DUP4 ADD DUP6 PUSH2 0x7EA JUMP JUMPDEST PUSH2 0x85E PUSH1 0xA0 DUP4 ADD DUP5 PUSH2 0x7F9 JUMP JUMPDEST SWAP8 SWAP7 POP POP POP POP POP POP POP JUMP JUMPDEST PUSH1 0x0 DUP1 PUSH1 0x40 DUP4 DUP6 SUB SLT ISZERO PUSH2 0x880 JUMPI PUSH2 0x87F PUSH2 0x69C JUMP JUMPDEST JUMPDEST PUSH1 0x0 PUSH2 0x88E DUP6 DUP3 DUP7 ADD PUSH2 0x6C2 JUMP JUMPDEST SWAP3 POP POP PUSH1 0x20 PUSH2 0x89F DUP6 DUP3 DUP7 ADD PUSH2 0x6C2 JUMP JUMPDEST SWAP2 POP POP SWAP3 POP SWAP3 SWAP1 POP JUMP JUMPDEST PUSH1 0x0 DUP2 MLOAD SWAP1 POP SWAP2 SWAP1 POP JUMP JUMPDEST PUSH1 0x0 DUP3 DUP3 MSTORE PUSH1 0x20 DUP3 ADD SWAP1 POP SWAP3 SWAP2 POP POP JUMP JUMPDEST PUSH1 0x0 DUP2 SWAP1 POP PUSH1 0x20 DUP3 ADD SWAP1 POP SWAP2 SWAP1 POP JUMP JUMPDEST PUSH1 0xC0 DUP3 ADD PUSH1 0x0 DUP3 ADD MLOAD PUSH2 0x8EB PUSH1 0x0 DUP6 ADD DUP3 PUSH2 0x704 JUMP JUMPDEST POP PUSH1 0x20 DUP3 ADD MLOAD PUSH2 0x8FE PUSH1 0x20 DUP6 ADD DUP3 PUSH2 0x704 JUMP JUMPDEST POP PUSH1 0x40 DUP3 ADD MLOAD PUSH2 0x911 PUSH1 0x40 DUP6 ADD DUP3 PUSH2 0x704 JUMP JUMPDEST POP PUSH1 0x60 DUP3 ADD MLOAD PUSH2 0x924 PUSH1 0x60 DUP6 ADD DUP3 PUSH2 0x704 JUMP JUMPDEST POP PUSH1 0x80 DUP3 ADD MLOAD PUSH2 0x937 PUSH1 0x80 DUP6 ADD DUP3 PUSH2 0x704 JUMP JUMPDEST POP PUSH1 0xA0 DUP3 ADD MLOAD PUSH2 0x94A PUSH1 0xA0 DUP6 ADD DUP3 PUSH2 0x745 JUMP JUMPDEST POP POP POP POP JUMP JUMPDEST PUSH1 0x0 PUSH2 0x95C DUP4 DUP4 PUSH2 0x8D5 JUMP JUMPDEST PUSH1 0xC0 DUP4 ADD SWAP1 POP SWAP3 SWAP2 POP POP JUMP JUMPDEST PUSH1 0x0 PUSH1 0x20 DUP3 ADD SWAP1 POP SWAP2 SWAP1 POP JUMP JUMPDEST PUSH1 0x0 PUSH2 0x980 DUP3 PUSH2 0x8A9 JUMP JUMPDEST PUSH2 0x98A DUP2 DUP6 PUSH2 0x8B4 JUMP JUMPDEST SWAP4 POP PUSH2 0x995 DUP4 PUSH2 0x8C5 JUMP JUMPDEST DUP1 PUSH1 0x0 JUMPDEST DUP4 DUP2 LT ISZERO PUSH2 0x9C6 JUMPI DUP2 MLOAD PUSH2 0x9AD DUP9 DUP3 PUSH2 0x950 JUMP JUMPDEST SWAP8 POP PUSH2 0x9B8 DUP4 PUSH2 0x968 JUMP JUMPDEST SWAP3 POP POP PUSH1 0x1 DUP2 ADD SWAP1 POP PUSH2 0x999 JUMP JUMPDEST POP DUP6 SWAP4 POP POP POP POP SWAP3 SWAP2 POP POP JUMP JUMPDEST PUSH1 0x0 PUSH1 0x20 DUP3 ADD SWAP1 POP DUP2 DUP2 SUB PUSH1 0x0 DUP4 ADD MSTORE PUSH2 0x9ED DUP2 DUP5 PUSH2 0x975 JUMP JUMPDEST SWAP1 POP SWAP3 SWAP2 POP POP JUMP JUMPDEST PUSH1 0x0 PUSH1 0x20 DUP3 ADD SWAP1 POP PUSH2 0xA0A PUSH1 0x0 DUP4 ADD DUP5 PUSH2 0x7EA JUMP JUMPDEST SWAP3 SWAP2 POP POP JUMP JUMPDEST PUSH1 0x0 DUP1 PUSH1 0x0 DUP1 PUSH1 0x0 PUSH1 0xA0 DUP7 DUP9 SUB SLT ISZERO PUSH2 0xA2C JUMPI PUSH2 0xA2B PUSH2 0x69C JUMP JUMPDEST JUMPDEST PUSH1 0x0 PUSH2 0xA3A DUP9 DUP3 DUP10 ADD PUSH2 0x6C2 JUMP JUMPDEST SWAP6 POP POP PUSH1 0x20 PUSH2 0xA4B DUP9 DUP3 DUP10 ADD PUSH2 0x6C2 JUMP JUMPDEST SWAP5 POP POP PUSH1 0x40 PUSH2 0xA5C DUP9 DUP3 DUP10 ADD PUSH2 0x6C2 JUMP JUMPDEST SWAP4 POP POP PUSH1 0x60 PUSH2 0xA6D DUP9 DUP3 DUP10 ADD PUSH2 0x6C2 JUMP JUMPDEST SWAP3 POP POP PUSH1 0x80 PUSH2 0xA7E DUP9 DUP3 DUP10 ADD PUSH2 0x6C2 JUMP JUMPDEST SWAP2 POP POP SWAP3 SWAP6 POP SWAP3 SWAP6 SWAP1 SWAP4 POP JUMP JUMPDEST PUSH1 0x0 DUP3 DUP3 MSTORE PUSH1 0x20 DUP3 ADD SWAP1 POP SWAP3 SWAP2 POP POP JUMP JUMPDEST PUSH32 0x496E76616C696420494400000000000000000000000000000000000000000000 PUSH1 0x0 DUP3 ADD MSTORE POP JUMP JUMPDEST PUSH1 0x0 PUSH2 0xAD2 PUSH1 0xA DUP4 PUSH2 0xA8B JUMP JUMPDEST SWAP2 POP PUSH2 0xADD DUP3 PUSH2 0xA9C JUMP JUMPDEST PUSH1 0x20 DUP3 ADD SWAP1 POP SWAP2 SWAP1 POP JUMP JUMPDEST PUSH1 0x0 PUSH1 0x20 DUP3 ADD SWAP1 POP DUP2 DUP2 SUB PUSH1 0x0 DUP4 ADD MSTORE PUSH2 0xB01 DUP2 PUSH2 0xAC5 JUMP JUMPDEST SWAP1 POP SWAP2 SWAP1 POP JUMP JUMPDEST PUSH32 0x4E487B7100000000000000000000000000000000000000000000000000000000 PUSH1 0x0 MSTORE PUSH1 0x32 PUSH1 0x4 MSTORE PUSH1 0x24 PUSH1 0x0 REVERT JUMPDEST PUSH32 0x4E487B7100000000000000000000000000000000000000000000000000000000 PUSH1 0x0 MSTORE PUSH1 0x11 PUSH1 0x4 MSTORE PUSH1 0x24 PUSH1 0x0 REVERT JUMPDEST PUSH1 0x0 PUSH2 0xB71 DUP3 PUSH2 0x6A1 JUMP JUMPDEST SWAP2 POP PUSH32 0xFFFFFFFFFFFFFFFFFFFFFFFFFFFFFFFFFFFFFFFFFFFFFFFFFFFFFFFFFFFFFFFF DUP3 SUB PUSH2 0xBA3 JUMPI PUSH2 0xBA2 PUSH2 0xB37 JUMP JUMPDEST JUMPDEST PUSH1 0x1 DUP3 ADD SWAP1 POP SWAP2 SWAP1 POP JUMP JUMPDEST PUSH32 0x4E487B7100000000000000000000000000000000000000000000000000000000 PUSH1 0x0 MSTORE PUSH1 0x41 PUSH1 0x4 MSTORE PUSH1 0x24 PUSH1 0x0 REVERT JUMPDEST PUSH1 0x0 PUSH2 0xBE8 DUP3 PUSH2 0x6A1 JUMP JUMPDEST SWAP2 POP PUSH2 0xBF3 DUP4 PUSH2 0x6A1 JUMP JUMPDEST SWAP3 POP DUP3 DUP3 SUB SWAP1 POP DUP2 DUP2 GT ISZERO PUSH2 0xC0B JUMPI PUSH2 0xC0A PUSH2 0xB37 JUMP JUMPDEST JUMPDEST SWAP3 SWAP2 POP POP JUMP INVALID LOG2 PUSH5 0x6970667358 0x22 SLT KECCAK256 PUSH2 0xE35D 0xAF DUP3 SWAP2 CALL CALL 0xE3 0xE3 DIV 0xA6 0x2F CALLDATASIZE CALLCODE 0xEF SUB 0x2F DUP6 0x26 BALANCE EXTCODECOPY 0xD 0xF7 0x4A CALLDATACOPY 0xD3 0xBE PUSH23 0x26CA7864736F6C63430008140033000000000000000000 "},"methodIdentifiers":{"getCount()":"a87d942c","getRecord(uint256)":"03e9e609","getRecordsByTimeRange(uint256,uint256)":"3f1efd25","records(uint256)":"34461067","storeData(uint256,uint256,uint256,uint256,uint256)":"f42b3917"}}}}}