{
  "_format": "hh-sol-artifact-1",
  "contractName": "AquaMindData",
  "sourceName": "contracts/AquaMindData.sol",
  "abi": [
    {
      "inputs": [],
      "stateMutability": "nonpayable",
      "type": "constructor"
    },
    {
      "anonymous": false,
      "inputs": [
        {
          "indexed": true,
          "internalType": "uint256",
          "name": "id",
          "type": "uint256"
        },
        {
          "indexed": true,
          "internalType": "uint256",
          "name": "sensorReadingId",
          "type": "uint256"
        },
        {
          "indexed": false,
          "internalType": "string",
          "name": "analysisType",
          "type": "string"
        },
        {
          "indexed": false,
          "internalType": "bytes32",
          "name": "dataHash",
          "type": "bytes32"
        },
        {
          "indexed": true,
          "internalType": "address",
          "name": "reporter",
          "type": "address"
        }
      ],
      "name": "AIAnalysisStored",
      "type": "event"
    },
    {
      "anonymous": false,
      "inputs": [
        {
          "indexed": true,
          "internalType": "uint256",
          "name": "id",
          "type": "uint256"
        },
        {
          "indexed": true,
          "internalType": "uint256",
          "name": "dateTimestamp",
          "type": "uint256"
        },
        {
          "indexed": false,
          "internalType": "string",
          "name": "recommendedCrop",
          "type": "string"
        },
        {
          "indexed": false,
          "internalType": "uint256",
          "name": "soilHealthScore",
          "type": "uint256"
        },
        {
          "indexed": false,
          "internalType": "bool",
          "name": "isAnomalyDetected",
          "type": "bool"
        },
        {
          "indexed": false,
          "internalType": "bytes32",
          "name": "recordHash",
          "type": "bytes32"
        },
        {
          "indexed": true,
          "internalType": "address",
          "name": "reporter",
          "type": "address"
        }
      ],
      "name": "DailyInsightStored",
      "type": "event"
    },
    {
      "anonymous": false,
      "inputs": [
        {
          "indexed": false,
          "internalType": "string",
          "name": "dataType",
          "type": "string"
        },
        {
          "indexed": false,
          "internalType": "uint256",
          "name": "dataId",
          "type": "uint256"
        },
        {
          "indexed": false,
          "internalType": "bytes32",
          "name": "dataHash",
          "type": "bytes32"
        },
        {
          "indexed": false,
          "internalType": "bool",
          "name": "exists",
          "type": "bool"
        }
      ],
      "name": "DataVerified",
      "type": "event"
    },
    {
      "anonymous": false,
      "inputs": [
        {
          "indexed": true,
          "internalType": "uint256",
          "name": "id",
          "type": "uint256"
        },
        {
          "indexed": true,
          "internalType": "uint256",
          "name": "measuredAtVN",
          "type": "uint256"
        },
        {
          "indexed": false,
          "internalType": "bytes32",
          "name": "dataHash",
          "type": "bytes32"
        },
        {
          "indexed": true,
          "internalType": "address",
          "name": "reporter",
          "type": "address"
        }
      ],
      "name": "SensorReadingStored",
      "type": "event"
    },
    {
      "inputs": [],
      "name": "admin",
      "outputs": [
        {
          "internalType": "address",
          "name": "",
          "type": "address"
        }
      ],
      "stateMutability": "view",
      "type": "function"
    },
    {
      "inputs": [
        {
          "internalType": "uint256",
          "name": "",
          "type": "uint256"
        }
      ],
      "name": "aiAnalyses",
      "outputs": [
        {
          "internalType": "uint256",
          "name": "id",
          "type": "uint256"
        },
        {
          "internalType": "uint256",
          "name": "sensorReadingId",
          "type": "uint256"
        },
        {
          "internalType": "string",
          "name": "analysisType",
          "type": "string"
        },
        {
          "internalType": "string",
          "name": "analysisMode",
          "type": "string"
        },
        {
          "internalType": "string",
          "name": "userCrop",
          "type": "string"
        },
        {
          "internalType": "uint256",
          "name": "analyzedAtVN",
          "type": "uint256"
        },
        {
          "internalType": "uint256",
          "name": "confidenceAvg",
          "type": "uint256"
        },
        {
          "internalType": "uint256",
          "name": "processingTimeMs",
          "type": "uint256"
        },
        {
          "internalType": "bytes32",
          "name": "dataHash",
          "type": "bytes32"
        },
        {
          "internalType": "address",
          "name": "reporter",
          "type": "address"
        },
        {
          "internalType": "uint256",
          "name": "recordedAt",
          "type": "uint256"
        }
      ],
      "stateMutability": "view",
      "type": "function"
    },
    {
      "inputs": [
        {
          "internalType": "uint256",
          "name": "",
          "type": "uint256"
        }
      ],
      "name": "aiAnalysisIds",
      "outputs": [
        {
          "internalType": "uint256",
          "name": "",
          "type": "uint256"
        }
      ],
      "stateMutability": "view",
      "type": "function"
    },
    {
      "inputs": [
        {
          "internalType": "uint256",
          "name": "",
          "type": "uint256"
        }
      ],
      "name": "blockchainLogs",
      "outputs": [
        {
          "internalType": "string",
          "name": "dataType",
          "type": "string"
        },
        {
          "internalType": "uint256",
          "name": "dataId",
          "type": "uint256"
        },
        {
          "internalType": "bytes32",
          "name": "dataHash",
          "type": "bytes32"
        },
        {
          "internalType": "uint256",
          "name": "timestamp",
          "type": "uint256"
        },
        {
          "internalType": "address",
          "name": "uploader",
          "type": "address"
        }
      ],
      "stateMutability": "view",
      "type": "function"
    },
    {
      "inputs": [
        {
          "internalType": "uint256",
          "name": "",
          "type": "uint256"
        }
      ],
      "name": "dailyInsightIds",
      "outputs": [
        {
          "internalType": "uint256",
          "name": "",
          "type": "uint256"
        }
      ],
      "stateMutability": "view",
      "type": "function"
    },
    {
      "inputs": [
        {
          "internalType": "uint256",
          "name": "",
          "type": "uint256"
        }
      ],
      "name": "dailyInsights",
      "outputs": [
        {
          "internalType": "uint256",
          "name": "id",
          "type": "uint256"
        },
        {
          "internalType": "uint256",
          "name": "dateTimestamp",
          "type": "uint256"
        },
        {
          "internalType": "uint256",
          "name": "sampleCount",
          "type": "uint256"
        },
        {
          "internalType": "string",
          "name": "recommendedCrop",
          "type": "string"
        },
        {
          "internalType": "uint256",
          "name": "confidence",
          "type": "uint256"
        },
        {
          "internalType": "uint256",
          "name": "soilHealthScore",
          "type": "uint256"
        },
        {
          "internalType": "uint8",
          "name": "healthRating",
          "type": "uint8"
        },
        {
          "internalType": "bool",
          "name": "isAnomalyDetected",
          "type": "bool"
        },
        {
          "internalType": "string",
          "name": "recommendations",
          "type": "string"
        },
        {
          "internalType": "bytes32",
          "name": "recordHash",
          "type": "bytes32"
        },
        {
          "internalType": "address",
          "name": "reporter",
          "type": "address"
        },
        {
          "internalType": "uint256",
          "name": "recordedAt",
          "type": "uint256"
        }
      ],
      "stateMutability": "view",
      "type": "function"
    },
    {
      "inputs": [
        {
          "internalType": "uint256",
          "name": "",
          "type": "uint256"
        }
      ],
      "name": "dateExists",
      "outputs": [
        {
          "internalType": "bool",
          "name": "",
          "type": "bool"
        }
      ],
      "stateMutability": "view",
      "type": "function"
    },
    {
      "inputs": [
        {
          "internalType": "uint256",
          "name": "_sensorReadingId",
          "type": "uint256"
        }
      ],
      "name": "getAIAnalysesBySensorReading",
      "outputs": [
        {
          "internalType": "uint256[]",
          "name": "",
          "type": "uint256[]"
        }
      ],
      "stateMutability": "view",
      "type": "function"
    },
    {
      "inputs": [
        {
          "internalType": "uint256",
          "name": "_id",
          "type": "uint256"
        }
      ],
      "name": "getAIAnalysis",
      "outputs": [
        {
          "components": [
            {
              "internalType": "uint256",
              "name": "id",
              "type": "uint256"
            },
            {
              "internalType": "uint256",
              "name": "sensorReadingId",
              "type": "uint256"
            },
            {
              "internalType": "string",
              "name": "analysisType",
              "type": "string"
            },
            {
              "internalType": "string",
              "name": "analysisMode",
              "type": "string"
            },
            {
              "internalType": "string",
              "name": "userCrop",
              "type": "string"
            },
            {
              "internalType": "uint256",
              "name": "analyzedAtVN",
              "type": "uint256"
            },
            {
              "internalType": "uint256",
              "name": "confidenceAvg",
              "type": "uint256"
            },
            {
              "internalType": "uint256",
              "name": "processingTimeMs",
              "type": "uint256"
            },
            {
              "internalType": "bytes32",
              "name": "dataHash",
              "type": "bytes32"
            },
            {
              "internalType": "address",
              "name": "reporter",
              "type": "address"
            },
            {
              "internalType": "uint256",
              "name": "recordedAt",
              "type": "uint256"
            }
          ],
          "internalType": "struct AquaMindData.AIAnalysis",
          "name": "",
          "type": "tuple"
        }
      ],
      "stateMutability": "view",
      "type": "function"
    },
    {
      "inputs": [
        {
          "internalType": "uint256",
          "name": "_id",
          "type": "uint256"
        }
      ],
      "name": "getDailyInsight",
      "outputs": [
        {
          "components": [
            {
              "internalType": "uint256",
              "name": "id",
              "type": "uint256"
            },
            {
              "internalType": "uint256",
              "name": "dateTimestamp",
              "type": "uint256"
            },
            {
              "internalType": "uint256",
              "name": "sampleCount",
              "type": "uint256"
            },
            {
              "internalType": "string",
              "name": "recommendedCrop",
              "type": "string"
            },
            {
              "internalType": "uint256",
              "name": "confidence",
              "type": "uint256"
            },
            {
              "internalType": "uint256",
              "name": "soilHealthScore",
              "type": "uint256"
            },
            {
              "internalType": "uint8",
              "name": "healthRating",
              "type": "uint8"
            },
            {
              "internalType": "bool",
              "name": "isAnomalyDetected",
              "type": "bool"
            },
            {
              "internalType": "string",
              "name": "recommendations",
              "type": "string"
            },
            {
              "internalType": "bytes32",
              "name": "recordHash",
              "type": "bytes32"
            },
            {
              "internalType": "address",
              "name": "reporter",
              "type": "address"
            },
            {
              "internalType": "uint256",
              "name": "recordedAt",
              "type": "uint256"
            }
          ],
          "internalType": "struct AquaMindData.DailyInsight",
          "name": "",
          "type": "tuple"
        }
      ],
      "stateMutability": "view",
      "type": "function"
    },
    {
      "inputs": [
        {
          "internalType": "uint256",
          "name": "_dateTimestamp",
          "type": "uint256"
        }
      ],
      "name": "getDailyInsightByDate",
      "outputs": [
        {
          "components": [
            {
              "internalType": "uint256",
              "name": "id",
              "type": "uint256"
            },
            {
              "internalType": "uint256",
              "name": "dateTimestamp",
              "type": "uint256"
            },
            {
              "internalType": "uint256",
              "name": "sampleCount",
              "type": "uint256"
            },
            {
              "internalType": "string",
              "name": "recommendedCrop",
              "type": "string"
            },
            {
              "internalType": "uint256",
              "name": "confidence",
              "type": "uint256"
            },
            {
              "internalType": "uint256",
              "name": "soilHealthScore",
              "type": "uint256"
            },
            {
              "internalType": "uint8",
              "name": "healthRating",
              "type": "uint8"
            },
            {
              "internalType": "bool",
              "name": "isAnomalyDetected",
              "type": "bool"
            },
            {
              "internalType": "string",
              "name": "recommendations",
              "type": "string"
            },
            {
              "internalType": "bytes32",
              "name": "recordHash",
              "type": "bytes32"
            },
            {
              "internalType": "address",
              "name": "reporter",
              "type": "address"
            },
            {
              "internalType": "uint256",
              "name": "recordedAt",
              "type": "uint256"
            }
          ],
          "internalType": "struct AquaMindData.DailyInsight",
          "name": "",
          "type": "tuple"
        }
      ],
      "stateMutability": "view",
      "type": "function"
    },
    {
      "inputs": [
        {
          "internalType": "uint256",
          "name": "_count",
          "type": "uint256"
        }
      ],
      "name": "getLatestAIAnalyses",
      "outputs": [
        {
          "internalType": "uint256[]",
          "name": "",
          "type": "uint256[]"
        }
      ],
      "stateMutability": "view",
      "type": "function"
    },
    {
      "inputs": [
        {
          "internalType": "uint256",
          "name": "_count",
          "type": "uint256"
        }
      ],
      "name": "getLatestDailyInsights",
      "outputs": [
        {
          "internalType": "uint256[]",
          "name": "",
          "type": "uint256[]"
        }
      ],
      "stateMutability": "view",
      "type": "function"
    },
    {
      "inputs": [
        {
          "internalType": "uint256",
          "name": "_count",
          "type": "uint256"
        }
      ],
      "name": "getLatestLogs",
      "outputs": [
        {
          "components": [
            {
              "internalType": "string",
              "name": "dataType",
              "type": "string"
            },
            {
              "internalType": "uint256",
              "name": "dataId",
              "type": "uint256"
            },
            {
              "internalType": "bytes32",
              "name": "dataHash",
              "type": "bytes32"
            },
            {
              "internalType": "uint256",
              "name": "timestamp",
              "type": "uint256"
            },
            {
              "internalType": "address",
              "name": "uploader",
              "type": "address"
            }
          ],
          "internalType": "struct AquaMindData.BlockchainLog[]",
          "name": "",
          "type": "tuple[]"
        }
      ],
      "stateMutability": "view",
      "type": "function"
    },
    {
      "inputs": [
        {
          "internalType": "uint256",
          "name": "_count",
          "type": "uint256"
        }
      ],
      "name": "getLatestSensorReadings",
      "outputs": [
        {
          "internalType": "uint256[]",
          "name": "",
          "type": "uint256[]"
        }
      ],
      "stateMutability": "view",
      "type": "function"
    },
    {
      "inputs": [
        {
          "internalType": "uint256",
          "name": "_startTime",
          "type": "uint256"
        },
        {
          "internalType": "uint256",
          "name": "_endTime",
          "type": "uint256"
        }
      ],
      "name": "getLogsByTimeRange",
      "outputs": [
        {
          "components": [
            {
              "internalType": "string",
              "name": "dataType",
              "type": "string"
            },
            {
              "internalType": "uint256",
              "name": "dataId",
              "type": "uint256"
            },
            {
              "internalType": "bytes32",
              "name": "dataHash",
              "type": "bytes32"
            },
            {
              "internalType": "uint256",
              "name": "timestamp",
              "type": "uint256"
            },
            {
              "internalType": "address",
              "name": "uploader",
              "type": "address"
            }
          ],
          "internalType": "struct AquaMindData.BlockchainLog[]",
          "name": "",
          "type": "tuple[]"
        }
      ],
      "stateMutability": "view",
      "type": "function"
    },
    {
      "inputs": [
        {
          "internalType": "uint256",
          "name": "_id",
          "type": "uint256"
        }
      ],
      "name": "getSensorReading",
      "outputs": [
        {
          "components": [
            {
              "internalType": "uint256",
              "name": "id",
              "type": "uint256"
            },
            {
              "internalType": "uint256",
              "name": "measuredAtVN",
              "type": "uint256"
            },
            {
              "internalType": "uint256",
              "name": "soilTemperatureC",
              "type": "uint256"
            },
            {
              "internalType": "uint256",
              "name": "soilMoisturePct",
              "type": "uint256"
            },
            {
              "internalType": "uint256",
              "name": "conductivity",
              "type": "uint256"
            },
            {
              "internalType": "uint256",
              "name": "phValue",
              "type": "uint256"
            },
            {
              "internalType": "uint256",
              "name": "nitrogen",
              "type": "uint256"
            },
            {
              "internalType": "uint256",
              "name": "phosphorus",
              "type": "uint256"
            },
            {
              "internalType": "uint256",
              "name": "potassium",
              "type": "uint256"
            },
            {
              "internalType": "uint256",
              "name": "salt",
              "type": "uint256"
            },
            {
              "internalType": "uint256",
              "name": "airTemperatureC",
              "type": "uint256"
            },
            {
              "internalType": "uint256",
              "name": "airHumidityPct",
              "type": "uint256"
            },
            {
              "internalType": "bool",
              "name": "isRaining",
              "type": "bool"
            },
            {
              "internalType": "bytes32",
              "name": "dataHash",
              "type": "bytes32"
            },
            {
              "internalType": "address",
              "name": "reporter",
              "type": "address"
            },
            {
              "internalType": "uint256",
              "name": "recordedAt",
              "type": "uint256"
            }
          ],
          "internalType": "struct AquaMindData.SensorReading",
          "name": "",
          "type": "tuple"
        }
      ],
      "stateMutability": "view",
      "type": "function"
    },
    {
      "inputs": [
        {
          "internalType": "uint256",
          "name": "_startTime",
          "type": "uint256"
        },
        {
          "internalType": "uint256",
          "name": "_endTime",
          "type": "uint256"
        }
      ],
      "name": "getSensorReadingsByTimeRange",
      "outputs": [
        {
          "internalType": "uint256[]",
          "name": "",
          "type": "uint256[]"
        }
      ],
      "stateMutability": "view",
      "type": "function"
    },
    {
      "inputs": [],
      "name": "getTotalLogs",
      "outputs": [
        {
          "internalType": "uint256",
          "name": "",
          "type": "uint256"
        }
      ],
      "stateMutability": "view",
      "type": "function"
    },
    {
      "inputs": [
        {
          "internalType": "bytes32",
          "name": "",
          "type": "bytes32"
        }
      ],
      "name": "sensorHashExists",
      "outputs": [
        {
          "internalType": "bool",
          "name": "",
          "type": "bool"
        }
      ],
      "stateMutability": "view",
      "type": "function"
    },
    {
      "inputs": [
        {
          "internalType": "uint256",
          "name": "",
          "type": "uint256"
        }
      ],
      "name": "sensorReadingIds",
      "outputs": [
        {
          "internalType": "uint256",
          "name": "",
          "type": "uint256"
        }
      ],
      "stateMutability": "view",
      "type": "function"
    },
    {
      "inputs": [
        {
          "internalType": "uint256",
          "name": "",
          "type": "uint256"
        }
      ],
      "name": "sensorReadings",
      "outputs": [
        {
          "internalType": "uint256",
          "name": "id",
          "type": "uint256"
        },
        {
          "internalType": "uint256",
          "name": "measuredAtVN",
          "type": "uint256"
        },
        {
          "internalType": "uint256",
          "name": "soilTemperatureC",
          "type": "uint256"
        },
        {
          "internalType": "uint256",
          "name": "soilMoisturePct",
          "type": "uint256"
        },
        {
          "internalType": "uint256",
          "name": "conductivity",
          "type": "uint256"
        },
        {
          "internalType": "uint256",
          "name": "phValue",
          "type": "uint256"
        },
        {
          "internalType": "uint256",
          "name": "nitrogen",
          "type": "uint256"
        },
        {
          "internalType": "uint256",
          "name": "phosphorus",
          "type": "uint256"
        },
        {
          "internalType": "uint256",
          "name": "potassium",
          "type": "uint256"
        },
        {
          "internalType": "uint256",
          "name": "salt",
          "type": "uint256"
        },
        {
          "internalType": "uint256",
          "name": "airTemperatureC",
          "type": "uint256"
        },
        {
          "internalType": "uint256",
          "name": "airHumidityPct",
          "type": "uint256"
        },
        {
          "internalType": "bool",
          "name": "isRaining",
          "type": "bool"
        },
        {
          "internalType": "bytes32",
          "name": "dataHash",
          "type": "bytes32"
        },
        {
          "internalType": "address",
          "name": "reporter",
          "type": "address"
        },
        {
          "internalType": "uint256",
          "name": "recordedAt",
          "type": "uint256"
        }
      ],
      "stateMutability": "view",
      "type": "function"
    },
    {
      "inputs": [
        {
          "internalType": "uint256",
          "name": "_id",
          "type": "uint256"
        },
        {
          "internalType": "uint256",
          "name": "_sensorReadingId",
          "type": "uint256"
        },
        {
          "internalType": "string",
          "name": "_analysisType",
          "type": "string"
        },
        {
          "internalType": "string",
          "name": "_analysisMode",
          "type": "string"
        },
        {
          "internalType": "string",
          "name": "_userCrop",
          "type": "string"
        },
        {
          "internalType": "uint256",
          "name": "_analyzedAtVN",
          "type": "uint256"
        },
        {
          "internalType": "uint256",
          "name": "_confidenceAvg",
          "type": "uint256"
        },
        {
          "internalType": "uint256",
          "name": "_processingTimeMs",
          "type": "uint256"
        },
        {
          "internalType": "bytes32",
          "name": "_dataHash",
          "type": "bytes32"
        }
      ],
      "name": "storeAIAnalysis",
      "outputs": [
        {
          "internalType": "bool",
          "name": "",
          "type": "bool"
        }
      ],
      "stateMutability": "nonpayable",
      "type": "function"
    },
    {
      "inputs": [
        {
          "internalType": "uint256",
          "name": "_id",
          "type": "uint256"
        },
        {
          "internalType": "uint256",
          "name": "_dateTimestamp",
          "type": "uint256"
        },
        {
          "internalType": "uint256",
          "name": "_sampleCount",
          "type": "uint256"
        },
        {
          "internalType": "string",
          "name": "_recommendedCrop",
          "type": "string"
        },
        {
          "internalType": "uint256",
          "name": "_confidence",
          "type": "uint256"
        },
        {
          "internalType": "uint256",
          "name": "_soilHealthScore",
          "type": "uint256"
        },
        {
          "internalType": "uint8",
          "name": "_healthRating",
          "type": "uint8"
        },
        {
          "internalType": "bool",
          "name": "_isAnomalyDetected",
          "type": "bool"
        },
        {
          "internalType": "string",
          "name": "_recommendations",
          "type": "string"
        },
        {
          "internalType": "bytes32",
          "name": "_recordHash",
          "type": "bytes32"
        }
      ],
      "name": "storeDailyInsight",
      "outputs": [
        {
          "internalType": "bool",
          "name": "",
          "type": "bool"
        }
      ],
      "stateMutability": "nonpayable",
      "type": "function"
    },
    {
      "inputs": [
        {
          "internalType": "uint256",
          "name": "_id",
          "type": "uint256"
        },
        {
          "internalType": "uint256",
          "name": "_measuredAtVN",
          "type": "uint256"
        },
        {
          "internalType": "uint256",
          "name": "_soilTemperatureC",
          "type": "uint256"
        },
        {
          "internalType": "uint256",
          "name": "_soilMoisturePct",
          "type": "uint256"
        },
        {
          "internalType": "uint256",
          "name": "_conductivity",
          "type": "uint256"
        },
        {
          "internalType": "uint256",
          "name": "_phValue",
          "type": "uint256"
        },
        {
          "internalType": "uint256",
          "name": "_nitrogen",
          "type": "uint256"
        },
        {
          "internalType": "uint256",
          "name": "_phosphorus",
          "type": "uint256"
        },
        {
          "internalType": "uint256",
          "name": "_potassium",
          "type": "uint256"
        },
        {
          "internalType": "uint256",
          "name": "_salt",
          "type": "uint256"
        },
        {
          "internalType": "uint256",
          "name": "_airTemperatureC",
          "type": "uint256"
        },
        {
          "internalType": "uint256",
          "name": "_airHumidityPct",
          "type": "uint256"
        },
        {
          "internalType": "bool",
          "name": "_isRaining",
          "type": "bool"
        },
        {
          "internalType": "bytes32",
          "name": "_dataHash",
          "type": "bytes32"
        }
      ],
      "name": "storeSensorReading",
      "outputs": [
        {
          "internalType": "bool",
          "name": "",
          "type": "bool"
        }
      ],
      "stateMutability": "nonpayable",
      "type": "function"
    },
    {
      "inputs": [],
      "name": "totalAIAnalyses",
      "outputs": [
        {
          "internalType": "uint256",
          "name": "",
          "type": "uint256"
        }
      ],
      "stateMutability": "view",
      "type": "function"
    },
    {
      "inputs": [],
      "name": "totalDailyInsights",
      "outputs": [
        {
          "internalType": "uint256",
          "name": "",
          "type": "uint256"
        }
      ],
      "stateMutability": "view",
      "type": "function"
    },
    {
      "inputs": [],
      "name": "totalSensorReadings",
      "outputs": [
        {
          "internalType": "uint256",
          "name": "",
          "type": "uint256"
        }
      ],
      "stateMutability": "view",
      "type": "function"
    },
    {
      "inputs": [
        {
          "internalType": "address",
          "name": "_newAdmin",
          "type": "address"
        }
      ],
      "name": "transferAdmin",
      "outputs": [],
      "stateMutability": "nonpayable",
      "type": "function"
    },
    {
      "inputs": [
        {
          "internalType": "bytes32",
          "name": "_dataHash",
          "type": "bytes32"
        }
      ],
      "name": "verifySensorReading",
      "outputs": [
        {
          "internalType": "bool",
          "name": "",
          "type": "bool"
        }
      ],
      "stateMutability": "nonpayable",
      "type": "function"
    }
  ],
  "bytecode": "0x6080806040523461002857600980546001600160a01b03191633179055612be1908161002e8239f35b600080fdfe60a0604052600436101561001257600080fd5b60003560e01c80630e9805741461218057806314f21e8414612157578063166245f414612139578063240194c1146121105780632688d9f81461201d5780632e44187614611f3657806360729c4414611ec6578063612bcdec14611e395780636c9b5ee4146118a557806375829def146117d55780637d130d6d146111e75780637f3e36b2146110df57806380adba6714610fd057806395fdecbc14610b495780639f14340814610b2b578063a2b08f2514610a12578063a5a86d2f146109e1578063a68da844146108fe578063ade77c82146106df578063b9e8b1d1146106c1578063bcca5ce91461062d578063bd628d261461060f578063bfd2595d146105e4578063c941812c146104f3578063d9c93fc7146104c2578063de741e05146102ee578063e065ea881461024d578063ebdcf1b1146101cb578063edac4a84146101945763f851a4401461016657600080fd5b3461018f57600036600319011261018f576009546040516001600160a01b039091168152602090f35b600080fd5b3461018f57602036600319011261018f5760043560025481101561018f576101bd6020916122af565b90546040519160031b1c8152f35b3461018f57602036600319011261018f5760043560085481101561018f576101f56102349161266d565b506101ff816123cb565b90600181015490600281015490600381015490600460018060a01b03910154169160405195869560a0875260a0870190612471565b9360208601526040850152606084015260808301520390f35b3461018f57602036600319011261018f576002546004358181116102e7575b610275816128c3565b90600080198401938411905b82811061029a576040518061029686826121f0565b0390f35b816102d157806102b56102b06102cc9388612909565b6122af565b90549060031b1c6102c682876128f5565b526126e1565b610281565b634e487b7160e01b600052601160045260246000fd5b508061026c565b3461018f57602036600319011261018f57600435600061014060405161031381612357565b82815282602082015260606040820152606080820152606060808201528260a08201528260c08201528260e08201528261010082015282610120820152015280600052600660205261036b604060002054151561286d565b60005260066020526040600020600a6040519161038783612357565b80548352600181015460208401526103a1600282016123cb565b60408401526103b2600382016123cb565b60608401526103c3600482016123cb565b6080840152600581015460a0840152600681015460c0840152600781015460e0840152600881015461010084015260018060a01b0360098201541661012084015201546101408201526040518091602082528051602083015260208101516040830152604081015161014061047a61044961016093846060880152610180870190612471565b610465606086015191601f1992838983030160808a0152612471565b906080860151908783030160a0880152612471565b9260a081015160c086015260c081015160e086015260e081015161010086015261010081015161012086015260018060a01b0361012082015116828601520151908301520390f35b3461018f57602036600319011261018f576004356000526001602052602060ff604060002054166040519015158152f35b3461018f57602036600319011261018f5760043561050f612916565b50806000526003602052610529604060002054151561286d565b60005260036020526102966040600020600a6040519161054883612320565b80548352600181015460208401526002810154604084015261056c600382016123cb565b606084015260048101546080840152600581015460a084015260ff600682015481811660c086015260081c16151560e08401526105ab600782016123cb565b610100840152600881015461012084015260098101546001600160a01b03166101408401520154610160820152604051918291826125b9565b3461018f57602036600319011261018f57610296610603600435612971565b604051918291826125b9565b3461018f57600036600319011261018f576020600854604051908152f35b3461018f57602036600319011261018f576008546004358181116106ba575b61065581612aed565b90600080198401938411905b8281106106765760405180610296868261251d565b816102d1578061069a61069461068f6106b59489612909565b61266d565b50612b5f565b6106a482876128f5565b526106af81866128f5565b506126e1565b610661565b508061064c565b3461018f57600036600319011261018f576020600b54604051908152f35b3461018f57602036600319011261018f5760006101e060405161070181612373565b8281528260208201528260408201528260608201528260808201528260a08201528260c08201528260e08201528261010082015282610120820152826101408201528261016082015282610180820152826101a0820152826101c0820152015260043580600052600060205261077d604060002054151561286d565b600052600060205261020060406000206101e060405161079c81612373565b600f83549384835260018101546020840152600281015460408401526003810154606084015260048101546080840152600581015460a0840152600681015460c0840152600781015460e084015260088101546101008401526009810154610120840152600a810154610140840152600b81015461016084015260ff600c820154161515610180840152600d8101546101a084015260018060a01b03600e820154166101c08401520154828201526040519283526020810151602084015260408101516040840152606081015160608401526080810151608084015260a081015160a084015260c081015160c084015260e081015160e084015261010081015161010084015261012081015161012084015261014081015161014084015261016081015161016084015261018081015115156101808401526101a08101516101a084015260018060a01b036101c0820151166101c084015201516101e0820152f35b3461018f57602036600319011261018f5760043560005260036020526020604060002080549060018101546002820154916109ca61093e600383016123cb565b60048301549060ff600585015460068601549061099e610960600789016123cb565b9460088901549a600a60018060a01b0360098c0154169a01549a6040519e8f9e8f908152015260408d015260608c61018091829101528c0190612471565b9460808b015260a08a015281811660c08a015260081c16151560e0880152868203610100880152612471565b926101208501526101408401526101608301520390f35b3461018f57602036600319011261018f576004356000526004602052602060ff604060002054166040519015158152f35b3461018f57610a2036612507565b600854906000805b838110610ace5750610a3990612aed565b9260009160005b848110610a555760405180610296888261251d565b610a5e8161266d565b50828460038093015410159182610ab6575b5050610a85575b610a80906126e1565b610a40565b92610aae610a8091610a996106948761266d565b610aa3828a6128f5565b526106af81896128f5565b939050610a77565b909150610ac28361266d565b50015411158288610a70565b610ad78161266d565b50838660038093015410159182610b13575b5050610afe575b610af9906126e1565b610a28565b90610b0b610af9916126e1565b919050610af0565b909150610b1f8361266d565b50015411158387610ae9565b3461018f57600036600319011261018f576020600a54604051908152f35b3461018f576101c036600319011261018f5761018435801515810361018f576101a435600052600160205260ff60406000205416610f9357610b8e60043515156126a8565b60405190610b9b82612373565b6004358252602435602083015260443560408301526064356060830152608435608083015260a43560a083015260c43560c083015260e43560e08301526101043561010083015261012435610120830152610144356101408301526101643561016083015215156101808201526101a4356101a0820152336101c0820152426101e082015260043560005260006020526040600020815181556020820151600182015560408201516002820155606082015160038201556080820151600482015560a0820151600582015560c0820151600682015560e0820151600782015561010082015160088201556101208201516009820155610140820151600a820155610160820151600b820155600f6101e0600c83019361018081015115159460ff199560ff8783541691161790556101a0810151600d850155600e840160018060a01b036101c0830151166001600160601b0360a01b82541617905501519101556101a43560005260016020526001604060002091825416179055600254600160401b9081811015610f6757610d39816001610d5393016002556122af565b6004359082549060031b91821b91600019901b1916179055565b610d5e600a546126e1565b600a5560405190610d6e8261233c565b604051610d7a8161238f565b600e81526d73656e736f725f72656164696e6760901b6020820152825260043560208301526101a435604083015242606083015233608083015260085490811015610f6757806001610dcf920160085561266d565b610f7d5781518051906001600160401b038211610f6757610df083546122e6565b601f8111610f23575b50602090601f8311600114610eb657600493929160009183610eab575b50508160011b916000199060031b1c19161781555b6020830151600182015560408301516002820155606083015160038201550190608060018060a01b03910151166001600160601b0360a01b8254161790556040516101a43581523390602435907fa1683c365bb895156c792f0cdc3ce98763481d439593e48ff990c0102a8293a2602060043592a4602060405160018152f35b015190508580610e16565b908360005260206000209160005b601f1985168110610f0b575091839160019360049695601f19811610610ef2575b505050811b018155610e2b565b015160001960f88460031b161c19169055858080610ee5565b91926020600181928685015181550194019201610ec4565b836000526020600020601f840160051c810160208510610f60575b601f830160051c82018110610f54575050610df9565b60008155600101610f3e565b5080610f3e565b634e487b7160e01b600052604160045260246000fd5b634e487b7160e01b600052600060045260246000fd5b60405162461bcd60e51b815260206004820152601560248201527411185d1848185b1c9958591e481c9958dbdc991959605a1b6044820152606490fd5b3461018f57610fde36612507565b60025490916000805b83811061107d5750610ff8906128c3565b9260009160005b848110611014576040518061029688826121f0565b61101d816122af565b90549060031b1c80600052600060205260016040600020015484848210159182611072575b5050611058575b50611053906126e1565b610fff565b8461106b916102c661105394978a6128f5565b9390611049565b111590508489611042565b611086816122af565b90549060031b1c6000526000602052600160406000200154858482101591826110d4575b50506110bf575b6110ba906126e1565b610fe7565b906110cc6110ba916126e1565b9190506110b1565b1115905085876110aa565b3461018f57602036600319011261018f57600435600052600060205260406000208054906001810154600282015460038301546004840154600585015460068601546007870154600888015491600989015493600a8a015495600b8b015497600c8c015460ff1699600d8d01549b8d600160a01b6001900390600e0154169d600f01549e60405180608052526080516020015260805160400152608051606001526080516080015260805160a0015260805160c0015260805160e001526080516101000152608051610120015260805161014001526080516101600152151560805161018001526080516101a001526080516101c001526080516101e0015260805161020090f35b3461018f5761012036600319011261018f576044356001600160401b03811161018f576112189036906004016124b1565b6064356001600160401b03811161018f576112379036906004016124b1565b6084356001600160401b03811161018f576112569036906004016124b1565b61126360043515156126a8565b602435600052600060205260406000205415611790576040519161128683612357565b600435835260243560208401528360408401526060830152608082015260a43560a082015260c43560c082015260e43560e08201526101043561010082015233610120820152426101408201526004356000526006602052604060002091815183556020820151600184015560408201519283516001600160401b038111610f675761131560028301546122e6565b601f8111611749575b506020601f82116001146116da5781929394956000926116cf575b50508160011b916000199060031b1c19161760028201555b60608301519283516001600160401b038111610f675761137460038401546122e6565b601f8111611688575b506020601f821160011461161957819293949560009261160e575b50508160011b916000199060031b1c19161760038301555b60808101518051906001600160401b038211610f67576113d360048501546122e6565b601f81116115c7575b50602090601f8311600114611551579180600a949261014094600092611546575b50508160011b916000199060031b1c19161760048501555b60a0810151600585015560c0810151600685015560e0810151600785015561010081015160088501556009840160018060a01b03610120830151166001600160601b0360a01b8254161790550151910155600754600160401b811015610f6757610d39816001611488930160075561222b565b611493600c546126e1565b600c556114ed6040516114a58161233c565b6040516114b18161238f565b600b81526a61695f616e616c7973697360a81b6020820152815260043560208201526101043560408201524260608201523360808201526126f0565b61150260405191604083526040830190612471565b9061010435602082015233917ffd342b86ad56449c5bea6a6edb9b8f4f8d799e639b6a7a7e9d7988ebdbd1f15a6024359280600435930390a4602060405160018152f35b0151905087806113fd565b906004850160005260206000209160005b601f19851681106115af575092600a94926001926101409583601f19811610611596575b505050811b016004850155611415565b015160001960f88460031b161c19169055878080611586565b91926020600181928685015181550194019201611562565b600485016000526020600020601f840160051c810160208510611607575b601f830160051c820181106115fb5750506113dc565b600081556001016115e5565b50806115e5565b015190508580611398565b6003840160005260206000209060005b601f1984168110611670575060019394959683601f19811610611657575b505050811b0160038301556113b0565b015160001960f88460031b161c19169055858080611647565b9091602060018192858b015181550193019101611629565b600384016000526020600020601f830160051c8101602084106116c8575b601f830160051c820181106116bc57505061137d565b600081556001016116a6565b50806116a6565b015190508580611339565b6002830160005260206000209060005b601f1984168110611731575060019394959683601f19811610611718575b505050811b016002820155611351565b015160001960f88460031b161c19169055858080611708565b9091602060018192858b0151815501930191016116ea565b600283016000526020600020601f830160051c810160208410611789575b601f830160051c8201811061177d57505061131e565b60008155600101611767565b5080611767565b60405162461bcd60e51b815260206004820152601860248201527f53656e736f722072656164696e67206e6f7420666f756e6400000000000000006044820152606490fd5b3461018f57602036600319011261018f576004356001600160a01b038181169182900361018f57600954908116330361185557811561181e576001600160a01b03191617600955005b60405162461bcd60e51b815260206004820152600f60248201526e496e76616c6964206164647265737360881b6044820152606490fd5b60405162461bcd60e51b815260206004820152602260248201527f4f6e6c792061646d696e2063616e20706572666f726d2074686973206163746960448201526137b760f11b6064820152608490fd5b3461018f5761014036600319011261018f576064356001600160401b03811161018f576118d69036906004016124b1565b60c4359060ff8216820361018f5760e43591821515830361018f57610104356001600160401b03811161018f576119119036906004016124b1565b61191e60043515156126a8565b600360ff831611611df457602435600052600460205260ff60406000205416611da55760ff6040519261195084612320565b600435845260243560208501526044356040850152846060850152608435608085015260a43560a08501521660c083015283151560e0830152610100820152610124356101208201523361014082015242610160820152600435600052600360205260406000209080518255602081015160018301556040810151600283015560608101518051906001600160401b038211610f675781906119f560038601546122e6565b601f8111611d52575b50602090601f8311600114611ce057600092611cd5575b50508160011b916000199060031b1c19161760038301555b6080810151600483015560a081015160058301556006820160ff60c08301511681549061ff0060e0850151151560081b169161ffff1916171790556101008101518051906001600160401b038211610f6757611a8c60078501546122e6565b601f8111611c8e575b50602090601f8311600114611c18579180600a949261016094600092611c0d575b50508160011b916000199060031b1c19161760078501555b61012081015160088501556009840160018060a01b03610140830151166001600160601b0360a01b825416179055015191015560243560005260046020526040600020600160ff19825416179055600554600160401b811015610f6757610d39816001611b3e9301600555612278565b611b49600b546126e1565b600b55611ba5604051611b5b8161233c565b604051611b678161238f565b600d81526c19185a5b1e57da5b9cda59da1d609a1b6020820152815260043560208201526101243560408201524260608201523360808201526126f0565b611bba60405191608083526080830190612471565b9160a43560208301521515604082015261012435606082015233917fb5e4101ffd4bcda5a39962ba10a904d31a720c9bb8fd945f12c4dd8040fe1a646024359280600435930390a4602060405160018152f35b015190508880611ab6565b906007850160005260206000209160005b601f1985168110611c76575092600a94926001926101609583601f19811610611c5d575b505050811b016007850155611ace565b015160001960f88460031b161c19169055888080611c4d565b91926020600181928685015181550194019201611c29565b600785016000526020600020601f840160051c810160208510611cce575b601f830160051c82018110611cc2575050611a95565b60008155600101611cac565b5080611cac565b015190508680611a15565b9250600385016000526020600020906000935b601f1984168510611d37576001945083601f19811610611d1e575b505050811b016003830155611a2d565b015160001960f88460031b161c19169055868080611d0e565b81810151835560209485019460019093019290910190611cf3565b909150600385016000526020600020601f840160051c810160208510611d9e575b90849392915b601f830160051c82018110611d8f5750506119fe565b60008155859450600101611d79565b5080611d73565b60405162461bcd60e51b815260206004820152602160248201527f4461746120666f722074686973206461746520616c72656164792065786973746044820152607360f81b6064820152608490fd5b60405162461bcd60e51b815260206004820152601b60248201527f496e76616c6964206865616c746820726174696e672028302d332900000000006044820152606490fd5b3461018f57602036600319011261018f57602060043580600052600182527f3c8288360c897fd12f58ca9bb158e3a0a7785a50d64e88112c6a23fa391f1d6d60c060ff604060002054166040519360808552600e60808601526d73656e736f725f72656164696e6760901b60a08601526000868601526040850152151592836060820152a1604051908152f35b3461018f57602036600319011261018f57600554600435818111611f2f575b611eee816128c3565b90600080198401938411905b828110611f0f576040518061029686826121f0565b816102d157806102b5611f25611f2a9388612909565b612278565b611efa565b5080611ee5565b3461018f57602036600319011261018f576004356000526006602052602060406000208054906001810154611f6d600283016123cb565b91611f7a600382016123cb565b92611f87600483016123cb565b93600583015494611ff7600685015491611fe9600787015494611fdb600889015497600a60018060a01b0360098c0154169a01549a6040519e8f9e8f908152015260408d61016091829101528d0190612471565b908b820360608d0152612471565b9089820360808b0152612471565b9560a088015260c087015260e08601526101008501526101208401526101408301520390f35b3461018f5760208060031936011261018f57600754600435916000805b8381106120c6575061204b906128c3565b9260009060005b848110612067576040518061029688826121f0565b6120708161222b565b9054600391821b1c60005260068552826001604060002001541461209e575b50612099906126e1565b612052565b81936120bf916120b06120999461222b565b9054911b1c6102c6828a6128f5565b929061208f565b6120cf8161222b565b90549060031b1c6000526006835284600160406000200154146120fb575b6120f6906126e1565b61203a565b906121086120f6916126e1565b9190506120ed565b3461018f57602036600319011261018f5760043560055481101561018f576101bd602091612278565b3461018f57600036600319011261018f576020600c54604051908152f35b3461018f57602036600319011261018f5760043560075481101561018f576101bd60209161222b565b3461018f57602036600319011261018f576007546004358181116121e9575b6121a8816128c3565b90600080198401938411905b8281106121c9576040518061029686826121f0565b816102d157806102b56121df6121e49388612909565b61222b565b6121b4565b508061219f565b6020908160408183019282815285518094520193019160005b828110612217575050505090565b835185529381019392810192600101612209565b6007548110156122625760076000527fa66cc928b5edb82af9bd49922954155ab7b0942694bea4ce44661d9a8736c6880190600090565b634e487b7160e01b600052603260045260246000fd5b6005548110156122625760056000527f036b6384b5eca791c62761152d0c79bb0604c104a5fb6f4eb0703f3154bb3db00190600090565b6002548110156122625760026000527f405787fa12a823e0f2b7631cc41b3ba8828b3321ca811111fa75cd3aa3bb5ace0190600090565b90600182811c92168015612316575b602083101461230057565b634e487b7160e01b600052602260045260246000fd5b91607f16916122f5565b61018081019081106001600160401b03821117610f6757604052565b60a081019081106001600160401b03821117610f6757604052565b61016081019081106001600160401b03821117610f6757604052565b61020081019081106001600160401b03821117610f6757604052565b604081019081106001600160401b03821117610f6757604052565b90601f801991011681019081106001600160401b03821117610f6757604052565b90604051918260008254926123df846122e6565b90818452600194858116908160001461244e575060011461240b575b5050612409925003836123aa565b565b9093915060005260209081600020936000915b818310612436575050612409935082010138806123fb565b8554888401850152948501948794509183019161241e565b91505061240994506020925060ff191682840152151560051b82010138806123fb565b919082519283825260005b84811061249d575050826000602080949584010152601f8019910116010190565b60208183018101518483018201520161247c565b81601f8201121561018f578035906001600160401b038211610f6757604051926124e5601f8401601f1916602001856123aa565b8284526020838301011161018f57816000926020809301838601378301015290565b604090600319011261018f576004359060243590565b602080820190808352835180925260409283810182858560051b8401019601946000925b858410612552575050505050505090565b909192939495968580600192603f198582030187528a519061257c825160a0808452830190612471565b91838101518483015287810151888301526060808201519083015260809081878060a01b0391015116910152990194019401929594939190612541565b6020815281516020820152602082015160408201526040820151606082015260608201516125f5610180918260808501526101a0840190612471565b92608081015160a084015260a081015160c084015260ff60c08201511660e084015261264160e0820151151561010090818601528201519461012095601f198683030187870152612471565b93810151610140848101919091528101516001600160a01b031661016080850191909152015191015290565b600854811015612262576005906008600052027ff3f7a9fe364faab93b216da50a3214154f22a0a2b415b23a84c8169e8b636ee30190600090565b156126af57565b60405162461bcd60e51b815260206004820152600a602482015269125b9d985b1a5908125160b21b6044820152606490fd5b60001981146102d15760010190565b9060085491600160401b831015610f675761271260019384810160085561266d565b610f7d578151938451946001600160401b038611610f675761273483546122e6565b601f8111612822575b50602090601f87116001146127ba5795809160049596976000926127af575b5050600019600383901b1c191690821b1782555b60208401519082015560408301516002820155606083015160038201550190608060018060a01b03910151166001600160601b0360a01b825416179055565b01519050388061275c565b90601f1987169184600052816000209260005b81811061280c57509184939189600498999a94106127f3575b505050811b018255612770565b015160001960f88460031b161c191690553880806127e6565b82840151855593850193602093840193016127cd565b600084815260208120601f890160051c81019260208a10612863575b601f0160051c019184905b8381106128585750505061273d565b828155018490612849565b909250829061283e565b1561287457565b60405162461bcd60e51b815260206004820152601060248201526f149958dbdc99081b9bdd08199bdd5b9960821b6044820152606490fd5b6001600160401b038111610f675760051b60200190565b906128cd826128ac565b6128da60405191826123aa565b82815280926128eb601f19916128ac565b0190602036910137565b80518210156122625760209160051b010190565b919082039182116102d157565b6040519061292382612320565b816101606000918281528260208201528260408201526060808201528260808201528260a08201528260c08201528260e0820152606061010082015282610120820152826101408201520152565b612979612916565b50600081815260049160209183835260ff9160409280848420541615612ab2576005805493805b8581106129db57865162461bcd60e51b8152808a01899052600e60248201526d11185d19481b9bdd08199bdd5b9960921b6044820152606490fd5b6129e481612278565b9054600391821b1c8352808952878320906001820154878114612a1257505050612a0d906126e1565b6129a0565b919892509250600a9899949650612a48939550815199612a318b612320565b88548b528a015260028701549089015285016123cb565b6060870152830154608086015282015460a085015260068201549080821660c0860152600891821c16151560e0850152612a84600783016123cb565b61010085015281015461012084015260098101546001600160a01b0316610140840152015461016082015290565b835162461bcd60e51b815280870186905260156024820152744e6f206461746120666f722074686973206461746560581b6044820152606490fd5b90612af7826128ac565b604090612b06825191826123aa565b8381528093612b17601f19916128ac565b019160005b838110612b295750505050565b6020908251612b378161233c565b6060808252600084918183850152818785015283015260006080830152828601015201612b1c565b90604051612b6c8161233c565b60808193612b79816123cb565b8352600181015460208401526002810154604084015260038101546060840152600401546001600160a01b031691015256fea264697066735822122014c6a8189d95ef2d3e2635a835281b3b8fe6e8b71f0c194d1d38660ee7e688c864736f6c63430008140033",
  "linkReferences": {},
  "deployedLinkReferences": {}
}