{
  "_format": "hh-sol-artifact-1",
  "contractName": "SoilDataStore",
  "sourceName": "contracts/SoilDataStore.sol",
  "abi": [
    {
      "anonymous": false,
      "inputs": [
        {
          "indexed": true,
          "internalType": "uint256",
          "name": "id",
          "type": "uint256"
        },
        {
          "indexed": false,
          "internalType": "uint256",
          "name": "measuredAtVN",
          "type": "uint256"
        },
        {
          "indexed": false,
          "internalType": "uint256",
          "name": "temperatureC",
          "type": "uint256"
        },
        {
          "indexed": false,
          "internalType": "uint256",
          "name": "humidityPct",
          "type": "uint256"
        },
        {
          "indexed": false,
          "internalType": "uint256",
          "name": "conductivity",
          "type": "uint256"
        },
        {
          "indexed": false,
          "internalType": "uint256",
          "name": "phValue",
          "type": "uint256"
        },
        {
          "indexed": false,
          "internalType": "uint256",
          "name": "nitrogen",
          "type": "uint256"
        },
        {
          "indexed": false,
          "internalType": "uint256",
          "name": "phosphorus",
          "type": "uint256"
        },
        {
          "indexed": false,
          "internalType": "uint256",
          "name": "potassium",
          "type": "uint256"
        },
        {
          "indexed": false,
          "internalType": "uint256",
          "name": "salt",
          "type": "uint256"
        },
        {
          "indexed": false,
          "internalType": "address",
          "name": "reporter",
          "type": "address"
        }
      ],
      "name": "DataStored",
      "type": "event"
    },
    {
      "inputs": [],
      "name": "getCount",
      "outputs": [
        {
          "internalType": "uint256",
          "name": "",
          "type": "uint256"
        }
      ],
      "stateMutability": "view",
      "type": "function"
    },
    {
      "inputs": [
        {
          "internalType": "uint256",
          "name": "id",
          "type": "uint256"
        }
      ],
      "name": "getRecord",
      "outputs": [
        {
          "components": [
            {
              "internalType": "uint256",
              "name": "measuredAtVN",
              "type": "uint256"
            },
            {
              "internalType": "uint256",
              "name": "temperatureC",
              "type": "uint256"
            },
            {
              "internalType": "uint256",
              "name": "humidityPct",
              "type": "uint256"
            },
            {
              "internalType": "uint256",
              "name": "conductivity",
              "type": "uint256"
            },
            {
              "internalType": "uint256",
              "name": "phValue",
              "type": "uint256"
            },
            {
              "internalType": "uint256",
              "name": "nitrogen",
              "type": "uint256"
            },
            {
              "internalType": "uint256",
              "name": "phosphorus",
              "type": "uint256"
            },
            {
              "internalType": "uint256",
              "name": "potassium",
              "type": "uint256"
            },
            {
              "internalType": "uint256",
              "name": "salt",
              "type": "uint256"
            },
            {
              "internalType": "address",
              "name": "reporter",
              "type": "address"
            }
          ],
          "internalType": "struct SoilDataStore.SoilData",
          "name": "",
          "type": "tuple"
        }
      ],
      "stateMutability": "view",
      "type": "function"
    },
    {
      "inputs": [
        {
          "internalType": "uint256",
          "name": "startTime",
          "type": "uint256"
        },
        {
          "internalType": "uint256",
          "name": "endTime",
          "type": "uint256"
        }
      ],
      "name": "getRecordsByTimeRange",
      "outputs": [
        {
          "components": [
            {
              "internalType": "uint256",
              "name": "measuredAtVN",
              "type": "uint256"
            },
            {
              "internalType": "uint256",
              "name": "temperatureC",
              "type": "uint256"
            },
            {
              "internalType": "uint256",
              "name": "humidityPct",
              "type": "uint256"
            },
            {
              "internalType": "uint256",
              "name": "conductivity",
              "type": "uint256"
            },
            {
              "internalType": "uint256",
              "name": "phValue",
              "type": "uint256"
            },
            {
              "internalType": "uint256",
              "name": "nitrogen",
              "type": "uint256"
            },
            {
              "internalType": "uint256",
              "name": "phosphorus",
              "type": "uint256"
            },
            {
              "internalType": "uint256",
              "name": "potassium",
              "type": "uint256"
            },
            {
              "internalType": "uint256",
              "name": "salt",
              "type": "uint256"
            },
            {
              "internalType": "address",
              "name": "reporter",
              "type": "address"
            }
          ],
          "internalType": "struct SoilDataStore.SoilData[]",
          "name": "",
          "type": "tuple[]"
        }
      ],
      "stateMutability": "view",
      "type": "function"
    },
    {
      "inputs": [
        {
          "internalType": "uint256",
          "name": "",
          "type": "uint256"
        }
      ],
      "name": "records",
      "outputs": [
        {
          "internalType": "uint256",
          "name": "measuredAtVN",
          "type": "uint256"
        },
        {
          "internalType": "uint256",
          "name": "temperatureC",
          "type": "uint256"
        },
        {
          "internalType": "uint256",
          "name": "humidityPct",
          "type": "uint256"
        },
        {
          "internalType": "uint256",
          "name": "conductivity",
          "type": "uint256"
        },
        {
          "internalType": "uint256",
          "name": "phValue",
          "type": "uint256"
        },
        {
          "internalType": "uint256",
          "name": "nitrogen",
          "type": "uint256"
        },
        {
          "internalType": "uint256",
          "name": "phosphorus",
          "type": "uint256"
        },
        {
          "internalType": "uint256",
          "name": "potassium",
          "type": "uint256"
        },
        {
          "internalType": "uint256",
          "name": "salt",
          "type": "uint256"
        },
        {
          "internalType": "address",
          "name": "reporter",
          "type": "address"
        }
      ],
      "stateMutability": "view",
      "type": "function"
    },
    {
      "inputs": [
        {
          "internalType": "uint256",
          "name": "_measuredAtVN",
          "type": "uint256"
        },
        {
          "internalType": "uint256",
          "name": "_temperatureC",
          "type": "uint256"
        },
        {
          "internalType": "uint256",
          "name": "_humidityPct",
          "type": "uint256"
        },
        {
          "internalType": "uint256",
          "name": "_conductivity",
          "type": "uint256"
        },
        {
          "internalType": "uint256",
          "name": "_phValue",
          "type": "uint256"
        },
        {
          "internalType": "uint256",
          "name": "_nitrogen",
          "type": "uint256"
        },
        {
          "internalType": "uint256",
          "name": "_phosphorus",
          "type": "uint256"
        },
        {
          "internalType": "uint256",
          "name": "_potassium",
          "type": "uint256"
        },
        {
          "internalType": "uint256",
          "name": "_salt",
          "type": "uint256"
        }
      ],
      "name": "storeData",
      "outputs": [],
      "stateMutability": "nonpayable",
      "type": "function"
    }
  ],
  "bytecode": "0x608060405234801561001057600080fd5b50610e4f806100206000396000f3fe608060405234801561001057600080fd5b50600436106100575760003560e01c806303e9e6091461005c578063344610671461008c5780633f1efd25146100c5578063a87d942c146100f5578063fd3af66b14610113575b600080fd5b610076600480360381019061007191906107b1565b61012f565b60405161008391906108fa565b60405180910390f35b6100a660048036038101906100a191906107b1565b610263565b6040516100bc9a99989796959493929190610934565b60405180910390f35b6100df60048036038101906100da91906109d0565b6102e7565b6040516100ec9190610b8c565b60405180910390f35b6100fd61056f565b60405161010a9190610bae565b60405180910390f35b61012d60048036038101906101289190610bc9565b61057b565b005b61013761070d565b600080549050821061017e576040517f08c379a000000000000000000000000000000000000000000000000000000000815260040161017590610cf0565b60405180910390fd5b6000828154811061019257610191610d10565b5b90600052602060002090600a0201604051806101400160405290816000820154815260200160018201548152602001600282015481526020016003820154815260200160048201548152602001600582015481526020016006820154815260200160078201548152602001600882015481526020016009820160009054906101000a900473ffffffffffffffffffffffffffffffffffffffff1673ffffffffffffffffffffffffffffffffffffffff1673ffffffffffffffffffffffffffffffffffffffff16815250509050919050565b6000818154811061027357600080fd5b90600052602060002090600a02016000915090508060000154908060010154908060020154908060030154908060040154908060050154908060060154908060070154908060080154908060090160009054906101000a900473ffffffffffffffffffffffffffffffffffffffff1690508a565b60606000805b60008054905081101561037b57846000828154811061030f5761030e610d10565b5b90600052602060002090600a020160000154101580156103545750836000828154811061033f5761033e610d10565b5b90600052602060002090600a02016000015411155b1561036857818061036490610d6e565b9250505b808061037390610d6e565b9150506102ed565b5060008167ffffffffffffffff81111561039857610397610db6565b5b6040519080825280602002602001820160405280156103d157816020015b6103be61070d565b8152602001906001900390816103b65790505b5090506000805b6000805490508110156105625786600082815481106103fa576103f9610d10565b5b90600052602060002090600a0201600001541015801561043f5750856000828154811061042a57610429610d10565b5b90600052602060002090600a02016000015411155b1561054f576000818154811061045857610457610d10565b5b90600052602060002090600a0201604051806101400160405290816000820154815260200160018201548152602001600282015481526020016003820154815260200160048201548152602001600582015481526020016006820154815260200160078201548152602001600882015481526020016009820160009054906101000a900473ffffffffffffffffffffffffffffffffffffffff1673ffffffffffffffffffffffffffffffffffffffff1673ffffffffffffffffffffffffffffffffffffffff168152505083838151811061053557610534610d10565b5b6020026020010181905250818061054b90610d6e565b9250505b808061055a90610d6e565b9150506103d8565b5081935050505092915050565b60008080549050905090565b60006040518061014001604052808b81526020018a81526020018981526020018881526020018781526020018681526020018581526020018481526020018381526020013373ffffffffffffffffffffffffffffffffffffffff1681525090806001815401808255809150506001900390600052602060002090600a0201600090919091909150600082015181600001556020820151816001015560408201518160020155606082015181600301556080820151816004015560a0820151816005015560c0820151816006015560e0820151816007015561010082015181600801556101208201518160090160006101000a81548173ffffffffffffffffffffffffffffffffffffffff021916908373ffffffffffffffffffffffffffffffffffffffff160217905550505060016000805490506106b99190610de5565b7f77118f01cd65ba08c77b26b015aceb32890dc600d5203fe49a61c0a8c9ad9cff8a8a8a8a8a8a8a8a8a336040516106fa9a99989796959493929190610934565b60405180910390a2505050505050505050565b604051806101400160405280600081526020016000815260200160008152602001600081526020016000815260200160008152602001600081526020016000815260200160008152602001600073ffffffffffffffffffffffffffffffffffffffff1681525090565b600080fd5b6000819050919050565b61078e8161077b565b811461079957600080fd5b50565b6000813590506107ab81610785565b92915050565b6000602082840312156107c7576107c6610776565b5b60006107d58482850161079c565b91505092915050565b6107e78161077b565b82525050565b600073ffffffffffffffffffffffffffffffffffffffff82169050919050565b6000610818826107ed565b9050919050565b6108288161080d565b82525050565b6101408201600082015161084560008501826107de565b50602082015161085860208501826107de565b50604082015161086b60408501826107de565b50606082015161087e60608501826107de565b50608082015161089160808501826107de565b5060a08201516108a460a08501826107de565b5060c08201516108b760c08501826107de565b5060e08201516108ca60e08501826107de565b506101008201516108df6101008501826107de565b506101208201516108f461012085018261081f565b50505050565b600061014082019050610910600083018461082e565b92915050565b61091f8161077b565b82525050565b61092e8161080d565b82525050565b60006101408201905061094a600083018d610916565b610957602083018c610916565b610964604083018b610916565b610971606083018a610916565b61097e6080830189610916565b61098b60a0830188610916565b61099860c0830187610916565b6109a560e0830186610916565b6109b3610100830185610916565b6109c1610120830184610925565b9b9a5050505050505050505050565b600080604083850312156109e7576109e6610776565b5b60006109f58582860161079c565b9250506020610a068582860161079c565b9150509250929050565b600081519050919050565b600082825260208201905092915050565b6000819050602082019050919050565b61014082016000820151610a5360008501826107de565b506020820151610a6660208501826107de565b506040820151610a7960408501826107de565b506060820151610a8c60608501826107de565b506080820151610a9f60808501826107de565b5060a0820151610ab260a08501826107de565b5060c0820151610ac560c08501826107de565b5060e0820151610ad860e08501826107de565b50610100820151610aed6101008501826107de565b50610120820151610b0261012085018261081f565b50505050565b6000610b148383610a3c565b6101408301905092915050565b6000602082019050919050565b6000610b3982610a10565b610b438185610a1b565b9350610b4e83610a2c565b8060005b83811015610b7f578151610b668882610b08565b9750610b7183610b21565b925050600181019050610b52565b5085935050505092915050565b60006020820190508181036000830152610ba68184610b2e565b905092915050565b6000602082019050610bc36000830184610916565b92915050565b60008060008060008060008060006101208a8c031215610bec57610beb610776565b5b6000610bfa8c828d0161079c565b9950506020610c0b8c828d0161079c565b9850506040610c1c8c828d0161079c565b9750506060610c2d8c828d0161079c565b9650506080610c3e8c828d0161079c565b95505060a0610c4f8c828d0161079c565b94505060c0610c608c828d0161079c565b93505060e0610c718c828d0161079c565b925050610100610c838c828d0161079c565b9150509295985092959850929598565b600082825260208201905092915050565b7f496e76616c696420494400000000000000000000000000000000000000000000600082015250565b6000610cda600a83610c93565b9150610ce582610ca4565b602082019050919050565b60006020820190508181036000830152610d0981610ccd565b9050919050565b7f4e487b7100000000000000000000000000000000000000000000000000000000600052603260045260246000fd5b7f4e487b7100000000000000000000000000000000000000000000000000000000600052601160045260246000fd5b6000610d798261077b565b91507fffffffffffffffffffffffffffffffffffffffffffffffffffffffffffffffff8203610dab57610daa610d3f565b5b600182019050919050565b7f4e487b7100000000000000000000000000000000000000000000000000000000600052604160045260246000fd5b6000610df08261077b565b9150610dfb8361077b565b9250828203905081811115610e1357610e12610d3f565b5b9291505056fea2646970667358221220b65b1904600b62c86505cb023b4f2eccea39da831f62f1dc331e0e68246a845364736f6c63430008140033",
  "linkReferences": {},
  "deployedLinkReferences": {}
}