{
  "_format": "hh-sol-artifact-1",
  "contractName": "SoilDataStore",
  "sourceName": "contracts/SoilDataStore.sol",
  "abi": [
    {
      "anonymous": false,
      "inputs": [
        {
          "indexed": true,
          "internalType": "uint256",
          "name": "id",
          "type": "uint256"
        },
        {
          "indexed": true,
          "internalType": "uint256",
          "name": "dateTimestamp",
          "type": "uint256"
        },
        {
          "indexed": false,
          "internalType": "string",
          "name": "recommendedCrop",
          "type": "string"
        },
        {
          "indexed": false,
          "internalType": "uint256",
          "name": "soilHealthScore",
          "type": "uint256"
        },
        {
          "indexed": false,
          "internalType": "bool",
          "name": "isAnomalyDetected",
          "type": "bool"
        },
        {
          "indexed": false,
          "internalType": "address",
          "name": "reporter",
          "type": "address"
        }
      ],
      "name": "DailyInsightStored",
      "type": "event"
    },
    {
      "anonymous": false,
      "inputs": [
        {
          "indexed": true,
          "internalType": "uint256",
          "name": "id",
          "type": "uint256"
        },
        {
          "indexed": false,
          "internalType": "uint256",
          "name": "measuredAtVN",
          "type": "uint256"
        },
        {
          "indexed": false,
          "internalType": "uint256",
          "name": "soilTemperature",
          "type": "uint256"
        },
        {
          "indexed": false,
          "internalType": "uint256",
          "name": "soilMoisture",
          "type": "uint256"
        },
        {
          "indexed": false,
          "internalType": "uint256",
          "name": "conductivity",
          "type": "uint256"
        },
        {
          "indexed": false,
          "internalType": "uint256",
          "name": "phValue",
          "type": "uint256"
        },
        {
          "indexed": false,
          "internalType": "uint256",
          "name": "nitrogen",
          "type": "uint256"
        },
        {
          "indexed": false,
          "internalType": "uint256",
          "name": "phosphorus",
          "type": "uint256"
        },
        {
          "indexed": false,
          "internalType": "uint256",
          "name": "potassium",
          "type": "uint256"
        },
        {
          "indexed": false,
          "internalType": "uint256",
          "name": "salt",
          "type": "uint256"
        },
        {
          "indexed": false,
          "internalType": "uint256",
          "name": "airTemperature",
          "type": "uint256"
        },
        {
          "indexed": false,
          "internalType": "uint256",
          "name": "airHumidity",
          "type": "uint256"
        },
        {
          "indexed": false,
          "internalType": "uint256",
          "name": "isRaining",
          "type": "uint256"
        },
        {
          "indexed": false,
          "internalType": "bytes32",
          "name": "dataHash",
          "type": "bytes32"
        },
        {
          "indexed": false,
          "internalType": "address",
          "name": "reporter",
          "type": "address"
        }
      ],
      "name": "DataStored",
      "type": "event"
    },
    {
      "inputs": [
        {
          "internalType": "uint256",
          "name": "",
          "type": "uint256"
        }
      ],
      "name": "dailyInsightExists",
      "outputs": [
        {
          "internalType": "bool",
          "name": "",
          "type": "bool"
        }
      ],
      "stateMutability": "view",
      "type": "function"
    },
    {
      "inputs": [
        {
          "internalType": "uint256",
          "name": "",
          "type": "uint256"
        }
      ],
      "name": "dailyInsights",
      "outputs": [
        {
          "internalType": "uint256",
          "name": "id",
          "type": "uint256"
        },
        {
          "internalType": "uint256",
          "name": "dateTimestamp",
          "type": "uint256"
        },
        {
          "internalType": "uint256",
          "name": "sampleCount",
          "type": "uint256"
        },
        {
          "internalType": "string",
          "name": "recommendedCrop",
          "type": "string"
        },
        {
          "internalType": "uint256",
          "name": "confidence",
          "type": "uint256"
        },
        {
          "internalType": "uint256",
          "name": "soilHealthScore",
          "type": "uint256"
        },
        {
          "internalType": "uint8",
          "name": "healthRating",
          "type": "uint8"
        },
        {
          "internalType": "bool",
          "name": "isAnomalyDetected",
          "type": "bool"
        },
        {
          "internalType": "string",
          "name": "recommendations",
          "type": "string"
        },
        {
          "internalType": "bytes32",
          "name": "recordHash",
          "type": "bytes32"
        },
        {
          "internalType": "address",
          "name": "reporter",
          "type": "address"
        }
      ],
      "stateMutability": "view",
      "type": "function"
    },
    {
      "inputs": [],
      "name": "getCount",
      "outputs": [
        {
          "internalType": "uint256",
          "name": "",
          "type": "uint256"
        }
      ],
      "stateMutability": "view",
      "type": "function"
    },
    {
      "inputs": [
        {
          "internalType": "uint256",
          "name": "id",
          "type": "uint256"
        }
      ],
      "name": "getDailyInsight",
      "outputs": [
        {
          "components": [
            {
              "internalType": "uint256",
              "name": "id",
              "type": "uint256"
            },
            {
              "internalType": "uint256",
              "name": "dateTimestamp",
              "type": "uint256"
            },
            {
              "internalType": "uint256",
              "name": "sampleCount",
              "type": "uint256"
            },
            {
              "internalType": "string",
              "name": "recommendedCrop",
              "type": "string"
            },
            {
              "internalType": "uint256",
              "name": "confidence",
              "type": "uint256"
            },
            {
              "internalType": "uint256",
              "name": "soilHealthScore",
              "type": "uint256"
            },
            {
              "internalType": "uint8",
              "name": "healthRating",
              "type": "uint8"
            },
            {
              "internalType": "bool",
              "name": "isAnomalyDetected",
              "type": "bool"
            },
            {
              "internalType": "string",
              "name": "recommendations",
              "type": "string"
            },
            {
              "internalType": "bytes32",
              "name": "recordHash",
              "type": "bytes32"
            },
            {
              "internalType": "address",
              "name": "reporter",
              "type": "address"
            }
          ],
          "internalType": "struct SoilDataStore.DailyInsight",
          "name": "",
          "type": "tuple"
        }
      ],
      "stateMutability": "view",
      "type": "function"
    },
    {
      "inputs": [],
      "name": "getDailyInsightCount",
      "outputs": [
        {
          "internalType": "uint256",
          "name": "",
          "type": "uint256"
        }
      ],
      "stateMutability": "view",
      "type": "function"
    },
    {
      "inputs": [
        {
          "internalType": "uint256",
          "name": "startDate",
          "type": "uint256"
        },
        {
          "internalType": "uint256",
          "name": "endDate",
          "type": "uint256"
        }
      ],
      "name": "getDailyInsightsByDateRange",
      "outputs": [
        {
          "components": [
            {
              "internalType": "uint256",
              "name": "id",
              "type": "uint256"
            },
            {
              "internalType": "uint256",
              "name": "dateTimestamp",
              "type": "uint256"
            },
            {
              "internalType": "uint256",
              "name": "sampleCount",
              "type": "uint256"
            },
            {
              "internalType": "string",
              "name": "recommendedCrop",
              "type": "string"
            },
            {
              "internalType": "uint256",
              "name": "confidence",
              "type": "uint256"
            },
            {
              "internalType": "uint256",
              "name": "soilHealthScore",
              "type": "uint256"
            },
            {
              "internalType": "uint8",
              "name": "healthRating",
              "type": "uint8"
            },
            {
              "internalType": "bool",
              "name": "isAnomalyDetected",
              "type": "bool"
            },
            {
              "internalType": "string",
              "name": "recommendations",
              "type": "string"
            },
            {
              "internalType": "bytes32",
              "name": "recordHash",
              "type": "bytes32"
            },
            {
              "internalType": "address",
              "name": "reporter",
              "type": "address"
            }
          ],
          "internalType": "struct SoilDataStore.DailyInsight[]",
          "name": "",
          "type": "tuple[]"
        }
      ],
      "stateMutability": "view",
      "type": "function"
    },
    {
      "inputs": [],
      "name": "getLatestDailyInsight",
      "outputs": [
        {
          "components": [
            {
              "internalType": "uint256",
              "name": "id",
              "type": "uint256"
            },
            {
              "internalType": "uint256",
              "name": "dateTimestamp",
              "type": "uint256"
            },
            {
              "internalType": "uint256",
              "name": "sampleCount",
              "type": "uint256"
            },
            {
              "internalType": "string",
              "name": "recommendedCrop",
              "type": "string"
            },
            {
              "internalType": "uint256",
              "name": "confidence",
              "type": "uint256"
            },
            {
              "internalType": "uint256",
              "name": "soilHealthScore",
              "type": "uint256"
            },
            {
              "internalType": "uint8",
              "name": "healthRating",
              "type": "uint8"
            },
            {
              "internalType": "bool",
              "name": "isAnomalyDetected",
              "type": "bool"
            },
            {
              "internalType": "string",
              "name": "recommendations",
              "type": "string"
            },
            {
              "internalType": "bytes32",
              "name": "recordHash",
              "type": "bytes32"
            },
            {
              "internalType": "address",
              "name": "reporter",
              "type": "address"
            }
          ],
          "internalType": "struct SoilDataStore.DailyInsight",
          "name": "",
          "type": "tuple"
        }
      ],
      "stateMutability": "view",
      "type": "function"
    },
    {
      "inputs": [
        {
          "internalType": "uint256",
          "name": "id",
          "type": "uint256"
        }
      ],
      "name": "getRecord",
      "outputs": [
        {
          "components": [
            {
              "internalType": "uint256",
              "name": "id",
              "type": "uint256"
            },
            {
              "internalType": "uint256",
              "name": "measuredAtVN",
              "type": "uint256"
            },
            {
              "internalType": "uint256",
              "name": "soilTemperature",
              "type": "uint256"
            },
            {
              "internalType": "uint256",
              "name": "soilMoisture",
              "type": "uint256"
            },
            {
              "internalType": "uint256",
              "name": "conductivity",
              "type": "uint256"
            },
            {
              "internalType": "uint256",
              "name": "phValue",
              "type": "uint256"
            },
            {
              "internalType": "uint256",
              "name": "nitrogen",
              "type": "uint256"
            },
            {
              "internalType": "uint256",
              "name": "phosphorus",
              "type": "uint256"
            },
            {
              "internalType": "uint256",
              "name": "potassium",
              "type": "uint256"
            },
            {
              "internalType": "uint256",
              "name": "salt",
              "type": "uint256"
            },
            {
              "internalType": "uint256",
              "name": "airTemperature",
              "type": "uint256"
            },
            {
              "internalType": "uint256",
              "name": "airHumidity",
              "type": "uint256"
            },
            {
              "internalType": "uint256",
              "name": "isRaining",
              "type": "uint256"
            },
            {
              "internalType": "bytes32",
              "name": "dataHash",
              "type": "bytes32"
            },
            {
              "internalType": "address",
              "name": "reporter",
              "type": "address"
            }
          ],
          "internalType": "struct SoilDataStore.SoilData",
          "name": "",
          "type": "tuple"
        }
      ],
      "stateMutability": "view",
      "type": "function"
    },
    {
      "inputs": [
        {
          "internalType": "uint256",
          "name": "startTime",
          "type": "uint256"
        },
        {
          "internalType": "uint256",
          "name": "endTime",
          "type": "uint256"
        }
      ],
      "name": "getRecordsByTimeRange",
      "outputs": [
        {
          "components": [
            {
              "internalType": "uint256",
              "name": "id",
              "type": "uint256"
            },
            {
              "internalType": "uint256",
              "name": "measuredAtVN",
              "type": "uint256"
            },
            {
              "internalType": "uint256",
              "name": "soilTemperature",
              "type": "uint256"
            },
            {
              "internalType": "uint256",
              "name": "soilMoisture",
              "type": "uint256"
            },
            {
              "internalType": "uint256",
              "name": "conductivity",
              "type": "uint256"
            },
            {
              "internalType": "uint256",
              "name": "phValue",
              "type": "uint256"
            },
            {
              "internalType": "uint256",
              "name": "nitrogen",
              "type": "uint256"
            },
            {
              "internalType": "uint256",
              "name": "phosphorus",
              "type": "uint256"
            },
            {
              "internalType": "uint256",
              "name": "potassium",
              "type": "uint256"
            },
            {
              "internalType": "uint256",
              "name": "salt",
              "type": "uint256"
            },
            {
              "internalType": "uint256",
              "name": "airTemperature",
              "type": "uint256"
            },
            {
              "internalType": "uint256",
              "name": "airHumidity",
              "type": "uint256"
            },
            {
              "internalType": "uint256",
              "name": "isRaining",
              "type": "uint256"
            },
            {
              "internalType": "bytes32",
              "name": "dataHash",
              "type": "bytes32"
            },
            {
              "internalType": "address",
              "name": "reporter",
              "type": "address"
            }
          ],
          "internalType": "struct SoilDataStore.SoilData[]",
          "name": "",
          "type": "tuple[]"
        }
      ],
      "stateMutability": "view",
      "type": "function"
    },
    {
      "inputs": [
        {
          "internalType": "uint256",
          "name": "",
          "type": "uint256"
        }
      ],
      "name": "records",
      "outputs": [
        {
          "internalType": "uint256",
          "name": "id",
          "type": "uint256"
        },
        {
          "internalType": "uint256",
          "name": "measuredAtVN",
          "type": "uint256"
        },
        {
          "internalType": "uint256",
          "name": "soilTemperature",
          "type": "uint256"
        },
        {
          "internalType": "uint256",
          "name": "soilMoisture",
          "type": "uint256"
        },
        {
          "internalType": "uint256",
          "name": "conductivity",
          "type": "uint256"
        },
        {
          "internalType": "uint256",
          "name": "phValue",
          "type": "uint256"
        },
        {
          "internalType": "uint256",
          "name": "nitrogen",
          "type": "uint256"
        },
        {
          "internalType": "uint256",
          "name": "phosphorus",
          "type": "uint256"
        },
        {
          "internalType": "uint256",
          "name": "potassium",
          "type": "uint256"
        },
        {
          "internalType": "uint256",
          "name": "salt",
          "type": "uint256"
        },
        {
          "internalType": "uint256",
          "name": "airTemperature",
          "type": "uint256"
        },
        {
          "internalType": "uint256",
          "name": "airHumidity",
          "type": "uint256"
        },
        {
          "internalType": "uint256",
          "name": "isRaining",
          "type": "uint256"
        },
        {
          "internalType": "bytes32",
          "name": "dataHash",
          "type": "bytes32"
        },
        {
          "internalType": "address",
          "name": "reporter",
          "type": "address"
        }
      ],
      "stateMutability": "view",
      "type": "function"
    },
    {
      "inputs": [
        {
          "internalType": "uint256",
          "name": "_id",
          "type": "uint256"
        },
        {
          "internalType": "uint256",
          "name": "_dateTimestamp",
          "type": "uint256"
        },
        {
          "internalType": "uint256",
          "name": "_sampleCount",
          "type": "uint256"
        },
        {
          "internalType": "string",
          "name": "_recommendedCrop",
          "type": "string"
        },
        {
          "internalType": "uint256",
          "name": "_confidence",
          "type": "uint256"
        },
        {
          "internalType": "uint256",
          "name": "_soilHealthScore",
          "type": "uint256"
        },
        {
          "internalType": "uint8",
          "name": "_healthRating",
          "type": "uint8"
        },
        {
          "internalType": "bool",
          "name": "_isAnomalyDetected",
          "type": "bool"
        },
        {
          "internalType": "string",
          "name": "_recommendations",
          "type": "string"
        },
        {
          "internalType": "bytes32",
          "name": "_recordHash",
          "type": "bytes32"
        }
      ],
      "name": "storeDailyInsight",
      "outputs": [],
      "stateMutability": "nonpayable",
      "type": "function"
    },
    {
      "inputs": [
        {
          "internalType": "uint256",
          "name": "_measuredAtVN",
          "type": "uint256"
        },
        {
          "internalType": "uint256",
          "name": "_soilTemperature",
          "type": "uint256"
        },
        {
          "internalType": "uint256",
          "name": "_soilMoisture",
          "type": "uint256"
        },
        {
          "internalType": "uint256",
          "name": "_conductivity",
          "type": "uint256"
        },
        {
          "internalType": "uint256",
          "name": "_phValue",
          "type": "uint256"
        },
        {
          "internalType": "uint256",
          "name": "_nitrogen",
          "type": "uint256"
        },
        {
          "internalType": "uint256",
          "name": "_phosphorus",
          "type": "uint256"
        },
        {
          "internalType": "uint256",
          "name": "_potassium",
          "type": "uint256"
        },
        {
          "internalType": "uint256",
          "name": "_salt",
          "type": "uint256"
        },
        {
          "internalType": "uint256",
          "name": "_airTemperature",
          "type": "uint256"
        },
        {
          "internalType": "uint256",
          "name": "_airHumidity",
          "type": "uint256"
        },
        {
          "internalType": "uint256",
          "name": "_isRaining",
          "type": "uint256"
        }
      ],
      "name": "storeData",
      "outputs": [],
      "stateMutability": "nonpayable",
      "type": "function"
    },
    {
      "inputs": [
        {
          "internalType": "uint256",
          "name": "_id",
          "type": "uint256"
        },
        {
          "internalType": "uint256",
          "name": "_measuredAtVN",
          "type": "uint256"
        },
        {
          "internalType": "uint256",
          "name": "_soilTemperature",
          "type": "uint256"
        },
        {
          "internalType": "uint256",
          "name": "_soilMoisture",
          "type": "uint256"
        },
        {
          "internalType": "uint256",
          "name": "_conductivity",
          "type": "uint256"
        },
        {
          "internalType": "uint256",
          "name": "_phValue",
          "type": "uint256"
        },
        {
          "internalType": "uint256",
          "name": "_nitrogen",
          "type": "uint256"
        },
        {
          "internalType": "uint256",
          "name": "_phosphorus",
          "type": "uint256"
        },
        {
          "internalType": "uint256",
          "name": "_potassium",
          "type": "uint256"
        },
        {
          "internalType": "uint256",
          "name": "_salt",
          "type": "uint256"
        },
        {
          "internalType": "uint256",
          "name": "_airTemperature",
          "type": "uint256"
        },
        {
          "internalType": "uint256",
          "name": "_airHumidity",
          "type": "uint256"
        },
        {
          "internalType": "bool",
          "name": "_isRaining",
          "type": "bool"
        },
        {
          "internalType": "bytes32",
          "name": "_dataHash",
          "type": "bytes32"
        }
      ],
      "name": "storeSensorReading",
      "outputs": [],
      "stateMutability": "nonpayable",
      "type": "function"
    }
  ],
  "bytecode": "0x6080806040523461001657611796908161001c8239f35b600080fdfe6080604052600436101561001257600080fd5b60003560e01c806303e9e609146110b55780633446106714610fd95780633f1efd2514610e4d5780636c9b5ee41461095a578063709a8753146108d757806395fdecbc1461067b578063a492520a1461064a578063a68da8441461056f578063a87d942c14610551578063c941812c14610501578063db9e45ef14610279578063dc4638d5146100ce5763eef9b778146100ab57600080fd5b346100c95760003660031901126100c9576020600154604051908152f35b600080fd5b346100c9576100dc366111eb565b600180549092600092835b83811061022557506100f8846115f5565b93610106604051958661123b565b808552610115601f19916115f5565b0160005b81811061020e57505060009160005b848110610192578587604051906020808301818452845180915260408401918060408360051b8701019601926000905b8382106101655786880387f35b90919293948380610181839a603f198b820301865289516112f4565b999701959493919091019101610158565b818761019d83611390565b5001541015806101f8575b6101bb575b6101b6906115e6565b610128565b926101f06101b6916101d56101cf87611390565b5061154e565b6101df828a61160d565b526101ea818961160d565b506115e6565b9390506101ad565b50828761020483611390565b50015411156101a8565b6020906102196114c1565b82828901015201610119565b828661023083611390565b500154101580610263575b61024e575b610249906115e6565b6100e7565b9361025b610249916115e6565b949050610240565b50818661026f83611390565b500154111561023b565b346100c9576101803660031901126100c95761016435156104fa5760015b60ff604051916102a68361121e565b60008352600435602084015260243560408401526044356060840152606435608084015260843560a084015260a43560c084015260c43560e084015260e4356101008401526101043561012084015261012435610140840152610144356101608401521661018082015260006101a0820152336101c0820152600054600160401b8110156104e45780600161033e920160005561119d565b6104ce57600e90825181556020830151600182015560408301516002820155606083015160038201556080830151600482015560a0830151600582015560c0830151600682015560e0830151600782015561010083015160088201556101208301516009820155610140830151600a820155610160830151600b820155610180830151600c8201556101a0830151600d82015501906101c060018060a01b03910151166001600160601b0360a01b825416179055600054806000198101116104b857610164351561049e576000805160206117418339815191526101c06001925b60ff604051946004358652602435602087015260443560408701526064356060870152608435608087015260a43560a087015260c43560c087015260e43560e0870152610104356101008701526101243561012087015261014435610140870152166101608501526000610180850152336101a08501526000190192a2005b6000805160206117418339815191526101c060009261041f565b634e487b7160e01b600052601160045260246000fd5b634e487b7160e01b600052600060045260246000fd5b634e487b7160e01b600052604160045260246000fd5b6000610297565b346100c95760203660031901126100c95761054d6105396101cf6004356105266114c1565b506105346001548210611515565b611390565b6040519182916020835260208301906112f4565b0390f35b346100c95760003660031901126100c9576020600054604051908152f35b346100c95760203660031901126100c9576004356001548110156100c95761059690611390565b50805460018201549160028101546106396105b36003840161141b565b60048401549060ff600586015460068701549061060d6105d560078a0161141b565b9460088a015499600960018060a01b0391015416986040519c8d9c8d5260208d015260408c01526101608060608d01528b01906112b4565b9460808a015260a089015281811660c089015260081c16151560e08701528582036101008701526112b4565b916101208401526101408301520390f35b346100c95760203660031901126100c9576004356000526002602052602060ff604060002054166040519015158152f35b346100c9576101c03660031901126100c95761018435151561018435036100c95761018435156108d05760015b60ff604051916106b78361121e565b6004358352602435602084015260443560408401526064356060840152608435608084015260a43560a084015260c43560c084015260e43560e084015261010435610100840152610124356101208401526101443561014084015261016435610160840152166101808201526101a4356101a0820152336101c0820152600054600160401b8110156104e457806001610753920160005561119d565b6104ce57600e90825181556020830151600182015560408301516002820155606083015160038201556080830151600482015560a0830151600582015560c0830151600682015560e0830151600782015561010083015160088201556101208301516009820155610140830151600a820155610160830151600b820155610180830151600c8201556101a0830151600d82015501906101c060018060a01b03910151166001600160601b0360a01b825416179055600054806000198101116104b85761018435156108b6576000805160206117418339815191526101c06001925b60ff60405194602435865260443560208701526064356040870152608435606087015260a435608087015260c43560a087015260e43560c08701526101043560e0870152610124356101008701526101443561012087015261016435610140870152166101608501526101a435610180850152336101a08501526000190192a2005b6000805160206117418339815191526101c0600092610834565b60006106a8565b346100c95760003660031901126100c9576108f06114c1565b5060015480156109155760001981019081116104b8576105396101cf61054d92611390565b60405162461bcd60e51b815260206004820152601b60248201527f4e6f206461696c7920696e73696768747320617661696c61626c6500000000006044820152606490fd5b346100c957610140806003193601126100c95760643567ffffffffffffffff81116100c95761098d90369060040161125d565b60c4359160ff83168093036100c95760e4359283151584036100c9576101043567ffffffffffffffff81116100c9576109ca90369060040161125d565b60038211610e1057602435600052600260205260ff60406000205416610db857604051916109f783611201565b600435835260208301916024358352604084019060443582526060850192878452608435608087015260a43560a087015260c086015287151560e0860152610100850152610124356101208501523385850152600154600160401b8110156104e457806001610a699201600155611390565b9390936104ce57845184555160018401555160028301555180519067ffffffffffffffff82116104e4578190610aa260038501546113e1565b601f8111610d65575b50602090601f8311600114610cf357600092610ce8575b50508160011b916000199060031b1c19161760038201555b6080820151600482015560a082015160058201556006810160ff60c08401511681549061ff0060e0860151151560081b169161ffff19161717905561010082015180519067ffffffffffffffff82116104e457610b3a60078401546113e1565b601f8111610ca1575b50602090601f8311600114610c2e57600993929160009183610c23575b50508160011b916000199060031b1c19161760078201555b6101208301516008820155019160018060a01b03910151166001600160601b0360a01b82541617905560243560005260026020526040600020600160ff198254161790556001549060001982019182116104b8577fa1396011014845048a9d54b1dfeea998c990052a143250ea773746c65c318ae490610c03604051916080835260808301906112b4565b9360a43560208301521515604082015233606082015280602435940390a3005b015190508880610b60565b906007840160005260206000209160005b601f1985168110610c89575091839160019360099695601f19811610610c70575b505050811b016007820155610b78565b015160001960f88460031b161c19169055888080610c60565b91926020600181928685015181550194019201610c3f565b600784016000526020600020601f840160051c810160208510610ce1575b601f830160051c82018110610cd5575050610b43565b60008155600101610cbf565b5080610cbf565b015190508780610ac2565b9250600384016000526020600020906000935b601f1984168510610d4a576001945083601f19811610610d31575b505050811b016003820155610ada565b015160001960f88460031b161c19169055878080610d21565b81810151835560209485019460019093019290910190610d06565b909150600384016000526020600020601f840160051c810160208510610db1575b90849392915b601f830160051c82018110610da2575050610aab565b60008155859450600101610d8c565b5080610d86565b60405162461bcd60e51b815260206004820152602a60248201527f4461696c7920696e736967687420666f722074686973206461746520616c72656044820152696164792065786973747360b01b6064820152608490fd5b60405162461bcd60e51b8152602060048201526015602482015274496e76616c6964206865616c746820726174696e6760581b6044820152606490fd5b346100c957610e5b366111eb565b90600091600091600054925b838110610f7c5750610e78846115f5565b93610e86604051958661123b565b808552610e95601f19916115f5565b0160005b818110610f6557505060009160005b848110610efb576040805160208082528851818301819052818a019383019160005b828110610ed75784840385f35b909192826101e082610eec6001948a516110fc565b01960191019492919094610eca565b610f048161119d565b50828460018093015410159182610f4d575b5050610f2b575b610f26906115e6565b610ea8565b92610f45610f26916101d5610f3f8761119d565b50611690565b939050610f1d565b909150610f598361119d565b50015411158288610f16565b602090610f70611621565b82828901015201610e99565b610f858161119d565b50838360018093015410159182610fc1575b5050610fac575b610fa7906115e6565b610e67565b93610fb9610fa7916115e6565b949050610f9e565b909150610fcd8361119d565b50015411158387610f97565b346100c95760203660031901126100c9576004356000548110156100c9576110009061119d565b508054600182015491600281015460038201546004830154600584015460068501546007860154600887015491600988015493600a89015495600b8a015497600c8b015499600d8c01549b600160a01b6001900390600e0154169c6040519e8f91825260208201526040015260608d015260808c015260a08b015260c08a015260e08901526101008801526101208701526101408601526101608501526101808401526101a08301526101c08201526101e090f35b346100c95760203660031901126100c9576101e06110ed610f3f6004356110da611621565b506110e86000548210611515565b61119d565b6110fa60405180926110fc565bf35b805182526020810151602083015260408101516040830152606081015160608301526080810151608083015260a081015160a083015260c081015160c083015260e081015160e0830152610100808201519083015261012080820151908301526101408082015190830152610160808201519083015261018080820151908301526101a080820151908301526101c0908160018060a01b0391015116910152565b9060009182548110156111d757600f90838052027f290decd9548b62a8d60345a988386fc84ba6bc95484008f6362f93160ef3e563019190565b634e487b7160e01b83526032600452602483fd5b60409060031901126100c9576004359060243590565b610160810190811067ffffffffffffffff8211176104e457604052565b6101e0810190811067ffffffffffffffff8211176104e457604052565b90601f8019910116810190811067ffffffffffffffff8211176104e457604052565b81601f820112156100c95780359067ffffffffffffffff82116104e45760405192611292601f8401601f19166020018561123b565b828452602083830101116100c957816000926020809301838601378301015290565b919082519283825260005b8481106112e0575050826000602080949584010152601f8019910116010190565b6020818301810151848301820152016112bf565b9081518152602082015160208201526040820151604082015261136a61132960608401516101608060608601528401906112b4565b6080840151608084015260a084015160a084015260ff60c08501511660c084015260e0840151151560e08401526101008085015190848303908501526112b4565b6101208084015190830152610140928301516001600160a01b0316929091019190915290565b6001548110156113cb57600a906001600052027fb10e2d527612073b26eecdfd717e6a320cf44b4afac2b0732d9fcbe2b7fa0cf60190600090565b634e487b7160e01b600052603260045260246000fd5b90600182811c92168015611411575b60208310146113fb57565b634e487b7160e01b600052602260045260246000fd5b91607f16916113f0565b906040519182600082549261142f846113e1565b90818452600194858116908160001461149e575060011461145b575b50506114599250038361123b565b565b9093915060005260209081600020936000915b8183106114865750506114599350820101388061144b565b8554888401850152948501948794509183019161146e565b91505061145994506020925060ff191682840152151560051b820101388061144b565b604051906114ce82611201565b816101406000918281528260208201528260408201526060808201528260808201528260a08201528260c08201528260e08201526060610100820152826101208201520152565b1561151c57565b60405162461bcd60e51b815260206004820152600a602482015269125b9d985b1a5908125160b21b6044820152606490fd5b9060405161155b81611201565b61014081938054835260018101546020840152600281015460408401526115846003820161141b565b606084015260048101546080840152600581015460a084015260ff600682015481811660c086015260081c16151560e08401526115c36007820161141b565b6101008401526008810154610120840152600901546001600160a01b0316910152565b60001981146104b85760010190565b67ffffffffffffffff81116104e45760051b60200190565b80518210156113cb5760209160051b010190565b6040519061162e8261121e565b816101c06000918281528260208201528260408201528260608201528260808201528260a08201528260c08201528260e08201528261010082015282610120820152826101408201528261016082015282610180820152826101a08201520152565b9060405161169d8161121e565b8254815260018301546020820152600283015460408201526003830154606082015260048301546080820152600583015460a0820152600683015460c0820152600783015460e082015260088301546101008201526009830154610120820152600a830154610140820152600b830154610160820152600c830154610180820152600d8301546101a0820152600e909201546001600160a01b03166101c083015256fe5998c32cea659aabe81fffc8d2ae04c3c650461f6a749da611a233a900499a66a264697066735822122096597766f7e14a1b21406a4d710573fbb229ceac876a00ba571468265e59958764736f6c63430008140033",
  "linkReferences": {},
  "deployedLinkReferences": {}
}