{
  "_format": "hh-sol-artifact-1",
  "contractName": "SoilDataStore",
  "sourceName": "contracts/SoilDataStore.sol",
  "abi": [
    {
      "anonymous": false,
      "inputs": [
        {
          "indexed": true,
          "internalType": "uint256",
          "name": "id",
          "type": "uint256"
        },
        {
          "indexed": false,
          "internalType": "uint256",
          "name": "timestamp",
          "type": "uint256"
        },
        {
          "indexed": false,
          "internalType": "uint256",
          "name": "moisture",
          "type": "uint256"
        },
        {
          "indexed": false,
          "internalType": "uint256",
          "name": "pH",
          "type": "uint256"
        },
        {
          "indexed": false,
          "internalType": "uint256",
          "name": "temperature",
          "type": "uint256"
        },
        {
          "indexed": false,
          "internalType": "uint256",
          "name": "humidity",
          "type": "uint256"
        },
        {
          "indexed": false,
          "internalType": "address",
          "name": "reporter",
          "type": "address"
        }
      ],
      "name": "DataStored",
      "type": "event"
    },
    {
      "inputs": [],
      "name": "getCount",
      "outputs": [
        {
          "internalType": "uint256",
          "name": "",
          "type": "uint256"
        }
      ],
      "stateMutability": "view",
      "type": "function"
    },
    {
      "inputs": [
        {
          "internalType": "uint256",
          "name": "id",
          "type": "uint256"
        }
      ],
      "name": "getRecord",
      "outputs": [
        {
          "components": [
            {
              "internalType": "uint256",
              "name": "timestamp",
              "type": "uint256"
            },
            {
              "internalType": "uint256",
              "name": "moisture",
              "type": "uint256"
            },
            {
              "internalType": "uint256",
              "name": "pH",
              "type": "uint256"
            },
            {
              "internalType": "uint256",
              "name": "temperature",
              "type": "uint256"
            },
            {
              "internalType": "uint256",
              "name": "humidity",
              "type": "uint256"
            },
            {
              "internalType": "address",
              "name": "reporter",
              "type": "address"
            }
          ],
          "internalType": "struct SoilDataStore.SoilData",
          "name": "",
          "type": "tuple"
        }
      ],
      "stateMutability": "view",
      "type": "function"
    },
    {
      "inputs": [
        {
          "internalType": "uint256",
          "name": "startTime",
          "type": "uint256"
        },
        {
          "internalType": "uint256",
          "name": "endTime",
          "type": "uint256"
        }
      ],
      "name": "getRecordsByTimeRange",
      "outputs": [
        {
          "components": [
            {
              "internalType": "uint256",
              "name": "timestamp",
              "type": "uint256"
            },
            {
              "internalType": "uint256",
              "name": "moisture",
              "type": "uint256"
            },
            {
              "internalType": "uint256",
              "name": "pH",
              "type": "uint256"
            },
            {
              "internalType": "uint256",
              "name": "temperature",
              "type": "uint256"
            },
            {
              "internalType": "uint256",
              "name": "humidity",
              "type": "uint256"
            },
            {
              "internalType": "address",
              "name": "reporter",
              "type": "address"
            }
          ],
          "internalType": "struct SoilDataStore.SoilData[]",
          "name": "",
          "type": "tuple[]"
        }
      ],
      "stateMutability": "view",
      "type": "function"
    },
    {
      "inputs": [
        {
          "internalType": "uint256",
          "name": "",
          "type": "uint256"
        }
      ],
      "name": "records",
      "outputs": [
        {
          "internalType": "uint256",
          "name": "timestamp",
          "type": "uint256"
        },
        {
          "internalType": "uint256",
          "name": "moisture",
          "type": "uint256"
        },
        {
          "internalType": "uint256",
          "name": "pH",
          "type": "uint256"
        },
        {
          "internalType": "uint256",
          "name": "temperature",
          "type": "uint256"
        },
        {
          "internalType": "uint256",
          "name": "humidity",
          "type": "uint256"
        },
        {
          "internalType": "address",
          "name": "reporter",
          "type": "address"
        }
      ],
      "stateMutability": "view",
      "type": "function"
    },
    {
      "inputs": [
        {
          "internalType": "uint256",
          "name": "_timestamp",
          "type": "uint256"
        },
        {
          "internalType": "uint256",
          "name": "_moisture",
          "type": "uint256"
        },
        {
          "internalType": "uint256",
          "name": "_pH",
          "type": "uint256"
        },
        {
          "internalType": "uint256",
          "name": "_temperature",
          "type": "uint256"
        },
        {
          "internalType": "uint256",
          "name": "_humidity",
          "type": "uint256"
        }
      ],
      "name": "storeData",
      "outputs": [],
      "stateMutability": "nonpayable",
      "type": "function"
    }
  ],
  "bytecode": "0x608060405234801561001057600080fd5b50610c47806100206000396000f3fe608060405234801561001057600080fd5b50600436106100575760003560e01c806303e9e6091461005c578063344610671461008c5780633f1efd25146100c1578063a87d942c146100f1578063f42b39171461010f575b600080fd5b610076600480360381019061007191906106d7565b61012b565b60405161008391906107cf565b60405180910390f35b6100a660048036038101906100a191906106d7565b610236565b6040516100b896959493929190610808565b60405180910390f35b6100db60048036038101906100d69190610869565b6102a2565b6040516100e891906109d3565b60405180910390f35b6100f9610501565b60405161010691906109f5565b60405180910390f35b61012960048036038101906101249190610a10565b61050d565b005b610133610650565b600080549050821061017a576040517f08c379a000000000000000000000000000000000000000000000000000000000815260040161017190610ae8565b60405180910390fd5b6000828154811061018e5761018d610b08565b5b90600052602060002090600602016040518060c001604052908160008201548152602001600182015481526020016002820154815260200160038201548152602001600482015481526020016005820160009054906101000a900473ffffffffffffffffffffffffffffffffffffffff1673ffffffffffffffffffffffffffffffffffffffff1673ffffffffffffffffffffffffffffffffffffffff16815250509050919050565b6000818154811061024657600080fd5b90600052602060002090600602016000915090508060000154908060010154908060020154908060030154908060040154908060050160009054906101000a900473ffffffffffffffffffffffffffffffffffffffff16905086565b60606000805b6000805490508110156103365784600082815481106102ca576102c9610b08565b5b9060005260206000209060060201600001541015801561030f575083600082815481106102fa576102f9610b08565b5b90600052602060002090600602016000015411155b1561032357818061031f90610b66565b9250505b808061032e90610b66565b9150506102a8565b5060008167ffffffffffffffff81111561035357610352610bae565b5b60405190808252806020026020018201604052801561038c57816020015b610379610650565b8152602001906001900390816103715790505b5090506000805b6000805490508110156104f45786600082815481106103b5576103b4610b08565b5b906000526020600020906006020160000154101580156103fa575085600082815481106103e5576103e4610b08565b5b90600052602060002090600602016000015411155b156104e1576000818154811061041357610412610b08565b5b90600052602060002090600602016040518060c001604052908160008201548152602001600182015481526020016002820154815260200160038201548152602001600482015481526020016005820160009054906101000a900473ffffffffffffffffffffffffffffffffffffffff1673ffffffffffffffffffffffffffffffffffffffff1673ffffffffffffffffffffffffffffffffffffffff16815250508383815181106104c7576104c6610b08565b5b602002602001018190525081806104dd90610b66565b9250505b80806104ec90610b66565b915050610393565b5081935050505092915050565b60008080549050905090565b60006040518060c001604052808781526020018681526020018581526020018481526020018381526020013373ffffffffffffffffffffffffffffffffffffffff168152509080600181540180825580915050600190039060005260206000209060060201600090919091909150600082015181600001556020820151816001015560408201518160020155606082015181600301556080820151816004015560a08201518160050160006101000a81548173ffffffffffffffffffffffffffffffffffffffff021916908373ffffffffffffffffffffffffffffffffffffffff160217905550505060016000805490506106089190610bdd565b7fedc9e5eb68f1ef549a76a9cc3c6287ee32021af76058bbbce31a161a675bb40f86868686863360405161064196959493929190610808565b60405180910390a25050505050565b6040518060c001604052806000815260200160008152602001600081526020016000815260200160008152602001600073ffffffffffffffffffffffffffffffffffffffff1681525090565b600080fd5b6000819050919050565b6106b4816106a1565b81146106bf57600080fd5b50565b6000813590506106d1816106ab565b92915050565b6000602082840312156106ed576106ec61069c565b5b60006106fb848285016106c2565b91505092915050565b61070d816106a1565b82525050565b600073ffffffffffffffffffffffffffffffffffffffff82169050919050565b600061073e82610713565b9050919050565b61074e81610733565b82525050565b60c08201600082015161076a6000850182610704565b50602082015161077d6020850182610704565b5060408201516107906040850182610704565b5060608201516107a36060850182610704565b5060808201516107b66080850182610704565b5060a08201516107c960a0850182610745565b50505050565b600060c0820190506107e46000830184610754565b92915050565b6107f3816106a1565b82525050565b61080281610733565b82525050565b600060c08201905061081d60008301896107ea565b61082a60208301886107ea565b61083760408301876107ea565b61084460608301866107ea565b61085160808301856107ea565b61085e60a08301846107f9565b979650505050505050565b600080604083850312156108805761087f61069c565b5b600061088e858286016106c2565b925050602061089f858286016106c2565b9150509250929050565b600081519050919050565b600082825260208201905092915050565b6000819050602082019050919050565b60c0820160008201516108eb6000850182610704565b5060208201516108fe6020850182610704565b5060408201516109116040850182610704565b5060608201516109246060850182610704565b5060808201516109376080850182610704565b5060a082015161094a60a0850182610745565b50505050565b600061095c83836108d5565b60c08301905092915050565b6000602082019050919050565b6000610980826108a9565b61098a81856108b4565b9350610995836108c5565b8060005b838110156109c65781516109ad8882610950565b97506109b883610968565b925050600181019050610999565b5085935050505092915050565b600060208201905081810360008301526109ed8184610975565b905092915050565b6000602082019050610a0a60008301846107ea565b92915050565b600080600080600060a08688031215610a2c57610a2b61069c565b5b6000610a3a888289016106c2565b9550506020610a4b888289016106c2565b9450506040610a5c888289016106c2565b9350506060610a6d888289016106c2565b9250506080610a7e888289016106c2565b9150509295509295909350565b600082825260208201905092915050565b7f496e76616c696420494400000000000000000000000000000000000000000000600082015250565b6000610ad2600a83610a8b565b9150610add82610a9c565b602082019050919050565b60006020820190508181036000830152610b0181610ac5565b9050919050565b7f4e487b7100000000000000000000000000000000000000000000000000000000600052603260045260246000fd5b7f4e487b7100000000000000000000000000000000000000000000000000000000600052601160045260246000fd5b6000610b71826106a1565b91507fffffffffffffffffffffffffffffffffffffffffffffffffffffffffffffffff8203610ba357610ba2610b37565b5b600182019050919050565b7f4e487b7100000000000000000000000000000000000000000000000000000000600052604160045260246000fd5b6000610be8826106a1565b9150610bf3836106a1565b9250828203905081811115610c0b57610c0a610b37565b5b9291505056fea264697066735822122061e35daf8291f1f1e3e304a62f36f2ef032f8526313c0df74a37d3be7626ca7864736f6c63430008140033",
  "linkReferences": {},
  "deployedLinkReferences": {}
}