{
  "_format": "hh-sol-artifact-1",
  "contractName": "SoilDataStore",
  "sourceName": "contracts/SoilDataStore.sol",
  "abi": [
    {
      "anonymous": false,
      "inputs": [
        {
          "indexed": true,
          "internalType": "uint256",
          "name": "id",
          "type": "uint256"
        },
        {
          "indexed": false,
          "internalType": "uint256",
          "name": "measuredAtVN",
          "type": "uint256"
        },
        {
          "indexed": false,
          "internalType": "uint256",
          "name": "temperatureC",
          "type": "uint256"
        },
        {
          "indexed": false,
          "internalType": "uint256",
          "name": "humidityPct",
          "type": "uint256"
        },
        {
          "indexed": false,
          "internalType": "uint256",
          "name": "moisturePct",
          "type": "uint256"
        },
        {
          "indexed": false,
          "internalType": "address",
          "name": "reporter",
          "type": "address"
        }
      ],
      "name": "DataStored",
      "type": "event"
    },
    {
      "inputs": [],
      "name": "getCount",
      "outputs": [
        {
          "internalType": "uint256",
          "name": "",
          "type": "uint256"
        }
      ],
      "stateMutability": "view",
      "type": "function"
    },
    {
      "inputs": [
        {
          "internalType": "uint256",
          "name": "id",
          "type": "uint256"
        }
      ],
      "name": "getRecord",
      "outputs": [
        {
          "components": [
            {
              "internalType": "uint256",
              "name": "measuredAtVN",
              "type": "uint256"
            },
            {
              "internalType": "uint256",
              "name": "temperatureC",
              "type": "uint256"
            },
            {
              "internalType": "uint256",
              "name": "humidityPct",
              "type": "uint256"
            },
            {
              "internalType": "uint256",
              "name": "moisturePct",
              "type": "uint256"
            },
            {
              "internalType": "address",
              "name": "reporter",
              "type": "address"
            }
          ],
          "internalType": "struct SoilDataStore.SoilData",
          "name": "",
          "type": "tuple"
        }
      ],
      "stateMutability": "view",
      "type": "function"
    },
    {
      "inputs": [
        {
          "internalType": "uint256",
          "name": "startTime",
          "type": "uint256"
        },
        {
          "internalType": "uint256",
          "name": "endTime",
          "type": "uint256"
        }
      ],
      "name": "getRecordsByTimeRange",
      "outputs": [
        {
          "components": [
            {
              "internalType": "uint256",
              "name": "measuredAtVN",
              "type": "uint256"
            },
            {
              "internalType": "uint256",
              "name": "temperatureC",
              "type": "uint256"
            },
            {
              "internalType": "uint256",
              "name": "humidityPct",
              "type": "uint256"
            },
            {
              "internalType": "uint256",
              "name": "moisturePct",
              "type": "uint256"
            },
            {
              "internalType": "address",
              "name": "reporter",
              "type": "address"
            }
          ],
          "internalType": "struct SoilDataStore.SoilData[]",
          "name": "",
          "type": "tuple[]"
        }
      ],
      "stateMutability": "view",
      "type": "function"
    },
    {
      "inputs": [
        {
          "internalType": "uint256",
          "name": "",
          "type": "uint256"
        }
      ],
      "name": "records",
      "outputs": [
        {
          "internalType": "uint256",
          "name": "measuredAtVN",
          "type": "uint256"
        },
        {
          "internalType": "uint256",
          "name": "temperatureC",
          "type": "uint256"
        },
        {
          "internalType": "uint256",
          "name": "humidityPct",
          "type": "uint256"
        },
        {
          "internalType": "uint256",
          "name": "moisturePct",
          "type": "uint256"
        },
        {
          "internalType": "address",
          "name": "reporter",
          "type": "address"
        }
      ],
      "stateMutability": "view",
      "type": "function"
    },
    {
      "inputs": [
        {
          "internalType": "uint256",
          "name": "_measuredAtVN",
          "type": "uint256"
        },
        {
          "internalType": "uint256",
          "name": "_temperatureC",
          "type": "uint256"
        },
        {
          "internalType": "uint256",
          "name": "_humidityPct",
          "type": "uint256"
        },
        {
          "internalType": "uint256",
          "name": "_moisturePct",
          "type": "uint256"
        }
      ],
      "name": "storeData",
      "outputs": [],
      "stateMutability": "nonpayable",
      "type": "function"
    }
  ],
  "bytecode": "0x608060405234801561001057600080fd5b50610bca806100206000396000f3fe608060405234801561001057600080fd5b50600436106100575760003560e01c806303e9e6091461005c578063344610671461008c5780633f1efd25146100c0578063997bcd1b146100f0578063a87d942c1461010c575b600080fd5b610076600480360381019061007191906106a2565b61012a565b6040516100839190610787565b60405180910390f35b6100a660048036038101906100a191906106a2565b61022b565b6040516100b79594939291906107c0565b60405180910390f35b6100da60048036038101906100d59190610813565b610291565b6040516100e7919061096a565b60405180910390f35b61010a6004803603810190610105919061098c565b6104e6565b005b610114610616565b60405161012191906109f3565b60405180910390f35b610132610622565b6000805490508210610179576040517f08c379a000000000000000000000000000000000000000000000000000000000815260040161017090610a6b565b60405180910390fd5b6000828154811061018d5761018c610a8b565b5b90600052602060002090600502016040518060a0016040529081600082015481526020016001820154815260200160028201548152602001600382015481526020016004820160009054906101000a900473ffffffffffffffffffffffffffffffffffffffff1673ffffffffffffffffffffffffffffffffffffffff1673ffffffffffffffffffffffffffffffffffffffff16815250509050919050565b6000818154811061023b57600080fd5b90600052602060002090600502016000915090508060000154908060010154908060020154908060030154908060040160009054906101000a900473ffffffffffffffffffffffffffffffffffffffff16905085565b60606000805b6000805490508110156103255784600082815481106102b9576102b8610a8b565b5b906000526020600020906005020160000154101580156102fe575083600082815481106102e9576102e8610a8b565b5b90600052602060002090600502016000015411155b1561031257818061030e90610ae9565b9250505b808061031d90610ae9565b915050610297565b5060008167ffffffffffffffff81111561034257610341610b31565b5b60405190808252806020026020018201604052801561037b57816020015b610368610622565b8152602001906001900390816103605790505b5090506000805b6000805490508110156104d95786600082815481106103a4576103a3610a8b565b5b906000526020600020906005020160000154101580156103e9575085600082815481106103d4576103d3610a8b565b5b90600052602060002090600502016000015411155b156104c6576000818154811061040257610401610a8b565b5b90600052602060002090600502016040518060a0016040529081600082015481526020016001820154815260200160028201548152602001600382015481526020016004820160009054906101000a900473ffffffffffffffffffffffffffffffffffffffff1673ffffffffffffffffffffffffffffffffffffffff1673ffffffffffffffffffffffffffffffffffffffff16815250508383815181106104ac576104ab610a8b565b5b602002602001018190525081806104c290610ae9565b9250505b80806104d190610ae9565b915050610382565b5081935050505092915050565b60006040518060a001604052808681526020018581526020018481526020018381526020013373ffffffffffffffffffffffffffffffffffffffff1681525090806001815401808255809150506001900390600052602060002090600502016000909190919091506000820151816000015560208201518160010155604082015181600201556060820151816003015560808201518160040160006101000a81548173ffffffffffffffffffffffffffffffffffffffff021916908373ffffffffffffffffffffffffffffffffffffffff160217905550505060016000805490506105d19190610b60565b7f1baf3c5af0c822264a9e5502d622e2804a2baa75c35689a51ff6fb83750f1c5985858585336040516106089594939291906107c0565b60405180910390a250505050565b60008080549050905090565b6040518060a0016040528060008152602001600081526020016000815260200160008152602001600073ffffffffffffffffffffffffffffffffffffffff1681525090565b600080fd5b6000819050919050565b61067f8161066c565b811461068a57600080fd5b50565b60008135905061069c81610676565b92915050565b6000602082840312156106b8576106b7610667565b5b60006106c68482850161068d565b91505092915050565b6106d88161066c565b82525050565b600073ffffffffffffffffffffffffffffffffffffffff82169050919050565b6000610709826106de565b9050919050565b610719816106fe565b82525050565b60a08201600082015161073560008501826106cf565b50602082015161074860208501826106cf565b50604082015161075b60408501826106cf565b50606082015161076e60608501826106cf565b5060808201516107816080850182610710565b50505050565b600060a08201905061079c600083018461071f565b92915050565b6107ab8161066c565b82525050565b6107ba816106fe565b82525050565b600060a0820190506107d560008301886107a2565b6107e260208301876107a2565b6107ef60408301866107a2565b6107fc60608301856107a2565b61080960808301846107b1565b9695505050505050565b6000806040838503121561082a57610829610667565b5b60006108388582860161068d565b92505060206108498582860161068d565b9150509250929050565b600081519050919050565b600082825260208201905092915050565b6000819050602082019050919050565b60a08201600082015161089560008501826106cf565b5060208201516108a860208501826106cf565b5060408201516108bb60408501826106cf565b5060608201516108ce60608501826106cf565b5060808201516108e16080850182610710565b50505050565b60006108f3838361087f565b60a08301905092915050565b6000602082019050919050565b600061091782610853565b610921818561085e565b935061092c8361086f565b8060005b8381101561095d57815161094488826108e7565b975061094f836108ff565b925050600181019050610930565b5085935050505092915050565b60006020820190508181036000830152610984818461090c565b905092915050565b600080600080608085870312156109a6576109a5610667565b5b60006109b48782880161068d565b94505060206109c58782880161068d565b93505060406109d68782880161068d565b92505060606109e78782880161068d565b91505092959194509250565b6000602082019050610a0860008301846107a2565b92915050565b600082825260208201905092915050565b7f496e76616c696420494400000000000000000000000000000000000000000000600082015250565b6000610a55600a83610a0e565b9150610a6082610a1f565b602082019050919050565b60006020820190508181036000830152610a8481610a48565b9050919050565b7f4e487b7100000000000000000000000000000000000000000000000000000000600052603260045260246000fd5b7f4e487b7100000000000000000000000000000000000000000000000000000000600052601160045260246000fd5b6000610af48261066c565b91507fffffffffffffffffffffffffffffffffffffffffffffffffffffffffffffffff8203610b2657610b25610aba565b5b600182019050919050565b7f4e487b7100000000000000000000000000000000000000000000000000000000600052604160045260246000fd5b6000610b6b8261066c565b9150610b768361066c565b9250828203905081811115610b8e57610b8d610aba565b5b9291505056fea264697066735822122009649ee3f1d60ff63d85a3c0014336c2f1edbb1c594227b4bdab462ebb16130264736f6c63430008140033",
  "linkReferences": {},
  "deployedLinkReferences": {}
}