{
  "_format": "hh-sol-artifact-1",
  "contractName": "SoilDataStore",
  "sourceName": "contracts/SoilDataStore.sol",
  "abi": [
    {
      "anonymous": false,
      "inputs": [
        {
          "indexed": true,
          "internalType": "uint256",
          "name": "id",
          "type": "uint256"
        },
        {
          "indexed": true,
          "internalType": "uint256",
          "name": "dateTimestamp",
          "type": "uint256"
        },
        {
          "indexed": false,
          "internalType": "string",
          "name": "recommendedCrop",
          "type": "string"
        },
        {
          "indexed": false,
          "internalType": "uint256",
          "name": "soilHealthScore",
          "type": "uint256"
        },
        {
          "indexed": false,
          "internalType": "bool",
          "name": "isAnomalyDetected",
          "type": "bool"
        },
        {
          "indexed": false,
          "internalType": "address",
          "name": "reporter",
          "type": "address"
        }
      ],
      "name": "DailyInsightStored",
      "type": "event"
    },
    {
      "anonymous": false,
      "inputs": [
        {
          "indexed": true,
          "internalType": "uint256",
          "name": "id",
          "type": "uint256"
        },
        {
          "indexed": false,
          "internalType": "uint256",
          "name": "measuredAtVN",
          "type": "uint256"
        },
        {
          "indexed": false,
          "internalType": "uint256",
          "name": "soilTemperature",
          "type": "uint256"
        },
        {
          "indexed": false,
          "internalType": "uint256",
          "name": "soilMoisture",
          "type": "uint256"
        },
        {
          "indexed": false,
          "internalType": "uint256",
          "name": "conductivity",
          "type": "uint256"
        },
        {
          "indexed": false,
          "internalType": "uint256",
          "name": "phValue",
          "type": "uint256"
        },
        {
          "indexed": false,
          "internalType": "uint256",
          "name": "nitrogen",
          "type": "uint256"
        },
        {
          "indexed": false,
          "internalType": "uint256",
          "name": "phosphorus",
          "type": "uint256"
        },
        {
          "indexed": false,
          "internalType": "uint256",
          "name": "potassium",
          "type": "uint256"
        },
        {
          "indexed": false,
          "internalType": "uint256",
          "name": "salt",
          "type": "uint256"
        },
        {
          "indexed": false,
          "internalType": "uint256",
          "name": "airTemperature",
          "type": "uint256"
        },
        {
          "indexed": false,
          "internalType": "uint256",
          "name": "airHumidity",
          "type": "uint256"
        },
        {
          "indexed": false,
          "internalType": "uint256",
          "name": "isRaining",
          "type": "uint256"
        },
        {
          "indexed": false,
          "internalType": "address",
          "name": "reporter",
          "type": "address"
        }
      ],
      "name": "DataStored",
      "type": "event"
    },
    {
      "inputs": [
        {
          "internalType": "uint256",
          "name": "",
          "type": "uint256"
        }
      ],
      "name": "dailyInsightExists",
      "outputs": [
        {
          "internalType": "bool",
          "name": "",
          "type": "bool"
        }
      ],
      "stateMutability": "view",
      "type": "function"
    },
    {
      "inputs": [
        {
          "internalType": "uint256",
          "name": "",
          "type": "uint256"
        }
      ],
      "name": "dailyInsights",
      "outputs": [
        {
          "internalType": "uint256",
          "name": "dateTimestamp",
          "type": "uint256"
        },
        {
          "internalType": "uint256",
          "name": "sampleCount",
          "type": "uint256"
        },
        {
          "internalType": "string",
          "name": "recommendedCrop",
          "type": "string"
        },
        {
          "internalType": "uint256",
          "name": "confidence",
          "type": "uint256"
        },
        {
          "internalType": "uint256",
          "name": "soilHealthScore",
          "type": "uint256"
        },
        {
          "internalType": "uint8",
          "name": "healthRating",
          "type": "uint8"
        },
        {
          "internalType": "bool",
          "name": "isAnomalyDetected",
          "type": "bool"
        },
        {
          "internalType": "string",
          "name": "recommendations",
          "type": "string"
        },
        {
          "internalType": "address",
          "name": "reporter",
          "type": "address"
        }
      ],
      "stateMutability": "view",
      "type": "function"
    },
    {
      "inputs": [],
      "name": "getCount",
      "outputs": [
        {
          "internalType": "uint256",
          "name": "",
          "type": "uint256"
        }
      ],
      "stateMutability": "view",
      "type": "function"
    },
    {
      "inputs": [
        {
          "internalType": "uint256",
          "name": "id",
          "type": "uint256"
        }
      ],
      "name": "getDailyInsight",
      "outputs": [
        {
          "components": [
            {
              "internalType": "uint256",
              "name": "dateTimestamp",
              "type": "uint256"
            },
            {
              "internalType": "uint256",
              "name": "sampleCount",
              "type": "uint256"
            },
            {
              "internalType": "string",
              "name": "recommendedCrop",
              "type": "string"
            },
            {
              "internalType": "uint256",
              "name": "confidence",
              "type": "uint256"
            },
            {
              "internalType": "uint256",
              "name": "soilHealthScore",
              "type": "uint256"
            },
            {
              "internalType": "uint8",
              "name": "healthRating",
              "type": "uint8"
            },
            {
              "internalType": "bool",
              "name": "isAnomalyDetected",
              "type": "bool"
            },
            {
              "internalType": "string",
              "name": "recommendations",
              "type": "string"
            },
            {
              "internalType": "address",
              "name": "reporter",
              "type": "address"
            }
          ],
          "internalType": "struct SoilDataStore.DailyInsight",
          "name": "",
          "type": "tuple"
        }
      ],
      "stateMutability": "view",
      "type": "function"
    },
    {
      "inputs": [],
      "name": "getDailyInsightCount",
      "outputs": [
        {
          "internalType": "uint256",
          "name": "",
          "type": "uint256"
        }
      ],
      "stateMutability": "view",
      "type": "function"
    },
    {
      "inputs": [
        {
          "internalType": "uint256",
          "name": "startDate",
          "type": "uint256"
        },
        {
          "internalType": "uint256",
          "name": "endDate",
          "type": "uint256"
        }
      ],
      "name": "getDailyInsightsByDateRange",
      "outputs": [
        {
          "components": [
            {
              "internalType": "uint256",
              "name": "dateTimestamp",
              "type": "uint256"
            },
            {
              "internalType": "uint256",
              "name": "sampleCount",
              "type": "uint256"
            },
            {
              "internalType": "string",
              "name": "recommendedCrop",
              "type": "string"
            },
            {
              "internalType": "uint256",
              "name": "confidence",
              "type": "uint256"
            },
            {
              "internalType": "uint256",
              "name": "soilHealthScore",
              "type": "uint256"
            },
            {
              "internalType": "uint8",
              "name": "healthRating",
              "type": "uint8"
            },
            {
              "internalType": "bool",
              "name": "isAnomalyDetected",
              "type": "bool"
            },
            {
              "internalType": "string",
              "name": "recommendations",
              "type": "string"
            },
            {
              "internalType": "address",
              "name": "reporter",
              "type": "address"
            }
          ],
          "internalType": "struct SoilDataStore.DailyInsight[]",
          "name": "",
          "type": "tuple[]"
        }
      ],
      "stateMutability": "view",
      "type": "function"
    },
    {
      "inputs": [],
      "name": "getLatestDailyInsight",
      "outputs": [
        {
          "components": [
            {
              "internalType": "uint256",
              "name": "dateTimestamp",
              "type": "uint256"
            },
            {
              "internalType": "uint256",
              "name": "sampleCount",
              "type": "uint256"
            },
            {
              "internalType": "string",
              "name": "recommendedCrop",
              "type": "string"
            },
            {
              "internalType": "uint256",
              "name": "confidence",
              "type": "uint256"
            },
            {
              "internalType": "uint256",
              "name": "soilHealthScore",
              "type": "uint256"
            },
            {
              "internalType": "uint8",
              "name": "healthRating",
              "type": "uint8"
            },
            {
              "internalType": "bool",
              "name": "isAnomalyDetected",
              "type": "bool"
            },
            {
              "internalType": "string",
              "name": "recommendations",
              "type": "string"
            },
            {
              "internalType": "address",
              "name": "reporter",
              "type": "address"
            }
          ],
          "internalType": "struct SoilDataStore.DailyInsight",
          "name": "",
          "type": "tuple"
        }
      ],
      "stateMutability": "view",
      "type": "function"
    },
    {
      "inputs": [
        {
          "internalType": "uint256",
          "name": "id",
          "type": "uint256"
        }
      ],
      "name": "getRecord",
      "outputs": [
        {
          "components": [
            {
              "internalType": "uint256",
              "name": "measuredAtVN",
              "type": "uint256"
            },
            {
              "internalType": "uint256",
              "name": "soilTemperature",
              "type": "uint256"
            },
            {
              "internalType": "uint256",
              "name": "soilMoisture",
              "type": "uint256"
            },
            {
              "internalType": "uint256",
              "name": "conductivity",
              "type": "uint256"
            },
            {
              "internalType": "uint256",
              "name": "phValue",
              "type": "uint256"
            },
            {
              "internalType": "uint256",
              "name": "nitrogen",
              "type": "uint256"
            },
            {
              "internalType": "uint256",
              "name": "phosphorus",
              "type": "uint256"
            },
            {
              "internalType": "uint256",
              "name": "potassium",
              "type": "uint256"
            },
            {
              "internalType": "uint256",
              "name": "salt",
              "type": "uint256"
            },
            {
              "internalType": "uint256",
              "name": "airTemperature",
              "type": "uint256"
            },
            {
              "internalType": "uint256",
              "name": "airHumidity",
              "type": "uint256"
            },
            {
              "internalType": "uint256",
              "name": "isRaining",
              "type": "uint256"
            },
            {
              "internalType": "address",
              "name": "reporter",
              "type": "address"
            }
          ],
          "internalType": "struct SoilDataStore.SoilData",
          "name": "",
          "type": "tuple"
        }
      ],
      "stateMutability": "view",
      "type": "function"
    },
    {
      "inputs": [
        {
          "internalType": "uint256",
          "name": "startTime",
          "type": "uint256"
        },
        {
          "internalType": "uint256",
          "name": "endTime",
          "type": "uint256"
        }
      ],
      "name": "getRecordsByTimeRange",
      "outputs": [
        {
          "components": [
            {
              "internalType": "uint256",
              "name": "measuredAtVN",
              "type": "uint256"
            },
            {
              "internalType": "uint256",
              "name": "soilTemperature",
              "type": "uint256"
            },
            {
              "internalType": "uint256",
              "name": "soilMoisture",
              "type": "uint256"
            },
            {
              "internalType": "uint256",
              "name": "conductivity",
              "type": "uint256"
            },
            {
              "internalType": "uint256",
              "name": "phValue",
              "type": "uint256"
            },
            {
              "internalType": "uint256",
              "name": "nitrogen",
              "type": "uint256"
            },
            {
              "internalType": "uint256",
              "name": "phosphorus",
              "type": "uint256"
            },
            {
              "internalType": "uint256",
              "name": "potassium",
              "type": "uint256"
            },
            {
              "internalType": "uint256",
              "name": "salt",
              "type": "uint256"
            },
            {
              "internalType": "uint256",
              "name": "airTemperature",
              "type": "uint256"
            },
            {
              "internalType": "uint256",
              "name": "airHumidity",
              "type": "uint256"
            },
            {
              "internalType": "uint256",
              "name": "isRaining",
              "type": "uint256"
            },
            {
              "internalType": "address",
              "name": "reporter",
              "type": "address"
            }
          ],
          "internalType": "struct SoilDataStore.SoilData[]",
          "name": "",
          "type": "tuple[]"
        }
      ],
      "stateMutability": "view",
      "type": "function"
    },
    {
      "inputs": [
        {
          "internalType": "uint256",
          "name": "",
          "type": "uint256"
        }
      ],
      "name": "records",
      "outputs": [
        {
          "internalType": "uint256",
          "name": "measuredAtVN",
          "type": "uint256"
        },
        {
          "internalType": "uint256",
          "name": "soilTemperature",
          "type": "uint256"
        },
        {
          "internalType": "uint256",
          "name": "soilMoisture",
          "type": "uint256"
        },
        {
          "internalType": "uint256",
          "name": "conductivity",
          "type": "uint256"
        },
        {
          "internalType": "uint256",
          "name": "phValue",
          "type": "uint256"
        },
        {
          "internalType": "uint256",
          "name": "nitrogen",
          "type": "uint256"
        },
        {
          "internalType": "uint256",
          "name": "phosphorus",
          "type": "uint256"
        },
        {
          "internalType": "uint256",
          "name": "potassium",
          "type": "uint256"
        },
        {
          "internalType": "uint256",
          "name": "salt",
          "type": "uint256"
        },
        {
          "internalType": "uint256",
          "name": "airTemperature",
          "type": "uint256"
        },
        {
          "internalType": "uint256",
          "name": "airHumidity",
          "type": "uint256"
        },
        {
          "internalType": "uint256",
          "name": "isRaining",
          "type": "uint256"
        },
        {
          "internalType": "address",
          "name": "reporter",
          "type": "address"
        }
      ],
      "stateMutability": "view",
      "type": "function"
    },
    {
      "inputs": [
        {
          "internalType": "uint256",
          "name": "_dateTimestamp",
          "type": "uint256"
        },
        {
          "internalType": "uint256",
          "name": "_sampleCount",
          "type": "uint256"
        },
        {
          "internalType": "string",
          "name": "_recommendedCrop",
          "type": "string"
        },
        {
          "internalType": "uint256",
          "name": "_confidence",
          "type": "uint256"
        },
        {
          "internalType": "uint256",
          "name": "_soilHealthScore",
          "type": "uint256"
        },
        {
          "internalType": "uint8",
          "name": "_healthRating",
          "type": "uint8"
        },
        {
          "internalType": "bool",
          "name": "_isAnomalyDetected",
          "type": "bool"
        },
        {
          "internalType": "string",
          "name": "_recommendations",
          "type": "string"
        }
      ],
      "name": "storeDailyInsight",
      "outputs": [],
      "stateMutability": "nonpayable",
      "type": "function"
    },
    {
      "inputs": [
        {
          "internalType": "uint256",
          "name": "_measuredAtVN",
          "type": "uint256"
        },
        {
          "internalType": "uint256",
          "name": "_soilTemperature",
          "type": "uint256"
        },
        {
          "internalType": "uint256",
          "name": "_soilMoisture",
          "type": "uint256"
        },
        {
          "internalType": "uint256",
          "name": "_conductivity",
          "type": "uint256"
        },
        {
          "internalType": "uint256",
          "name": "_phValue",
          "type": "uint256"
        },
        {
          "internalType": "uint256",
          "name": "_nitrogen",
          "type": "uint256"
        },
        {
          "internalType": "uint256",
          "name": "_phosphorus",
          "type": "uint256"
        },
        {
          "internalType": "uint256",
          "name": "_potassium",
          "type": "uint256"
        },
        {
          "internalType": "uint256",
          "name": "_salt",
          "type": "uint256"
        },
        {
          "internalType": "uint256",
          "name": "_airTemperature",
          "type": "uint256"
        },
        {
          "internalType": "uint256",
          "name": "_airHumidity",
          "type": "uint256"
        },
        {
          "internalType": "uint256",
          "name": "_isRaining",
          "type": "uint256"
        }
      ],
      "name": "storeData",
      "outputs": [],
      "stateMutability": "nonpayable",
      "type": "function"
    }
  ],
  "bytecode": "0x60808060405234610016576113b8908161001c8239f35b600080fdfe6080604052600436101561001257600080fd5b60003560e01c806303e9e60914610d0b578063285314351461083d57806334461067146107b85780633f1efd2514610647578063709a8753146105c4578063a492520a14610593578063a68da844146104ce578063a87d942c146104b0578063c941812c14610460578063db9e45ef14610266578063dc4638d5146100c35763eef9b778146100a057600080fd5b346100be5760003660031901126100be576020600154604051908152f35b600080fd5b346100be576100d136610f42565b600180549092600092835b83811061021657506100ed8461125b565b936100fb6040519586610e17565b80855261010a601f199161125b565b0160005b8181106101ff57505060009160005b848110610187578587604051906020808301818452845180915260408401918060408360051b8701019601926000905b83821061015a5786880387f35b90919293948380610176839a603f198b82030186528951610f98565b99970195949391909101910161014d565b816101918261101a565b50541015806101eb575b6101ae575b6101a99061124c565b61011d565b926101e36101a9916101c86101c28761101a565b506111ca565b6101d2828a611273565b526101dd8189611273565b5061124c565b9390506101a0565b50826101f68261101a565b5054111561019b565b60209061020a61114a565b8282890101520161010e565b826102208261101a565b5054101580610252575b61023d575b6102389061124c565b6100dc565b9361024a6102389161124c565b94905061022f565b508161025d8261101a565b5054111561022a565b346100be576101803660031901126100be5760405161028481610dfa565b6004358152602435602082015260443560408201526064356060820152608435608082015260a43560a082015260c43560c082015260e43560e08201526101043561010082015261012435610120820152610144356101408201526101643561016082015233610180820152600054600160401b81101561044a5780600161030f9201600055610e90565b61043457600c90825181556020830151600182015560408301516002820155606083015160038201556080830151600482015560a0830151600582015560c0830151600682015560e0830151600782015561010083015160088201556101208301516009820155610140830151600a820155610160830151600b820155019061018060018060a01b03910151166bffffffffffffffffffffffff60a01b825416179055600054600019810190811161041e577f6a8f59ba935cbca61e09feb5c697c1c6870b690bf644c9f54c2b9644875a57fe60405180610419336101643561014435610124356101043560e43560c43560a4356084356064356044356024358d60043590610ede565b0390a2005b634e487b7160e01b600052601160045260246000fd5b634e487b7160e01b600052600060045260246000fd5b634e487b7160e01b600052604160045260246000fd5b346100be5760203660031901126100be576104ac6104986101c260043561048561114a565b506104936001548210611191565b61101a565b604051918291602083526020830190610f98565b0390f35b346100be5760003660031901126100be576020600054604051908152f35b346100be5760203660031901126100be576004356001548110156100be576104f59061101a565b50805460018201549161058861050d600283016110a4565b9160038101549060ff600482015460058301549061055d610530600686016110a4565b94600760018060a01b0391015416976040519a8b9a8b5260208b01526101208060408c01528a0190610f58565b946060890152608088015281811660a088015260081c16151560c086015284820360e0860152610f58565b906101008301520390f35b346100be5760203660031901126100be576004356000526002602052602060ff604060002054166040519015158152f35b346100be5760003660031901126100be576105dd61114a565b50600154801561060257600019810190811161041e576104986101c26104ac9261101a565b60405162461bcd60e51b815260206004820152601b60248201527f4e6f206461696c7920696e73696768747320617661696c61626c6500000000006044820152606490fd5b346100be5761065536610f42565b600091600091600054925b83811061076857506106718461125b565b9361067f6040519586610e17565b80855261068e601f199161125b565b0160005b81811061075157505060009160005b8481106106f4576040805160208082528851818301819052818a019383019160005b8281106106d05784840385f35b909192826101a0826106e56001948a51610d52565b019601910194929190946106c3565b816106fe82610e90565b505410158061073d575b61071b575b6107169061124c565b6106a1565b92610735610716916101c861072f87610e90565b506112e8565b93905061070d565b508261074882610e90565b50541115610708565b60209061075c611287565b82828901015201610692565b8261077282610e90565b50541015806107a4575b61078f575b61078a9061124c565b610660565b9361079c61078a9161124c565b949050610781565b50816107af82610e90565b5054111561077c565b346100be5760203660031901126100be576004356000548110156100be576107df90610e90565b5080546104ac6001830154926002810154906003810154600482015460058301546006840154600785015490600886015492600987015494600a88015496600b89015498600c60018060a01b0391015416996040519d8e9d8e610ede565b346100be57610100806003193601126100be5760443567ffffffffffffffff81116100be57610870903690600401610e39565b60a4359160ff83168093036100be5760c4359283151584036100be5760e43567ffffffffffffffff81116100be576108ac903690600401610e39565b60038211610cce57600435600052600260205260ff60406000205416610c7657604051916108d983610ddd565b60043583526020830191602435835260408401918683526064356060860152608435608086015260a085015286151560c085015260e08401523384840152600154600160401b81101561044a57806001610936920160015561101a565b92909261043457835183555160018301555180519067ffffffffffffffff821161044a578190610969600285015461106a565b601f8111610c23575b50602090601f8311600114610bb157600092610ba6575b50508160011b916000199060031b1c19161760028201555b60608201516003820155608082015160048201556005810160ff60a08401511681549061ff0060c0860151151560081b169161ffff19161717905560e082015180519067ffffffffffffffff821161044a57610a00600684015461106a565b601f8111610b5f575b50602090601f8311600114610aee57600793929160009183610ae3575b50508160011b916000199060031b1c19161760068201555b019160018060a01b03910151166bffffffffffffffffffffffff60a01b82541617905560043560005260026020526040600020600160ff1982541617905560015490600019820191821161041e577fa1396011014845048a9d54b1dfeea998c990052a143250ea773746c65c318ae490610ac360405191608083526080830190610f58565b9360843560208301521515604082015233606082015280600435940390a3005b015190508880610a26565b90601f198316916006850160005260206000209260005b818110610b475750916001939185600797969410610b2e575b505050811b016006820155610a3e565b015160001960f88460031b161c19169055888080610b1e565b92936020600181928786015181550195019301610b05565b600684016000526020600020601f840160051c810160208510610b9f575b601f830160051c82018110610b93575050610a09565b60008155600101610b7d565b5080610b7d565b015190508780610989565b9250600284016000526020600020906000935b601f1984168510610c08576001945083601f19811610610bef575b505050811b0160028201556109a1565b015160001960f88460031b161c19169055878080610bdf565b81810151835560209485019460019093019290910190610bc4565b909150600284016000526020600020601f840160051c810160208510610c6f575b90849392915b601f830160051c82018110610c60575050610972565b60008155859450600101610c4a565b5080610c44565b60405162461bcd60e51b815260206004820152602a60248201527f4461696c7920696e736967687420666f722074686973206461746520616c72656044820152696164792065786973747360b01b6064820152608490fd5b60405162461bcd60e51b8152602060048201526015602482015274496e76616c6964206865616c746820726174696e6760581b6044820152606490fd5b346100be5760203660031901126100be576101a0610d4361072f600435610d30611287565b50610d3e6000548210611191565b610e90565b610d506040518092610d52565bf35b805182526020810151602083015260408101516040830152606081015160608301526080810151608083015260a081015160a083015260c081015160c083015260e081015160e08301526101008082015190830152610120808201519083015261014080820151908301526101608082015190830152610180908160018060a01b0391015116910152565b610120810190811067ffffffffffffffff82111761044a57604052565b6101a0810190811067ffffffffffffffff82111761044a57604052565b90601f8019910116810190811067ffffffffffffffff82111761044a57604052565b81601f820112156100be5780359067ffffffffffffffff821161044a5760405192610e6e601f8401601f191660200185610e17565b828452602083830101116100be57816000926020809301838601378301015290565b906000918254811015610eca57600d90838052027f290decd9548b62a8d60345a988386fc84ba6bc95484008f6362f93160ef3e563019190565b634e487b7160e01b83526032600452602483fd5b9b99979593919d9c9a98969492909d6101a08d019e8d5260208d015260408c015260608b015260808a015260a089015260c088015260e0870152610100860152610120850152610140840152610160830152600160a01b6001900316906101800152565b60409060031901126100be576004359060243590565b919082519283825260005b848110610f84575050826000602080949584010152601f8019910116010190565b602081830181015184830182015201610f63565b908151815260208201516020820152611002610fc36040840151610120806040860152840190610f58565b606084015160608401526080840151608084015260ff60a08501511660a084015260c0840151151560c084015260e084015183820360e0850152610f58565b610100928301516001600160a01b0316919092015290565b60015481101561105457600160005260031b7fb10e2d527612073b26eecdfd717e6a320cf44b4afac2b0732d9fcbe2b7fa0cf60190600090565b634e487b7160e01b600052603260045260246000fd5b90600182811c9216801561109a575b602083101461108457565b634e487b7160e01b600052602260045260246000fd5b91607f1691611079565b90604051918260008254926110b88461106a565b90818452600194858116908160001461112757506001146110e4575b50506110e292500383610e17565b565b9093915060005260209081600020936000915b81831061110f5750506110e2935082010138806110d4565b855488840185015294850194879450918301916110f7565b9150506110e294506020925060ff191682840152151560051b82010138806110d4565b6040519061115782610ddd565b81610100600091828152826020820152606060408201528260608201528260808201528260a08201528260c0820152606060e08201520152565b1561119857565b60405162461bcd60e51b815260206004820152600a602482015269125b9d985b1a5908125160b21b6044820152606490fd5b906040516111d781610ddd565b610100819380548352600181015460208401526111f6600282016110a4565b6040840152600381015460608401526004810154608084015260ff600582015481811660a086015260081c16151560c0840152611235600682016110a4565b60e0840152600701546001600160a01b0316910152565b600019811461041e5760010190565b67ffffffffffffffff811161044a5760051b60200190565b80518210156110545760209160051b010190565b6040519061129482610dfa565b816101806000918281528260208201528260408201528260608201528260808201528260a08201528260c08201528260e0820152826101008201528261012082015282610140820152826101608201520152565b906040516112f581610dfa565b8254815260018301546020820152600283015460408201526003830154606082015260048301546080820152600583015460a0820152600683015460c0820152600783015460e082015260088301546101008201526009830154610120820152600a830154610140820152600b830154610160820152600c909201546001600160a01b031661018083015256fea2646970667358221220da75f4e4487a2a2dd1aaa1fb1757e9f078654466f7a17deff595826163eec42764736f6c63430008140033",
  "linkReferences": {},
  "deployedLinkReferences": {}
}